:020000040800F2
:10000000000002209902000855020008570200086B
:10001000590200085B0200085D02000800000000B1
:100020000000000000000000000000005F02000867
:100030006102000800000000630200086502000879
:10004000E9020008E9020008E9020008E9020008E4
:10005000E9020008E9020008E9020008E9020008D4
:10006000E9020008E9020008E9020008E9020008C4
:10007000E9020008E9020008E9020008E9020008B4
:10008000E9020008E9020008E9020008E9020008A4
:10009000E9020008E9020008E9020008E902000894
:1000A000E9020008E9020008E9020008E902000884
:1000B000E9020008E9020008E9020008E902000874
:1000C000E9020008E9020008E9020008E902000864
:1000D000E9020008E9020008E9020008E902000854
:1000E000E9020008E9020008E9020008E902000844
:1000F000E9020008E9020008E9020008E902000834
:10010000E9020008E9020008E9020008E902000823
:10011000E9020008E9020008E9020008E902000813
:10012000E9020008E9020008E9020008E902000803
:10013000E9020008E9020008E9020008E9020008F3
:10014000E9020008E9020008E9020008E9020008E3
:10015000E9020008E9020008E9020008E9020008D3
:10016000E9020008E9020008E9020008E9020008C3
:10017000E9020008E9020008E902000800000000A6
:08018000E9020008E902000891
:10018800002301E000BF0133014A9342FADD7047C2
:100198003F420F0008B52B4AD2F8303843F001032C
:1001A800C2F83038284B196821F001011960196824
:1001B80021F002011960D2F8301841F00801C2F8A4
:1001C8003018D3F8002C22F04072C3F8002CD3F872
:1001D800002C42F08072C3F8002CD3F8002C22F0D7
:1001E8000072C3F8002CD3F8002C22F04062C3F848
:1001F800002CD3F8002C42F08062C3F8002CD3F80E
:10020800002C22F00062C3F8002CD3F80C2C22F04A
:100218004072C3F80C2CD3F80C2C22F04062C3F8BF
:100228000C2C094B1B6913F0010FFAD0064AD2F8BF
:10023800143C83F44053C2F8143C4FF47A70FFF72F
:100248009FFFEEE70030024000000240FEE7FEE7B5
:10025800FEE7FEE7FEE770477047704708B500F015
:1002680001F808BD034A1168034B1B780B4413605F
:10027800704700BF0400002000000020034AD2F8A5
:10028800883043F47003C2F88830704700ED00E00E
:10029800DFF834D0FFF7F2FF0C480D490D4A002370
:1002A80002E0D458C4500433C4188C42F9D30A4A23
:1002B8000A4C002301E013600432A242FBD300F091
:1002C80011F8FFF767FF70470000022000000020C8
:1002D800040000204C03000804000020080000204F
:1002E800FEE7000070B50D4D0D4C641BA4100026F0
:1002F800A64209D10B4D0C4C00F018F8641BA41051
:100308000026A64205D170BD55F8043B9847013632
:10031800EEE755F8043B98470136F2E70000000085
:10032800000000000000000000000000F8B500BF59
:10033800F8BC08BC9E467047F8B500BFF8BC08BCBE
:040348009E46704716
:04034C0001000000AC
:040000050800029954
:00000001FF
