:020000040800F2
:10000000000002206D1B00080D0800080F08000802
:100010001108000813080008150800080000000077
:1000200000000000000000000000000017080008A9
:1000300019080008000000001B0800081D0800083F
:10004000BD1B0008BD1B0008BD1B0008BD1B000830
:10005000BD1B0008BD1B000825080008BD1B0008CB
:10006000BD1B0008BD1B0008BD1B0008BD1B000810
:10007000BD1B0008BD1B0008BD1B0008BD1B000800
:10008000BD1B0008BD1B0008BD1B0008BD1B0008F0
:10009000BD1B0008BD1B0008BD1B0008BD1B0008E0
:1000A000BD1B000831080008BD1B0008BD1B00086F
:1000B000BD1B0008BD1B0008BD1B0008BD1B0008C0
:1000C000BD1B0008BD1B0008BD1B0008BD1B0008B0
:1000D000BD1B0008BD1B0008BD1B0008BD1B0008A0
:1000E000BD1B0008BD1B0008BD1B0008BD1B000890
:1000F000BD1B0008BD1B0008BD1B0008BD1B000880
:10010000BD1B0008BD1B0008BD1B0008BD1B00086F
:10011000BD1B0008BD1B0008BD1B0008BD1B00085F
:10012000BD1B0008BD1B0008BD1B0008BD1B00084F
:10013000BD1B0008BD1B0008BD1B0008BD1B00083F
:10014000BD1B0008BD1B0008BD1B0008BD1B00082F
:1001500041080008BD1B0008BD1B0008BD1B0008AE
:10016000BD1B0008BD1B0008BD1B0008BD1B00080F
:10017000BD1B0008BD1B0008BD1B000800000000DF
:08018000BD1B0008BD1B0008B7
:1001880053B94AB9002908BF00281CBF4FF0FF31F6
:100198004FF0FF3000F074B9ADF1080C6DE904CEF2
:1001A80000F006F8DDF804E0DDE9022304B070474A
:1001B8002DE9F047089D04468E46002B4DD18A4212
:1001C800944669D9B2FA82F252B101FA02F3C2F145
:1001D800200120FA01F10CFA02FC41EA030E9440D6
:1001E8004FEA1C48210CBEFBF8F61FFA8CF708FBF7
:1001F80016E341EA034306FB07F199420AD91CEBCF
:10020800030306F1FF3080F01F81994240F21C8100
:10021800023E63445B1AA4B2B3FBF8F008FB103348
:1002280044EA034400FB07F7A7420AD91CEB04047D
:1002380000F1FF3380F00A81A74240F2078164444D
:10024800023840EA0640E41B00261DB1D4400023D2
:10025800C5E900433146BDE8F0878B4209D9002D36
:1002680000F0EF800026C5E9000130463146BDE8C0
:10027800F087B3FA83F6002E4AD18B4202D382422A
:1002880000F2F980841A61EB030301209E46002DD9
:10029800E0D0C5E9004EDDE702B9FFDEB2FA82F22E
:1002A800002A40F09280A1EB0C014FEA1C471FFA8C
:1002B8008CFE0126200CB1FBF7F307FB131140EA73
:1002C80001410EFB03F0884208D91CEB010103F140
:1002D800FF3802D2884200F2CB804346091AA4B202
:1002E800B1FBF7F007FB101144EA01440EFB00FED6
:1002F800A64508D91CEB040400F1FF3102D2A6453B
:1003080000F2BB800846A4EB0E0440EA03409CE7D9
:10031800C6F12007B34022FA07FC4CEA030C20FA86
:1003280007F401FA06F31C43F9404FEA1C4900FAA6
:1003380006F3B1FBF9F8200C1FFA8CFE09FB181123
:1003480040EA014108FB0EF0884202FA06F20BD996
:100358001CEB010108F1FF3A80F08880884240F2E6
:100368008580A8F102086144091AA4B2B1FBF9F02A
:1003780009FB101144EA014100FB0EFE8E4508D925
:100388001CEB010100F1FF346CD28E456AD90238AA
:10039800614440EA0840A0FB0294A1EB0E01A1428F
:1003A800C846A64656D353D05DB1B3EB080261EBFD
:1003B8000E0101FA07F722FA06F3F1401F43C5E9D7
:1003C800007100263146BDE8F087C2F12003D8400D
:1003D8000CFA02FC21FA03F3914001434FEA1C474F
:1003E8001FFA8CFEB3FBF7F007FB10360B0C43EA41
:1003F800064300FB0EF69E4204FA02F408D91CEBF1
:10040800030300F1FF382FD29E422DD902386344EE
:100418009B1B89B2B3FBF7F607FB163341EA03418E
:1004280006FB0EF38B4208D91CEB010106F1FF38DD
:1004380016D28B4214D9023E6144C91A46EA0046D4
:1004480038E72E46284605E70646E3E61846F8E666
:100458004B45A9D2B9EB020864EB0C0E0138A3E7AF
:100468004646EAE7204694E74046D1E7D0467BE790
:10047800023B614432E7304609E76444023842E708
:10048800704700BF0B4B1B789BB10B4A11680B6878
:1004980023F001030B601368084ADA60084A9A607F
:1004A80008225A601A6842F001021A60014B0022C1
:1004B8001A7070472C000020300000200000002037
:1004C800140C024008B500221146442001F094FAA9
:1004D800442001F0C9FA00221146062001F08CFAE6
:1004E800062001F0C1FA08BD012800D07047214B51
:1004F8004022C3F88020BFF34F8FBFF36F8F1E4B8E
:100508001B781BB31C4B1B78DBB2012B03D0194B98
:1005180040221A60704719480268136823F00103E3
:10052800136017490B78174A02EB83020368DA60F5
:10053800154A9A600A78C2F108025A601A6842F0AD
:1005480001021A600C4B00221A70E0E710B50B4844
:1005580003685B68C3F10703DBB2094A137001241F
:100568000A4B1C7001F035F9034B1C70014B4022FB
:100578001A6010BD00E100E02D00002030000020CE
:100588002E00002000000020140C02402C00002047
:1005980072B6FEE700B595B03022002108A801F038
:1005A8002FFB00230393049305930693079301936A
:1005B800184A116C41F080511164126C02F080529B
:1005C8000192019A0293144A116841F48041116022
:1005D800126802F480420292029A022208920122D0
:1005E8000B9210220C920E9308A800F0D3FB68B966
:1005F8000F2303930021049105910691079103A805
:1006080000F016FE20B915B05DF804FBFFF7C0FF37
:10061800FFF7BEFF003802400070004008B501F047
:100628006BFAFFF7B7FF00F023F800F061F800F06D
:1006380071F8FFF747FF094C2268D36843F48073C9
:10064800D3600748074BC3630823074A074901F0EB
:100658008BF8204600F044F9FEE700BF9000002028
:10066800300000208D040008140C02400000002017
:1006780070B588B0002403940494059406940794F4
:100688000194184B1A6B42F001021A631A6B02F0BC
:1006980001020192019A02941A6B42F008021A634D
:1006A8001B6B03F008030293029B0F4D22464FF485
:1006B8007041284600F05EFF012603964FF4881328
:1006C8000493059403A9094800F062FE4FF47043AF
:1006D800039304960594069403A9284600F058FE4F
:1006E80008B070BD00380240000C02400000024013
:1006F80082B000230193064B1A6B42F480021A63FE
:100708001B6B03F480030193019B02B0704700BF89
:100718000038024000B587B0002302930393049386
:100728000593009301931648164A026042F20F722D
:100738004260836040F21F32C2600361436183619B
:1007480000F028FA98B94FF48053029302A90C4894
:1007580000F059FA70B92023009380230193694669
:10076800074800F0CFFA40B907B05DF804FBFFF77F
:100778000FFFE8E7FFF70CFFEDE7FFF709FFF3E7E7
:10078800900000200000014002681A4B9A4200D0F5
:10079800704710B582B0044600230193164A516C85
:1007A80041F001015164526C02F001020192019A78
:1007B8001248134A02604FF0406242604022826051
:1007C800C3604FF4806202614FF4805242614FF47B
:1007D800804282614FF48072C2610362436200F01A
:1007E8005DFF20B9054B23629C6302B010BDFFF783
:1007F800CFFEF7E70000014000380240300000203B
:1008080088640240FEE7FEE7FEE7FEE7FEE7704782
:100818007047704708B501F089F908BD08B501208F
:1008280000F0AEFE08BD000008B5024800F09BF8D5
:1008380008BD00BF9000002008B5024800F0DCFFAA
:1008480008BD00BF3000002082B0002100910B4B92
:100858005A6C42F480425A645A6C02F48042009204
:10086800009A01911A6C42F080521A641B6C03F0D2
:1008780080530193019B02B0704700BF00380240CB
:1008880010B4036A046A24F001040462846924F041
:10089800F00C4CEA021223F00A030B438261036254
:1008A8005DF8044B704710B4036A046A24F010041E
:1008B8000462846924F4704C4CEA023223F0A003E9
:1008C80043EA0113826103625DF8044B7047836851
:1008D80023F070030B4343F0070383607047000065
:1008E80090F83D30DBB2012B32D1022380F83D3045
:1008F8000368194A934220D0B3F1804F1DD0A2F566
:100908007C42934219D002F58062934215D002F5D9
:100918008062934211D002F5784293420DD002F5DD
:100928007052934209D0A2F59432934205D01A68C6
:1009380042F001021A60002070479A6802F007022C
:10094800062A07D01A6842F001021A600020704790
:100958000120704700207047000001407047704731
:1009680070477047704770B504460368DE681D69B4
:1009780015F0020F10D016F0020F0DD06FF0020222
:100988001A610123037703689B6913F0030F5ED094
:10099800FFF7E6FF0023237715F0040F12D016F0B7
:1009A800040F0FD023686FF004021A610223237723
:1009B80023689B6913F4407F4FD02046FFF7D0FF90
:1009C8000023237715F0080F12D016F0080F0FD068
:1009D80023686FF008021A61042323772368DB6910
:1009E80013F0030F40D02046FFF7BAFF0023237708
:1009F80015F0100F12D016F0100F0FD023686FF0FB
:100A080010021A61082323772368DB6913F4407FF7
:100A180031D02046FFF7A4FF0023237715F0010FFC
:100A280002D016F0010F2DD115F0800F02D016F06C
:100A3800800F2FD115F0400F02D016F0400F31D1A2
:100A480015F0200F02D016F0200F33D170BDFFF73C
:100A580086FF2046FFF785FF9CE72046FFF77FFFCC
:100A68002046FFF77EFFABE72046FFF778FF2046DA
:100A7800FFF777FFBAE72046FFF771FF2046FFF739
:100A880070FFC9E723686FF001021A612046FFF77B
:100A980065FFC9E723686FF080021A61204600F0FD
:100AA80078F9C7E723686FF040021A612046FFF71C
:100AB80059FFC5E723686FF020021A61204600F04D
:100AC80067F9C3E70368324A904212D0B0F1804F09
:100AD8000FD0A2F57C4290420BD002F58062904282
:100AE80007D002F58062904203D002F57842904226
:100AF80003D123F070034A681343254A90422AD051
:100B0800B0F1804F27D0A2F57C42904223D002F565
:100B1800806290421FD002F5806290421BD002F59D
:100B28007842904217D002F57052904213D002F5E5
:100B3800806290420FD002F5806290420BD0A2F5FD
:100B48009832904207D002F58062904203D002F5B5
:100B58008062904203D123F44073CA68134323F0A0
:100B680080034A6913438A68C2620A688262084A33
:100B7800904203D002F58062904201D10A69026373
:100B8800026842F004020260012242610360704779
:100B98000000014040B310B5044690F83D30F3B171
:100BA800022384F83D30214651F8040BFFF78AFFF1
:100BB800012384F8463084F83E3084F83F3084F8C6
:100BC800403084F8413084F8423084F8433084F867
:100BD800443084F8453084F83D30002010BD80F85A
:100BE8003C30FFF7D1FDDBE70120704710B4846883
:100BF80024F47F4C42EA03220A4342EA0C02826050
:100C08005DF8044B704790F83C30012B78D010B554
:100C18000446012380F83C30022380F83D30026806
:100C2800936823F47F4323F0770393600B68602B6A
:100C38004CD029D8402B54D00CD9502B22D1CA687B
:100C480049680068FFF71CFE50212068FFF73FFE47
:100C5800002005E0202B0DD009D9302B0AD0012027
:100C6800012384F83D30002384F83C3010BD0BB1DB
:100C7800102B05D119462068FFF729FE0020EFE761
:100C88000120EDE70120EBE7B3F5805F34D0B3F541
:100C9800005F0CD1CB684A6889680068FFF7A6FF37
:100CA8002268936843F4804393600020D8E7702B50
:100CB80024D1CB684A6889680068FFF797FF2268E3
:100CC800936843F0770393600020C9E7CA684968CE
:100CD8000068FFF7E8FD60212068FFF7F8FD0020B5
:100CE800BEE7CA6849680068FFF7CAFD4021206866
:100CF800FFF7EDFD0020B3E70020B1E70120AFE7E3
:100D08000220704790F83C30012B3DD010B40123ED
:100D180080F83C30022380F83D3003685A689C68AC
:100D280022F0700C0A6842EA0C025A600368174AFB
:100D380093421AD0B3F1804F17D0A2F57C42934268
:100D480013D002F5806293420FD002F5806293427D
:100D58000BD002F57842934207D002F570529342C5
:100D680003D0A2F59432934204D124F080044A6857
:100D780014439C60012380F83D30002380F83C3008
:100D880018465DF8044B7047022070470000014088
:100D980070477047002800F0E08170B582B00446C3
:100DA800036813F0010F3BD09F4B9B6803F00C03C3
:100DB800042B2CD09C4B9B6803F00C03082B21D0F0
:100DC8006368B3F5803F4FD0B3F5A02F52D0964B50
:100DD8001A6822F480321A601A6822F480221A6093
:100DE8006368002B50D000F0ADFE05468E4B1B68A3
:100DF80013F4003F14D100F0A5FE401B6428F5D978
:100E08000320B1E1884B5B6813F4800FD8D0864B80
:100E18001B6813F4003F03D06368002B00F09F8128
:100E2800236813F0020F54D07F4B9B6813F00C0F0C
:100E38003ED07D4B9B6803F00C03082B33D0E3684E
:100E4800002B68D0794B01221A6000F07BFE054622
:100E5800754B1B6813F0020F54D100F073FE401B52
:100E68000228F5D903207FE16F4A136843F48033E1
:100E78001360B5E76C4B1A6842F480221A601A684E
:100E880042F480321A60ABE700F05CFE0546664B20
:100E98001B6813F4003FC3D000F054FE401B6428C5
:100EA800F5D9032060E1604B5B6813F4800FC6D16D
:100EB8005D4B1B6813F0020F03D0E368012B40F071
:100EC8005081594A136823F0F803216943EAC103A2
:100ED8001360236813F0080F42D063696BB3534B58
:100EE8000122C3F8802E00F02DFE05464E4B5B6FA5
:100EF80013F0020F34D100F025FE401B0228F5D96B
:100F0800032031E1484A136823F0F803216943EAD2
:100F1800C1031360DDE7454B00221A6000F012FEA2
:100F28000546414B1B6813F0020FD2D000F00AFEB1
:100F3800401B0228F5D9032016E13C4B0022C3F8D8
:100F4800802E00F0FFFD0546374B5B6F13F0020F54
:100F580006D000F0F7FD401B0228F5D9032003E175
:100F6800236813F0040F77D02F4B1B6C13F0805FAE
:100F780033D1002301932C4B1A6C42F080521A642F
:100F88001B6C03F080530193019B0125284B1B68C0
:100F980013F4807F23D0A368012B34D0052B38D0DD
:100FA800214B1A6F22F001021A671A6F22F004020D
:100FB8001A67A368002B3DD000F0C4FD06461A4B03
:100FC8001B6F13F0020F46D100F0BCFD801B41F2ED
:100FD80088339842F3D90320C6E00025D6E7144A9F
:100FE800136843F48073136000F0ACFD0646104BA1
:100FF8001B6813F4807FCED100F0A4FD801B02286B
:10100800F5D90320B0E0084A136F43F001031367D2
:10101800CFE7054B1A6F42F004021A671A6F42F0C5
:1010280001021A67C5E700BF0038024000004742C6
:101038000070004000F086FD0646524B1B6F13F00F
:10104800020F08D000F07EFD801B41F288339842E1
:10105800F3D9032088E0EDB9A369002B00F0838061
:10106800484A926802F00C02082A51D0022B17D085
:10107800454B00221A6600F065FD0446414B1B688B
:1010880013F0007F42D000F05DFD001B0228F5D967
:10109800032069E03B4A136C23F080531364DBE7B9
:1010A800394B00221A6600F04DFD0546354B1B688A
:1010B80013F0007F06D000F045FD401B0228F5D94B
:1010C800032051E0E369226A1343626A43EA821308
:1010D800A26A5208013A43EA0243E26A43EA026317
:1010E800284A5360284B01221A6600F02BFD04465B
:1010F800244B1B6813F0007F06D100F023FD001B72
:101108000228F5D903202FE000202DE000202BE055
:10111800012B2BD01B4B5B6803F48001E2699142E1
:1011280026D103F03F02216A8A4223D1616A47F639
:10113800C0721A40B2EB811F1ED103F44031A26A7B
:101148005208013AB1EB024F18D103F07063E26A1A
:10115800B3EB026F14D1002006E001207047012094
:1011680002E0012000E0002002B070BD0120FBE792
:101178000120F9E70120F7E70120F5E70120F3E76F
:101188000120F1E7003802400000474208B5254B2E
:101198009B6803F00C03042B3FD0082B3FD1214B55
:1011A8005A6802F03F025B6813F4800F12D01D4B9F
:1011B8005968C1F388111C480023A1FB0001FEF700
:1011C800DFFF184B5B68C3F3014301335B00B0FBDF
:1011D800F3F025E0134B5968C1F3881C4FEA4C1112
:1011E800B1EB0C006EEB0E0E4FEA8E1343EA9063E0
:1011F8008101091A63EB0E03DB0043EA5173C9004E
:1012080011EB0C0C43F10003990200234FEA8C20E8
:1012180041EA9C51FEF7B4FFD3E7034800E00348D6
:1012280008BD00BF0038024040787D010024F4006A
:10123800002800F09B8070B50D4604464F4B1B6894
:1012480003F007038B4208D2CBB24C4A13701368E1
:1012580003F007038B4240F08B80236813F0020FE2
:1012680017D013F0040F04D0454A936843F4E053B1
:101278009360236813F0080F04D0414A936843F43D
:10128800604393603E4A936823F0F003A1680B43E0
:101298009360236813F0010F32D06368012B21D0CB
:1012A8009A1E012A25D9364A126812F0020F61D017
:1012B80033498A6822F0030213438B6000F042FC32
:1012C80006462F4B9B6803F00C036268B3EB820F52
:1012D80016D000F037FC801B41F288339842F0D9D1
:1012E800032042E0264A126812F4003FE0D10120B0
:1012F8003BE0234A126812F0007FD9D1012034E084
:101308001E4B1B6803F00703AB4207D9EAB21B4B1D
:101318001A701B6803F00703AB422DD1236813F042
:10132800040F06D0164A936823F4E053E1680B4390
:101338009360236813F0080F07D0114A936823F4C9
:101348006043216943EAC1039360FFF71FFF0C4B19
:101358009B68C3F303130B4AD35CD8400A4B18604D
:101368000A4B186800F0A2FB002070BD01207047EE
:101378000120FAE70120F8E70120F6E7003C0240E7
:1013880000380240381C00082800002024000020F3
:1013980000230F2B00F2E48070B582B060E085680E
:1013A8005E000324B44025EA0405CC68B4402C430D
:1013B8008460456825EA02054C68C4F300129A4027
:1013C8002A4342605AE0DC08083450F8246003F0ED
:1013D800070295000F22AA4026EA020E0A69AA40CF
:1013E80042EA0E0240F824205CE0072200E00022D6
:1013F80002FA0EF22A4302345A4D45F824205A4A7A
:1014080094686FEA0C0224EA0C054E6816F4801FF3
:1014180001D04CEA0405544CA560E46802EA0405CE
:101428004E6816F4001F01D04CEA04054E4CE560E6
:10143800646802EA04054E6816F4003F01D04CEADD
:101448000405494C6560246822404D6815F4803FC6
:1014580001D04CEA0402444C226001330F2B7DD8A2
:1014680001229A400C6804EA020C32EA0404F4D11E
:101478004C6804F00304013C012C90D94A6802F03E
:101488000302032A09D0C4685D000322AA4024EAA3
:1014980002048A68AA402243C2604A6802F0030232
:1014A800022A90D004684FEA430E032202FA0EF291
:1014B80024EA02044A6802F0030202FA0EF2224306
:1014C80002604A6812F4403FC7D000220192274ABE
:1014D800546C44F480445464526C02F48042019287
:1014E800019A9C08A51C1F4A52F8255003F00302D4
:1014F8004FEA820E0F2202FA0EF225EA02051C4A72
:1015080090423FF474AF02F5806290421AD002F51F
:101518008062904218D002F58062904216D002F59F
:101528008062904214D002F58062904212D002F597
:101538008062904210D002F5806290423FF455AF2D
:10154800082255E7012253E7022251E703224FE719
:1015580004224DE705224BE7062249E702B070BD99
:10156800704700BF00380140003C0140003802408D
:10157800000002400AB18161704709048161704727
:1015880008B5054B5B69034200D108BD024B5861A1
:10159800FEF7AAFFF9E700BF003C014030B4056838
:1015A8002C6824F480242C60046863608368402BD2
:1015B80005D0036899600368DA6030BC7047036837
:1015C8009A600368D960F8E710B40368D9B2103993
:1015D8000C4AA2FB014212090B4CA25CC2655F29AE
:1015E80009D923F47F7323F0030304338365806DE3
:1015F8005DF8044B704723F47F7323F0030383657E
:10160800F5E700BFABAAAAAA301C0008836A826962
:1016180092B9012B0AD0022B02D00BB100207047DF
:10162800C36A13F0807F28D100207047C36AB3F1E2
:10163800C07F24D000207047B2F5005F09D0022B8C
:1016480025D9032B25D1C36A13F0807F23D100202D
:101658007047032B03D8DFE803F01404140A0020B2
:101668007047C36A13F0807F0DD100207047C36AAA
:10167800B3F1C07F09D000207047012070470120D6
:1016880070470120704701207047012070470120F2
:1016980070470020704701207047000070B504466D
:1016A80000F050FA002C5BD00546022384F8353050
:1016B800002384F834302268136823F00103136090
:1016C80023681A6812F0010F0AD000F03BFA431B96
:1016D800052BF5D920236365032084F8350070BDF8
:1016E8001A68204810406168A2680A43E1680A4302
:1016F80021690A4361690A43A1690A43E1690A4306
:10170800216A0A430243616A04291ED01A602668C6
:10171800756925F00705636A1D43042B07D1A36A81
:101728001D43E36A1BB12046FFF770FF90B975614E
:101738002046FFF749FFE26D3F2393408360002076
:101748006065012384F83530C9E7E16A206B0143FD
:101758000A43DBE740236365012084F83500BEE7D0
:101768000120BCE73F8010F038B50446856D90F83D
:10177800340001282BD0012084F8340094F8350077
:10178800C0B2012804D0002384F83430022038BDC8
:10179800022084F83500002060652046FFF7FEFE31
:1017A800E26D3F239340AB602268136843F0160351
:1017B8001360236C23B12268136843F00803136095
:1017C8002268136843F0010313600020DFE702205A
:1017D800DDE790F83530DBB2022B03D08023436578
:1017E80001207047052380F835300268136823F01C
:1017F8000103136000207047F0B583B0044600234E
:101808000193724B1D68724BA3FB0535AD0A876DBA
:101818003E68C26D08239340334210D003681A68AB
:1018280012F0040F0BD01A6822F004021A60C26D7D
:1018380008239340BB60436D43F001034365E26DA9
:1018480001239340334209D02268526912F0800F75
:1018580004D0BB60636D43F002036365E26D04234B
:101868009340334209D02268126812F0020F04D064
:10187800BB60636D43F004036365E26D102393401E
:10188800334224D02268126812F0080F1FD0BB60C0
:1018980023681A6812F4802F0DD01B6813F4002FE8
:1018A80004D1236C9BB12046984710E0A36C73B118
:1018B800204698470BE01A6812F4807F03D11A6813
:1018C80022F008021A60236C0BB120469847E26D9B
:1018D80020239340334255D02268126812F0100F2B
:1018E80050D0BB6094F83530DBB2052B0ED023689E
:1018F8001A6812F4802F33D01B6813F4002F2AD1F2
:10190800636C002B3ED0204698473BE02268136862
:1019180023F0160313602268536923F08003536190
:10192800236CA3B12268136823F008031360E26DE7
:101938003F239340BB60012384F83530002384F8AB
:101948003430236D002B3FD0204698473CE0A36CF1
:10195800002BE7D1EBE7E36BA3B12046984711E0F2
:101968001A6812F4807F09D11A6822F010021A60EE
:10197800012384F83530002384F83430E36B0BB14D
:1019880020469847636DFBB1636D13F0010F17D0C4
:10199800052384F835302268136823F001031360A7
:1019A800019B01330193AB4204D823681B6813F0F1
:1019B800010FF5D1012384F83530002384F8343041
:1019C800E36C0BB12046984703B0F0BD2800002017
:1019D800B5814E1B074AD36823F4E0631B041B0C34
:1019E800000200F4E060034343F0BF6343F40033B4
:1019F800D360704700ED00E000B5194BDB68C3F316
:101A08000223C3F1070CBCF1040F28BF4FF0040CEC
:101A180003F1040EBEF1060F18D9033B4FF0FF3E49
:101A28000EFA0CFC21EA0C0199400EFA03F322EAA3
:101A38000303194300280BDB0901C9B200F1604018
:101A480000F5614080F800135DF804FB0023E5E72A
:101A580000F00F000901C9B2024B1954F4E700BFA6
:101A680000ED00E014ED00E0002807DB00F01F02A5
:101A7800400901239340024A42F82030704700BFD2
:101A880000E100E00138B0F1807F0BD24FF0E02395
:101A98005861054AF02182F8231000209861072236
:101AA8001A6170470120704700ED00E010B5044648
:101AB8000E4B18784FF47A73B3FBF0F30C4A1068A6
:101AC800B0FBF3F0FFF7DEFF68B90F2C01D9012056
:101AD8000AE0002221464FF0FF30FFF78DFF054B4B
:101AE8001C60002000E0012010BD00BF2000002085
:101AF800280000202400002008B50B4B1A6842F487
:101B080000721A601A6842F480621A601A6842F415
:101B180080721A600320FFF75DFF0F20FFF7C6FFF2
:101B2800FEF792FE002008BD003C0240034A1168FF
:101B3800034B1B780B441360704700BFD80000208C
:101B480020000020014B1868704700BFD800002013
:101B5800034AD2F8883043F47003C2F888307047DB
:101B680000ED00E0DFF834D0FFF7F2FF0C480D4934
:101B78000D4A002302E0D458C4500433C4188C42E0
:101B8800F9D30A4A0A4C002301E013600432A24246
:101B9800FBD300F011F8FEF741FD7047000002206A
:101BA800000000202C000020501C00082C00002001
:101BB800DC000020FEE7000070B50D4D0D4C641BE5
:101BC800A4100026A64209D10B4D0C4C00F020F8B9
:101BD800641BA4100026A64205D170BD55F8043B2D
:101BE80098470136EEE755F8043B98470136F2E787
:101BF80000000000000000000000000000000000DD
:101C080002440346934200D1704703F8011BF9E7E9
:101C1800F8B500BFF8BC08BC9E467047F8B500BFD1
:081C2800F8BC08BC9E467047A1
:101C3000000610160006101600000000000000004C
:081C4000010203040607080974
:081C480070E5FF7F01000000C0
:101C50000080000000C00000006000000070000074
:101C600000300000001000000090000000000000A4
:0C1C700001000000100000000024F4003F
:0400000508001B6D67
:00000001FF
