:020000040800F2
:100000000000022061330008490700084B07000880
:100010004D0700084F0700085107000800000000C6
:10002000000000000000000000000000D12C0008CB
:100030005307000800000000712D00082F28000859
:10004000B1330008B1330008B1330008B133000800
:10005000B1330008B1330008B1330008B1330008F0
:10006000B1330008B1330008B1330008B1330008E0
:10007000B1330008B1330008B1330008B1330008D0
:10008000B1330008B1330008B1330008B1330008C0
:10009000B1330008B1330008B1330008B1330008B0
:1000A000B1330008B1330008B1330008B1330008A0
:1000B000B1330008B1330008B1330008B133000890
:1000C000B1330008B1330008B1330008B133000880
:1000D000B1330008B1330008B1330008B133000870
:1000E000B1330008B1330008B1330008B133000860
:1000F000B1330008B1330008B1330008B133000850
:10010000B1330008B1330008B1330008B13300083F
:10011000B1330008B133000855070008B1330008B7
:10012000B1330008B1330008B1330008B13300081F
:10013000B1330008B1330008B1330008B13300080F
:10014000B1330008B1330008B1330008B1330008FF
:10015000B1330008B1330008B1330008B1330008EF
:10016000B1330008B1330008B1330008B1330008DF
:10017000B1330008B1330008B133000800000000BB
:08018000B1330008B13300089F
:1001900053B94AB9002908BF00281CBF4FF0FF31EE
:1001A0004FF0FF3000F074B9ADF1080C6DE904CEEA
:1001B00000F006F8DDF804E0DDE9022304B0704742
:1001C0002DE9F047089D04468E46002B4DD18A420A
:1001D000944669D9B2FA82F252B101FA02F3C2F13D
:1001E000200120FA01F10CFA02FC41EA030E9440CE
:1001F0004FEA1C48210CBEFBF8F61FFA8CF708FBEF
:1002000016E341EA034306FB07F199420AD91CEBC6
:10021000030306F1FF3080F01F81994240F21C81F8
:10022000023E63445B1AA4B2B3FBF8F008FB103340
:1002300044EA034400FB07F7A7420AD91CEB040475
:1002400000F1FF3380F00A81A74240F20781644445
:10025000023840EA0640E41B00261DB1D4400023CA
:10026000C5E900433146BDE8F0878B4209D9002D2E
:1002700000F0EF800026C5E9000130463146BDE8B8
:10028000F087B3FA83F6002E4AD18B4202D3824222
:1002900000F2F980841A61EB030301209E46002DD1
:1002A000E0D0C5E9004EDDE702B9FFDEB2FA82F226
:1002B000002A40F09280A1EB0C014FEA1C471FFA84
:1002C0008CFE0126200CB1FBF7F307FB131140EA6B
:1002D00001410EFB03F0884208D91CEB010103F138
:1002E000FF3802D2884200F2CB804346091AA4B2FA
:1002F000B1FBF7F007FB101144EA01440EFB00FECE
:10030000A64508D91CEB040400F1FF3102D2A64532
:1003100000F2BB800846A4EB0E0440EA03409CE7D1
:10032000C6F12007B34022FA07FC4CEA030C20FA7E
:1003300007F401FA06F31C43F9404FEA1C4900FA9E
:1003400006F3B1FBF9F8200C1FFA8CFE09FB18111B
:1003500040EA014108FB0EF0884202FA06F20BD98E
:100360001CEB010108F1FF3A80F08880884240F2DE
:100370008580A8F102086144091AA4B2B1FBF9F022
:1003800009FB101144EA014100FB0EFE8E4508D91D
:100390001CEB010100F1FF346CD28E456AD90238A2
:1003A000614440EA0840A0FB0294A1EB0E01A14287
:1003B000C846A64656D353D05DB1B3EB080261EBF5
:1003C0000E0101FA07F722FA06F3F1401F43C5E9CF
:1003D000007100263146BDE8F087C2F12003D84005
:1003E0000CFA02FC21FA03F3914001434FEA1C4747
:1003F0001FFA8CFEB3FBF7F007FB10360B0C43EA39
:10040000064300FB0EF69E4204FA02F408D91CEBE8
:10041000030300F1FF382FD29E422DD902386344E6
:100420009B1B89B2B3FBF7F607FB163341EA034186
:1004300006FB0EF38B4208D91CEB010106F1FF38D5
:1004400016D28B4214D9023E6144C91A46EA0046CC
:1004500038E72E46284605E70646E3E61846F8E65E
:100460004B45A9D2B9EB020864EB0C0E0138A3E7A7
:100470004646EAE7204694E74046D1E7D0467BE788
:10048000023B614432E7304609E76444023842E700
:10049000704700BF08B50268034B9A4200D008BD00
:1004A00000F02EFEFBE700BF0010004072B6FEE732
:1004B00000B595B03022002108A802F0ADFF00235E
:1004C000039304930593069307930193204A116CB9
:1004D00041F080511164126C02F080520192019A35
:1004E00002931C4B1A6842F480421A601B6803F4A2
:1004F00080430293029B012308934FF480330993B6
:1005000002230E934FF480020F920C22109260226D
:10051000119212930423139308A800F045F998B997
:100520000F23039302230493002305934FF4A05356
:1005300006934FF480530793032103A800F082FB36
:1005400020B915B05DF804FBFFF7B0FFFFF7AEFF71
:10055000003802400070004008B500F0B7FDFFF71A
:10056000A7FF00F007F802F06FF900F0C3F802F0FF
:100570007DF9FEE770B588B00024039404940594D7
:100580000694079400941C4B1A6B42F080021A6385
:100590001A6B02F080020092009A01941A6B42F0EA
:1005A00001021A631A6B02F001020192019A02948D
:1005B0001A6B42F008021A631B6B03F008030293E4
:1005C000029B0E4D22464FF42041284600F017FDB5
:1005D000012603960494059403A9094800F016FC2B
:1005E0004FF42043039304960594069403A92846E8
:1005F00000F00CFC08B070BD00380240000C024056
:100600000000024008B5012002F0C8F9FBE7000035
:1006100010B51DE0164C4FF40041204600F0E8FCF8
:1006200002464FF40041204600F0E9FC114B002245
:100630001A7001F0CDFB104B186001F0C9FB0E4B96
:100640001B68C01AB0F57A7F0DD90B4B00221A60D7
:10065000084B1B78DBB2012BDCD04FF4004104487F
:1006600000F0D3FCE5E701F0B3FB044B1860E4E7CE
:10067000000C02401C000020280000202400002064
:1006800008B50CE001224FF40051154800F0B7FC0A
:10069000144B186802F073F9502002F07FF9012121
:1006A000114800F0A5FC114B18700128EAD1142064
:1006B00002F074F901210C4800F09AFC0B4B187001
:1006C0000128E9D1074B186802F04AF900224FF4DB
:1006D0000051034800F093FC054B01221A70DBE740
:1006E000000C024018000020000002401000002012
:1006F0001C00002008B50B4A00210B4802F0D2F87C
:100700000A4B18600A4A00210A4802F0CBF80A4B4B
:1007100018600A4A00210A4802F0C4F8094B186020
:1007200008BD00BFB0340008050600082000002006
:100730008C340008110600081800002068340008F6
:100740008106000814000020FEE7FEE7FEE7FEE752
:10075000FEE7704708B5024802F0BCFC08BD00BFC8
:100760008849002000B583B0002200920D4B596CDF
:1007700041F480415964596C01F480410091009921
:100780000192196C41F0805119641B6C03F0805385
:100790000193019B0F216FF0010000F051FC03B0A9
:1007A0005DF804FB00380240002800F0E08170B5DD
:1007B00082B00446036813F0010F3BD09F4B9B6847
:1007C00003F00C03042B2CD09C4B9B6803F00C0310
:1007D000082B21D06368B3F5803F4FD0B3F5A02F2D
:1007E00052D0964B1A6822F480321A601A6822F4AA
:1007F00080221A606368002B50D000F08DFC054603
:100800008E4B1B6813F4003F14D100F085FC401B95
:100810006428F5D90320B1E1884B5B6813F4800F9D
:10082000D8D0864B1B6813F4003F03D06368002BBD
:1008300000F09F81236813F0020F54D07F4B9B6818
:1008400013F00C0F3ED07D4B9B6803F00C03082B7C
:1008500033D0E368002B68D0794B01221A6000F096
:100860005BFC0546754B1B6813F0020F54D100F07A
:1008700053FC401B0228F5D903207FE16F4A13681F
:1008800043F480331360B5E76C4B1A6842F480225E
:100890001A601A6842F480321A60ABE700F03CFC40
:1008A0000546664B1B6813F4003FC3D000F034FCD0
:1008B000401B6428F5D9032060E1604B5B6813F4AA
:1008C000800FC6D15D4B1B6813F0020F03D0E368A5
:1008D000012B40F05081594A136823F0F803216935
:1008E00043EAC1031360236813F0080F42D0636921
:1008F0006BB3534B0122C3F8802E00F00DFC05466C
:100900004E4B5B6F13F0020F34D100F005FC401B1F
:100910000228F5D9032031E1484A136823F0F8038F
:10092000216943EAC1031360DDE7454B00221A60E9
:1009300000F0F2FB0546414B1B6813F0020FD2D0CA
:1009400000F0EAFB401B0228F5D9032016E13C4BDE
:100950000022C3F8802E00F0DFFB0546374B5B6FAB
:1009600013F0020F06D000F0D7FB401B0228F5D988
:10097000032003E1236813F0040F77D02F4B1B6C87
:1009800013F0805F33D1002301932C4B1A6C42F09B
:1009900080521A641B6C03F080530193019B012564
:1009A000284B1B6813F4807F23D0A368012B34D01D
:1009B000052B38D0214B1A6F22F001021A671A6FEB
:1009C00022F004021A67A368002B3DD000F0A4FBBC
:1009D00006461A4B1B6F13F0020F46D100F09CFB2A
:1009E000801B41F288339842F3D90320C6E00025EA
:1009F000D6E7144A136843F48073136000F08CFB4D
:100A00000646104B1B6813F4807FCED100F084FBA8
:100A1000801B0228F5D90320B0E0084A136F43F089
:100A200001031367CFE7054B1A6F42F004021A6700
:100A30001A6F42F001021A67C5E700BF0038024092
:100A4000000047420070004000F066FB0646524B33
:100A50001B6F13F0020F08D000F05EFB801B41F209
:100A600088339842F3D9032088E0EDB9A369002BBD
:100A700000F08380484A926802F00C02082A51D0A4
:100A8000022B17D0454B00221A6600F045FB0446A6
:100A9000414B1B6813F0007F42D000F03DFB001B70
:100AA0000228F5D9032069E03B4A136C23F08053F8
:100AB0001364DBE7394B00221A6600F02DFB054674
:100AC000354B1B6813F0007F06D000F025FB401B60
:100AD0000228F5D9032051E0E369226A1343626AD0
:100AE00043EA8213A26A5208013A43EA0243E26AE5
:100AF00043EA0263284A5360284B01221A6600F039
:100B00000BFB0446244B1B6813F0007F06D100F05A
:100B100003FB001B0228F5D903202FE000202DE065
:100B200000202BE0012B2BD01B4B5B6803F48001D2
:100B3000E269914226D103F03F02216A8A4223D121
:100B4000616A47F6C0721A40B2EB811F1ED103F4EE
:100B50004031A26A5208013AB1EB024F18D103F0BA
:100B60007063E26AB3EB026F14D1002006E001204B
:100B70007047012002E0012000E0002002B070BDBB
:100B80000120FBE70120F9E70120F7E70120F5E765
:100B90000120F3E70120F1E700380240000047425E
:100BA00008B5254B9B6803F00C03042B3FD0082BA2
:100BB0003FD1214B5A6802F03F025B6813F4800F6B
:100BC00012D01D4B5968C1F388111C480023A1FBAA
:100BD0000001FFF7DDFA184B5B68C3F301430133F3
:100BE0005B00B0FBF3F025E0134B5968C1F3881CA0
:100BF0004FEA4C11B1EB0C006EEB0E0E4FEA8E1368
:100C000043EA90638101091A63EB0E03DB0043EAB8
:100C10005173C90011EB0C0C43F10003990200233E
:100C20004FEA8C2041EA9C51FFF7B2FAD3E7034820
:100C300000E0034808BD00BF0038024040787D0155
:100C40000024F400002800F09B8070B50D46044697
:100C50004F4B1B6803F007038B4208D2CBB24C4AC0
:100C60001370136803F007038B4240F08B802368F6
:100C700013F0020F17D013F0040F04D0454A936805
:100C800043F4E0539360236813F0080F04D0414A03
:100C9000936843F4604393603E4A936823F0F00303
:100CA000A1680B439360236813F0010F32D063688F
:100CB000012B21D09A1E012A25D9364A126812F03A
:100CC000020F61D033498A6822F0030213438B601C
:100CD00000F022FA06462F4B9B6803F00C03626873
:100CE000B3EB820F16D000F017FA801B41F2883365
:100CF0009842F0D9032042E0264A126812F4003FDD
:100D0000E0D101203BE0234A126812F0007FD9D1E4
:100D1000012034E01E4B1B6803F00703AB4207D9E8
:100D2000EAB21B4B1A701B6803F00703AB422DD1CC
:100D3000236813F0040F06D0164A936823F4E05397
:100D4000E1680B439360236813F0080F07D0114A42
:100D5000936823F46043216943EAC1039360FFF77A
:100D60001FFF0C4B9B68C3F303130B4AD35CD840A3
:100D70000A4B18600A4B186802F010F9002070BD89
:100D8000012070470120FAE70120F8E70120F6E78B
:100D9000003C024000380240D43400080800002023
:100DA00004000020014B1868704700BF08000020B5
:100DB00008B5FFF7F7FF044B9B68C3F38223034A90
:100DC000D35CD84008BD00BF00380240E4340008BE
:100DD0000F2303600B4B9A6802F0030242609A688B
:100DE00002F0F00282609A6802F4E052C2609B68EE
:100DF000DB0803F4E0530361034B1B6803F00703B4
:100E00000B60704700380240003C024000230F2B6B
:100E100000F2E48070B582B060E085685E00032473
:100E2000B44025EA0405CC68B4402C43846045688E
:100E300025EA02054C68C4F300129A402A43426036
:100E40005AE0DC08083450F8246003F007029500EB
:100E50000F22AA4026EA020E0A69AA4042EA0E02BE
:100E600040F824205CE0072200E0002202FA0EF2A3
:100E70002A4302345A4D45F824205A4A94686FEAAE
:100E80000C0224EA0C054E6816F4801F01D04CEACF
:100E90000405544CA560E46802EA04054E6816F4A3
:100EA000001F01D04CEA04054E4CE560646802EA7C
:100EB00004054E6816F4003F01D04CEA0405494C85
:100EC0006560246822404D6815F4803F01D04CEAEB
:100ED0000402444C226001330F2B7DD801229A403A
:100EE0000C6804EA020C32EA0404F4D14C6804F001
:100EF0000304013C012C90D94A6802F00302032A42
:100F000009D0C4685D000322AA4024EA02048A686A
:100F1000AA402243C2604A6802F00302022A90D02B
:100F200004684FEA430E032202FA0EF224EA020496
:100F30004A6802F0030202FA0EF2224302604A6893
:100F400012F4403FC7D000220192274A546C44F467
:100F500080445464526C02F480420192019A9C08CD
:100F6000A51C1F4A52F8255003F003024FEA820ED7
:100F70000F2202FA0EF225EA02051C4A90423FF4C3
:100F800074AF02F5806290421AD002F580629042FE
:100F900018D002F58062904216D002F5806290422D
:100FA00014D002F58062904212D002F58062904225
:100FB00010D002F5806290423FF455AF082255E709
:100FC000012253E7022251E703224FE704224DE7B3
:100FD00005224BE7062249E702B070BD704700BF0B
:100FE00000380140003C014000380240000002404F
:100FF0000369194201D001207047002070470AB1EF
:1010000081617047090481617047436901EA030205
:1010100021EA030141EA024181617047074AD3682E
:1010200023F4E0631B041B0C000200F4E0600343A4
:1010300043F0BF6343F40033D360704700ED00E03A
:1010400000B5194BDB68C3F30223C3F1070CBCF1F5
:10105000040F28BF4FF0040C03F1040EBEF1060F7D
:1010600018D9033B4FF0FF3E0EFA0CFC21EA0C01AD
:1010700099400EFA03F322EA0303194300280BDB1D
:101080000901C9B200F1604000F5614080F8001329
:101090005DF804FB0023E5E700F00F000901C9B289
:1010A000024B1954F4E700BF00ED00E014ED00E03E
:1010B000002807DB00F01F02400901239340024A89
:1010C00042F82030704700BF00E100E008B50B4B4C
:1010D0001A6842F400721A601A6842F480621A6058
:1010E0001A6842F480721A600320FFF797FF0F20FE
:1010F00001F054FFFFF736FB002008BD003C024022
:10110000034A1168034B1B780B441360704700BF00
:101110002C00002000000020014B1868704700BF21
:101120002C000020034AD2F8883043F47003C2F840
:101130008830704700ED00E000F1080343604FF095
:10114000FF328260C36003610023036070470023A5
:101150000361704743684B609A688A605160996088
:101160000861036801330360704730B40D68B5F15E
:10117000FF3F11D000F108031C465B681A68AA42C1
:10118000FAD963684B6099608C606160086103689C
:101190000133036030BC70470469F2E703694168BA
:1011A00082688A60416851605A68824206D0002293
:1011B00002611A68013A1A601868704782685A60BA
:1011C000F5E710B5044601F095FDA26BE36B9A427A
:1011D00004D0002401F0B0FD204610BD0124F9E741
:1011E00010B5044601F086FDA36B23B9012401F07C
:1011F000A3FD204610BD0024F9E770B5044615464E
:10120000866B026C5AB903681BB100200136A663D5
:1012100070BD806801F09AF80023A360F6E76DB90D
:10122000406802F0EBF8226C636813446360A268C4
:10123000934219D3236863602846E7E7C06802F049
:10124000DDF8226C5142E3689B1AE3602268934206
:1012500002D2A3680B44E360022D01D00020D5E741
:1012600026B1013E0020D1E72846CFE70020CDE798
:101270000346026C6AB110B50846D9681144D960BA
:101280009C68A14201D31968D960D96802F0B6F808
:1012900010BD704738B5054601F02CFD95F8454066
:1012A00064B201E0013C64B2002C0ADD6B6A43B118
:1012B00005F1240000F0A0FF0028F3D001F030F881
:1012C000F0E7FF2385F8453001F036FD01F012FD0F
:1012D00095F8444064B201E0013C64B2002C0ADDA0
:1012E0002B6943B105F1100000F086FF0028F3D010
:1012F00001F016F8F0E7FF2385F8443001F01CFDFB
:1013000038BD38B5E0B10D46044601F0F3FC236862
:10131000E26B216C01FB0230A0600020A0636360DF
:10132000013A02FB0133E360FF2384F8443084F880
:101330004530FDB9236963B901F0FEFC012038BDD9
:101340004FF0500383F31188BFF36F8FBFF34F8FBC
:10135000FEE704F1100000F04FFF0028ECD04FF042
:10136000E0234FF08052C3F8042DBFF34F8FBFF33B
:101370006F8FE1E704F11000FFF7DEFE04F12400B7
:10138000FFF7DAFED8E738B51D46049C0B4649B98D
:101390002460E063236401212046FFF7B2FF84F854
:1013A0004C5038BD2260F4E740B94FF0500383F34E
:1013B0001188BFF36F8FBFF34F8FFEE710B584B076
:1013C0001C46844653B192B189B94FF0500383F360
:1013D0001188BFF36F8FBFF34F8FFEE74FF05003BD
:1013E00083F31188BFF36F8FBFF34F8FFEE76AB1AE
:1013F00050230393039B502B13D04FF0500383F3E0
:101400001188BFF36F8FBFF34F8FFEE70029EFD036
:101410004FF0500383F31188BFF36F8FBFF34F8FEB
:10142000FEE7039B012384F8463000949DF81830B2
:101430006046FFF7A8FF204604B010BDF0B585B0A8
:10144000019288B10F461D460446B1B1022D20D14C
:10145000E36B012B1DD04FF0500383F31188BFF3D2
:101460006F8FBFF34F8FFEE74FF0500383F3118868
:10147000BFF36F8FBFF34F8FFEE7036C002BE5D0F8
:101480004FF0500383F31188BFF36F8FBFF34F8F7B
:10149000FEE700F04BFF064658B9019B002B48D0F1
:1014A0004FF0500383F31188BFF36F8FBFF34F8F5B
:1014B000FEE700263DE02A4639462046FFF79DFE1E
:1014C000636A7BB948B14FF0E0234FF08052C3F814
:1014D000042DBFF34F8FBFF36F8F01F02DFC012060
:1014E00005B0F0BD04F1240000F086FE0028F4D021
:1014F0004FF0E0234FF08052C3F8042DBFF34F8F1D
:10150000BFF36F8FE9E701F017FC0020E8E702A8BE
:1015100000F0B8FE012619E0002384F8443021E0F1
:10152000002384F8453023E02046FFF7B3FE00F0A7
:10153000E1FC01F0DFFBA26BE36B9A42BBD3022D0F
:10154000B9D0019B002BDED0002EE0D001F0F4FBDF
:1015500000F036FC01F0CEFB94F8442052B2B2F118
:10156000FF3FD9D094F8452052B2B2F1FF3FD7D017
:1015700001F0E2FB01A902A800F090FED8B92046D4
:10158000FFF71FFE0028CFD0019904F1100000F0F2
:10159000FFFD2046FFF77EFE00F0ACFC0028C8D11E
:1015A0004FF0E0234FF08052C3F8042DBFF34F8F6C
:1015B000BFF36F8FBDE72046FFF76CFE00F09AFC8B
:1015C00000208DE72DE9F84390B10F4616461C46E2
:1015D0000546B1B1022C20D1EB6B012B1DD04FF091
:1015E000500383F31188BFF36F8FBFF34F8FFEE774
:1015F0004FF0500383F31188BFF36F8FBFF34F8F0A
:10160000FEE7036C002BE5D04FF0500383F3118805
:10161000BFF36F8FBFF34F8FFEE701F091FCEFF345
:1016200011894FF0500383F31188BFF36F8FBFF31D
:101630004F8FAA6BEB6B9A4206D3022C04D000208A
:1016400089F31188BDE8F88395F845804FFA88F84A
:10165000AB6B224639462846FFF7CFFDB8F1FF3F76
:1016600006D008F101035BB285F845300120E7E7B9
:101670006B6A0BB90120E3E705F1240000F0BCFD23
:1016800018B126B101203060DAE70120D8E7012047
:10169000D6E7F0B585B0019290B10F460446C1B1CE
:1016A00000F044FE064600BB019B002B5ED04FF0CD
:1016B000500383F31188BFF36F8FBFF34F8FFEE7A3
:1016C0004FF0500383F31188BFF36F8FBFF34F8F39
:1016D000FEE7036C002BE3D04FF0500383F3118837
:1016E000BFF36F8FBFF34F8FFEE700263EE0394612
:1016F0002046FFF7BDFD013DA563236923B901F035
:101700001BFB012005B0F0BD04F1100000F074FDDA
:101710000028F4D04FF0E0234FF08052C3F8042D9E
:10172000BFF34F8FBFF36F8FE9E701F005FB002098
:10173000E8E702A800F0A6FD012621E0002384F8D6
:10174000443029E0002384F845302BE02046FFF7A1
:10175000A1FD00F0CFFB09E02046FFF79BFD00F064
:10176000C9FB2046FFF73CFD00283FD101F0C2FA3B
:10177000A56B002DBBD1019B002BD6D0002ED8D05D
:1017800001F0DAFA00F01CFB01F0B4FA94F84430EE
:101790005BB2B3F1FF3FD1D094F845305BB2B3F107
:1017A000FF3FCFD001F0C8FA01A902A800F076FDF2
:1017B0000028D1D12046FFF713FD0028C6D001999B
:1017C00004F1240000F0E4FC2046FFF763FD00F084
:1017D00091FB0028CAD14FF0E0234FF08052C3F8AC
:1017E000042DBFF34F8FBFF36F8FBFE7002089E752
:1017F0000023072B0CD8074A52F833200AB10133D3
:10180000F7E7044A42F8331002EBC303586070470D
:10181000704700BF3000002070B504460D461646E4
:1018200001F068FA94F844305BB2B3F1FF3F0DD099
:1018300094F845305BB2B3F1FF3F0BD001F07CFA76
:10184000A36B5BB12046FFF725FD70BD002384F834
:101850004430EDE7002384F84530EFE7324629466F
:1018600004F1240000F0ACFCECE7000028B1416971
:101870000C4A91420AD0002070474FF0500383F386
:101880001188BFF36F8FBFF34F8FFEE7836A064A5D
:10189000934202D01BB10020704700207047012006
:1018A000704700BF4005002028050020084B1B683A
:1018B0001B6823B9074B4FF0FF321A607047044B87
:1018C0001B68DB68DB685A68024B1A60704700BF10
:1018D000740000201C0500202DE9F04780460D46CD
:1018E00017469946089EDDF824A00A9C9200A5217F
:1018F000206B01F091FD236B07F18042013A03EB6D
:10190000820727F007076764B5B34FF0000CBCF1FE
:101910000F0F0BD815F80C2004EB0C0383F83420C0
:1019200015F80C3013B10CF1010CF0E7002384F82A
:101930004330372E00D93726E662266500256565D7
:10194000201DFFF704FC04F11800FFF700FC2461E0
:10195000C6F13806A6616462A56584F85C504A4603
:101960004146384601F09EF92060BAF1000F01D0DF
:10197000CAF80040BDE8F087002384F83430D8E787
:1019800038B5002407E004EB840293000E481844A5
:10199000FFF7D2FB0134372CF5D90C4D2846FFF761
:1019A000CBFB0B4C2046FFF7C7FB0A48FFF7C4FBF5
:1019B0000948FFF7C1FB0948FFF7BEFB084B1D6054
:1019C000084B1C6038BD00BF7C000020F0040020E4
:1019D00004050020280500205405002040050020B3
:1019E000740000207800002010B5044601F082F950
:1019F000224A136801331360214B1B685BB1214BF2
:101A00001B686BB91E4B1B68DA6AE36A9A4207D8F7
:101A10001B4B1C6004E01A4B1C601368012B29D07F
:101A2000194A136801331360A364E06A174B1B68FB
:101A3000984201D9154B186000EB8000211D144B12
:101A400003EB8000FFF786FB01F076F90D4B1B6876
:101A50007BB10B4B1B68DA6AE36A9A4209D24FF0FA
:101A6000E0234FF08052C3F8042DBFF34F8FBFF334
:101A70006F8F10BDFFF784FFD2E700BFDC040020AA
:101A8000700000203C050020E8040020EC04002049
:101A90007C00002010B5044690F85D3063B1012B46
:101AA00011D0022B0ED04FF0500383F31188BFF3F7
:101AB0006F8FBFF34F8FFEE7006B01F077F8204682
:101AC00001F074F810BD01F071F8FBE70F4B1B68D3
:101AD000D3B110B501F00EF90D4BDB68DC68201DA9
:101AE000FFF75CFB0B4A1368013B1360074A13685E
:101AF000013B136001F020F92046FFF7CBFF034BB9
:101B00001B68002BE6D110BD704700BFE004002029
:101B100054050020DC04002008B5FFF7D7FF074B71
:101B20001B68012BF9D94FF0E0234FF08052C3F826
:101B3000042DBFF34F8FBFF36F8FEEE77C000020C3
:101B400070B504460D46174B1E68174B18680430D5
:101B5000FFF724FBB4F1FF3F0DD03444124B1B6858
:101B60005C60A64210D9114B18680F4B19680431FC
:101B7000FFF7FBFA70BD002DEFD00B4B1968043155
:101B80000B48FFF7E7FAF5E70A4B1868064B1968A8
:101B90000431FFF7EAFA084B1B68A342EAD9064B67
:101BA0001C60E7E768050020700000207800002036
:101BB00040050020740000201C05002030B587B0CF
:101BC0000B9C7CB10C9DB5B160250495049D602DE6
:101BD0001AD04FF0500383F31188BFF36F8FBFF318
:101BE0004F8FFEE74FF0500383F31188BFF36F8FE1
:101BF000BFF34F8FFEE74FF0500383F31188BFF31D
:101C00006F8FBFF34F8FFEE7049D0C9D2C63022462
:101C100085F85D4000240394029505AC01940A9C6C
:101C20000094FFF759FE0C98FFF7DEFE059807B009
:101C300030BD2DE9F04385B00746884614461E4660
:101C4000900000F035FF00B38146602000F030FFC7
:101C50000546B0B1C0F83090E5B1002385F85D309D
:101C6000039302950D9B01930C9B009333462246F0
:101C700041463846FFF730FE2846FFF7B5FE012003
:101C800005E0484600F092FFE6E74FF0FF3005B070
:101C9000BDE8F0834FF0FF30F9E7000038B568B1D8
:101CA00004461D4B1B68834207D001F023F82046F1
:101CB000FFF7DCFD58B901F03FF838BD4FF0500395
:101CC00083F31188BFF36F8FBFF34F8FFEE7251D9E
:101CD0002846FFF763FAE06A104B1B68984201D967
:101CE0000E4B186000EB800029460D4B03EB800083
:101CF000FFF730FAE26A084B1B68DB6A9A42DAD3D4
:101D00004FF0E0234FF08052C3F8042DBFF34F8F04
:101D1000BFF36F8FCFE700BF70000020EC040020FE
:101D20007C00002010B588B000240594069407AA12
:101D300006A905A800F040FE059B0293069B0193AF
:101D400000942346079A18491848FFF737FF184BA5
:101D5000186040B100F0AEFB012806D0B0F1FF3FA3
:101D600018D008B010BD0020F6E74FF0500383F301
:101D70001188BFF36F8FBFF34F8F0E4B4FF0FF32C1
:101D80001A600D4B01221A600C4B00221A6001F000
:101D90004BF8E6E74FF0500383F31188BFF36F8FE2
:101DA000BFF34F8FFEE700BFEC340008191B00089B
:101DB000180500201C0500203C05002068050020B7
:101DC000024A136801331360704700BFE404002027
:101DD000014B1868704700BF68050020F8B53A4B02
:101DE0001B68002B69D1394B1D6801351D60C5B9D1
:101DF000374B1B681B6843B14FF0500383F31188C6
:101E0000BFF36F8FBFF34F8FFEE7314A1168314B3D
:101E1000186810601960304A136801331360FFF7C7
:101E200045FD2E4B1B68AB423DD900272C4B1B6850
:101E3000DB6A03EB83039A002A4B9B58012B00D9E2
:101E40000127294B1B68002B3CD001273AE00127D2
:101E50001F4B1B681B6843B31D4B1B68DB68DC68AA
:101E600063689D4226D3261D3046FFF797F9A36A83
:101E70001BB104F11800FFF791F9E36A1B4A1268DD
:101E8000934201D9194A136003EB83039A00314648
:101E900014481044FFF75EF9E26A114B1B68DB6AD5
:101EA0009A42D4D2D4E70027D2E70C4B4FF0FF324E
:101EB0001A60BBE7094A1360B8E70D4A136801339B
:101EC000136000273846F8BDE404002068050020B0
:101ED0007400002078000020200500201C05002050
:101EE000700000207C0000206C050020EC04002025
:101EF0002405002038B5354B1B6843B94FF050031B
:101F000083F31188BFF36F8FBFF34F8FFEE700F0AD
:101F1000F1FE2E4B1A68013A1A601B68002B4FD154
:101F20002B4B1B680BB900244BE00024294B1B688A
:101F30001BB3284BDB68DC6804F11800FFF72EF9AF
:101F4000251D2846FFF72AF9E06A234B1B689842B3
:101F500001D9214B186000EB800029461F4B03EB91
:101F60008000FFF7F7F8E26A1D4B1B68DB6A9A42B4
:101F7000DCD31C4B01221A60D8E70CB1FFF796FCAA
:101F8000194B1C6884B9174B1C68D4B14FF0E0237F
:101F90004FF08052C3F8042DBFF34F8FBFF36F8F04
:101FA00001240EE0013C07D0FFF718FF0028F9D00C
:101FB0000C4B01221A60F5E70B4B00221A60E2E796
:101FC000002400F0B9FE204638BD00BFE404002024
:101FD000DC04002028050020EC0400207C00002008
:101FE000700000206C0500202405002010B5A8B169
:101FF0000446104B1B6843B14FF0500383F3118824
:10200000BFF36F8FBFF34F8FFEE7FFF7D9FE0021BD
:102010002046FFF795FDFFF76DFF48B94FF0E0232D
:102020004FF08052C3F8042DBFF34F8FBFF36F8F73
:1020300010BD00BFE40400201F4B1B681BB11F4BE9
:1020400001221A6070471D4B00221A601C4B1B684E
:1020500003EB83018A001B498A585AB90BB1013B33
:10206000F6E74FF0500383F31188BFF36F8FBFF390
:102070004F8FFEE703EB830082000A4450684068FC
:10208000506003EB830C4FEA8C0208321144884203
:102090000BD003EB830291000A4A0A445268D168CC
:1020A000094A1160064A1360704740686246910011
:1020B000044A0A445060ECE7E40400206C05002068
:1020C000EC0400207C0000207000002038B504469D
:1020D00000F010FEE4B1251D2846FFF75FF8A36A63
:1020E0001BB104F11800FFF759F829462348FFF700
:1020F00031F894F85C30DBB2012B0CD000F01CFE00
:102100001F4B1B685BB91F4B1B68A3420ED038BD29
:102110001C4B1C68DFE7002384F85C30EEE700F01E
:10212000E9FDFFF7C3FB00F007FEECE7144B1B686B
:10213000B3B1154B1B6843B14FF0500383F31188C3
:10214000BFF36F8FBFF34F8FFEE74FF0E0234FF0E9
:102150008052C3F8042DBFF34F8FBFF36F8FD6E7C4
:10216000064B1A68094B1B689A4203D1054B0022A3
:102170001A60CCE7FFF760FFC9E700BF4005002009
:102180003C05002070000020E4040020DC04002056
:1021900058B110B50C46094A11681831FEF7E5FF31
:1021A00001212046FFF7CCFC10BD4FF0500383F314
:1021B0001188BFF36F8FBFF34F8FFEE770000020D1
:1021C00038B570B10D4614460A4A11681831FEF749
:1021D000C1FF0CB14FF0FF3521462846FFF7B0FC98
:1021E00038BD4FF0500383F31188BFF36F8FBFF3F7
:1021F0004F8FFEE77000002038B5C368DC6824B359
:1022000004F118052846FEF7C9FF184B1B682BBBC5
:10221000251D2846FEF7C2FFE06A154B1B68984251
:1022200001D9134B186000EB80002946114B03EBDA
:102230008000FEF78FFFE26A0F4B1B68DB6A9A4251
:1022400011D901200D4B186038BD4FF0500383F3B6
:102250001188BFF36F8FBFF34F8FFEE72946084801
:10226000FEF778FFE7E70020EEE700BFE404002078
:10227000EC0400207C000020700000206C05002091
:1022800028050020034B1B680360034B1B68436059
:10229000704700BF2005002068050020F8B5C8B1D0
:1022A0000C460546F9B100F025FD1B4B19686B681B
:1022B000C81A2268B2F1FF3F26D0184E36682F6840
:1022C000B74201D08B4224D9824215D80023236023
:1022D00001241AE04FF0500383F31188BFF36F8F8E
:1022E000BFF34F8FFEE74FF0500383F31188BFF326
:1022F0006F8FBFF34F8FFEE75B1A134423602846AE
:10230000FFF7C0FF002400E0002400F015FD204688
:10231000F8BD0124F9E700BF680500202005002072
:10232000014B01221A6070476C050020054B1B68A9
:1023300033B1054B1B680BB100207047022070477A
:10234000012070473C050020E404002000283BD019
:1023500038B504461E4B1B68834208D04FF050032B
:1023600083F31188BFF36F8FBFF34F8FFEE7436D89
:1023700043B94FF0500383F31188BFF36F8FBFF35E
:102380004F8FFEE7013B4365C16A026D91421DD04C
:102390000BB1002038BD051D2846FEF7FFFE206D5D
:1023A000E062C0F13803A3610A4B1B68984201D96F
:1023B000084B186000EB80002946074B03EB8000B8
:1023C000FEF7C8FE0120E5E7002070470020E1E7A6
:1023D00070000020EC0400207C000020064B1A68EE
:1023E00013682BB90123036023B9D36818687047B9
:1023F0000023F8E7002070477005002008B5416011
:10240000006191420CD8D21A83699A4201D301200B
:1024100008BD011D094B1868FEF7A7FE0020F7E76D
:102420009A4201D2994206D2011D054B1868FEF767
:102430009CFE0020ECE70120EAE700BF74050020C5
:102440007005002030B583B000F054FC114B1B68C0
:102450001BB100F071FC03B030BD0F4D2846FEF7F4
:102460006BFE0E4C2046FEF767FE0D4B1D600D4BBC
:102470001C60002300930C4B0C4A10210A20FEF72D
:1024800093FF044B18600028E3D00949FFF7B0F927
:10249000DFE700BF94060020180600202C0600206D
:1024A00070050020740500204406002078050020F7
:1024B000F434000810B588B0FFF7C4FF124B1B6856
:1024C000CBB100240594069407AA06A905A800F03C
:1024D0007FFA059B0293069B0193022300932346F8
:1024E000079A0A490A48FFF769FB0A4B186010B1BE
:1024F000012008B010BD4FF0500383F31188BFF3E3
:102500006F8FBFF34F8FFEE794060020FC34000866
:102510001928000898060020B8B19C4603461848C0
:10252000006858B300B585B0009101920293052967
:102530001CDCFFF7FBFE022810D000231A46694678
:102540000F480068FEF77AFF15E04FF0500383F361
:102550001188BFF36F8FBFF34F8FFEE70023069AFA
:10256000694607480068FEF769FF04E000236246F9
:102570006946FFF727F805B05DF804FB00207047B7
:102580009406002070B582B01B4B1B681A6862B3BA
:10259000DB681E68DC68251D2846FEF7FFFD236A00
:1025A0002046984794F8283013F0040FECD0A36924
:1025B00033449E4207D26360246129460E4B18685B
:1025C000FEF7D3FDE0E7002100910B46324620469E
:1025D000FFF7A2FF0028D7D14FF0500383F31188F3
:1025E000BFF36F8FBFF34F8FFEE7044A10680249B5
:1025F0000860136002B070BD7005002074050020F3
:1026000038B50546FFF7E4FB0446074B1B688342D9
:1026100005D800232B60044B1C60204638BDFFF713
:10262000B1FF01232B60F6E74006002070B582B0B1
:1026300006460D4617490968C968CC68201DFEF793
:10264000ADFD94F828C01CF0040F08D12CF0010C4B
:1026500084F828C0236A2046984702B070BDA1695B
:1026600033462A4631442046FFF7C8FE0028F1D001
:10267000002100910B4632462046FFF74DFF00280F
:10268000E8D14FF0500383F31188BFF36F8FBFF38E
:102690004F8FFEE77005002070B582B006460C46ED
:1026A000FFF78EFB01A8FFF7ABFF019B33BB05468D
:1026B0000CB9B04219D224B1124A12681268DAB9C0
:1026C00001242246711B104B1868FFF7A5F8FFF78D
:1026D00011FCA8B94FF0E0234FF08052C3F8042D4D
:1026E000BFF34F8FBFF36F8F0AE0FFF703FC29465C
:1026F0003046FFF79BFF03E01C46E2E7FFF7FAFBDB
:1027000002B070BD740500209406002010B588B09A
:1027100002E0049B002B0FDA002204A93D4B18684D
:10272000FEF7B7FF002873D0049B002BF1DA07995E
:102730000698059B9847ECE7069C636913B1201D3A
:10274000FEF72CFD03A8FFF75BFF049B092BE3D8E2
:10275000DFE803F00505053037500505303794F8FC
:10276000283043F0010384F82830059BA169024614
:1027700019442046FFF742FE0028CDD0236A2046A8
:10278000984794F8283013F0040FC5D0A2690021AF
:1027900000910B46059802442046FFF7BDFE002835
:1027A000BAD14FF0500383F31188BFF36F8FBFF39B
:1027B0004F8FFEE794F8283023F0010384F8283087
:1027C000AAE794F8283043F0010384F828300599EB
:1027D000A16131B10346024601442046FFF70EFED7
:1027E0009AE74FF0500383F31188BFF36F8FBFF365
:1027F0004F8FFEE794F8283013F0020F04D023F037
:10280000010384F8283087E7204600F0CFF983E7FA
:1028100008B010BD9406002000B583B001A8FFF7F2
:10282000DDFD0199FFF738FFFFF770FFF6E708B508
:102830004FF0E0231B69FFF779FD012800D108BDA7
:1028400000F0C8FAFBE70000EFF305832BB9064B55
:10285000186828B901221A6070476FF005007047A8
:102860004FF0FF30704700BFFC080020EFF30583F6
:1028700073B90A4B1B68012B0DD110B50024084B0E
:10288000DC77064B02221A60FFF74CFA204610BD97
:102890006FF0050070474FF0FF307047FC080020D4
:1028A00000ED00E0F0B587B000240594EFF3058457
:1028B00074BB68B322B31568936903B918235C1E0F
:1028C000372C49D8546814F0010F47D156696EB1BE
:1028D0004FEA960C94682CB1D7685F2F02D917691C
:1028E00007B1C6B92CB14FF0FF340EE04FF0800CA9
:1028F000F0E7D4688CB9146994B14FF0FF3404E068
:102900001546002418234FF0800C012C0AD0ACB1DE
:10291000059807B0F0BD0124F7E74FF0FF34F4E766
:102920000024F2E7146992680292019400930B4626
:1029300062462946FFF742F90590E9E705AA0192A8
:1029400000930B461FFA8CF22946FFF772F9012813
:10295000DED000230593DBE70020DAE70020D8E78C
:1029600008B5EFF3058323B930B1FFF7AFFB0020C3
:1029700008BD6FF00500FBE76FF00300F8E708B54E
:10298000EFF3058323B930B1FFF788F9002008BDC4
:102990006FF00500FBE76FF00300F8E708B5EFF311
:1029A000058333B908B9002008BDFFF71FFB0020DD
:1029B000FAE76FF00500F7E7034B0360034B0B608A
:1029C00080231360704700BF9C0800209C060020F5
:1029D000034B0360034B0B604FF48073136070472D
:1029E000000D002000090020124A12F0070F1ED02F
:1029F000D11D21F00701C1F5705313440A460E485A
:102A00000260002141601344083B23F007030B4898
:102A1000036059601960991A51601360084B19607E
:102A2000084B1960084B4FF000421A6070474FF492
:102A30007053E4E7640D002078490020600D002009
:102A40006C4900206849002064490020164B1A4652
:102A50001B688342FBD3516802EB010C844509D00B
:102A6000416800EB010C634509D00360904219D026
:102A7000106070474068014451601046F0E710B4A0
:102A80000A4C2468A3420BD05B6819444160136868
:102A90001B680360904200D010605DF8044B7047E3
:102AA0000460F7E7704700BF78490020600D002000
:102AB00070B50546FFF784F9364B1B68A3B1364B5A
:102AC0001B681D424ED135B1083515F0070F02D0F5
:102AD00025F007050835002D46D0304B1B68AB426A
:102AE00051D32F4A146804E0FFF77EFFE7E7224640
:102AF0001C466368AB4202D22368002BF7D1254BFA
:102B00001B68A34241D016680836236813606368C7
:102B10005B1B102B10D9601910F0070F08D04FF075
:102B2000500383F31188BFF36F8FBFF34F8FFEE71E
:102B300043606560FFF78AFF626818490B689B1A5B
:102B40000B60184909688B4201D216490B60124B81
:102B50001B681343636000232360134A1368013327
:102B6000136002E0002600E00026FFF7C3F916F02C
:102B7000070F0CD04FF0500383F31188BFF36F8F12
:102B8000BFF34F8FFEE70026EFE70026EDE7304664
:102B900070BD00BF600D002064490020684900201E
:102BA000784900206C49002070490020002834D06A
:102BB00038B50446A0F1080550F8043C174A1268DD
:102BC000134208D14FF0500383F31188BFF36F8F86
:102BD000BFF34F8FFEE750F8081C41B14FF0500390
:102BE00083F31188BFF36F8FBFF34F8FFEE723EAA4
:102BF000020340F8043CFFF7E3F854F8041C084AC9
:102C000013680B4413602846FFF720FF054A13683A
:102C100001331360FFF76EF938BD70476449002037
:102C2000684900207449002082B0002301930D4BB5
:102C30001B68B3F1FF3F08D04FF0500383F31188B6
:102C4000BFF36F8FBFF34F8FFEE74FF0500383F357
:102C50001188BFF36F8FBFF34F8F019B002BFCD008
:102C600002B070470C00002008480068006880F33C
:102C700008884FF0000080F3148862B661B6BFF395
:102C80004F8FBFF36F8F00DF00BF000008ED00E043
:102C9000DFF80C00016841F470010160704700002A
:102CA00088ED00E04FF0807340F8043C21F0010112
:102CB00040F8081C054B40F80C3C40F8202C6FF005
:102CC000020340F8243C4438704700BF292C000818
:102CD000074B19680868B0E8F04F80F30988BFF324
:102CE0006F8F4FF0000080F311887047AFF30080C2
:102CF000700000204FF0500383F31188BFF36F8FF3
:102D0000BFF34F8F0B4A136801331360012B00D0C0
:102D100070474FF0E023D3F8043D13F0FF0FF7D0D6
:102D20004FF0500383F31188BFF36F8FBFF34F8FC2
:102D3000FEE700BF0C000020094B1B6843B94FF0B1
:102D4000500383F31188BFF36F8FBFF34F8FFEE7FC
:102D5000013B034A13600BB983F31188704700BF2E
:102D60000C00002000000000000000000000000037
:102D7000EFF30980BFF36F8F154B1A681EF0100F29
:102D800008BF20ED108A20E9F04F10602DE90900FE
:102D90004FF0500080F31188BFF34F8FBFF36F8F58
:102DA000FFF74AF94FF0000080F3118809BC196859
:102DB0000868B0E8F04F1EF0100F08BFB0EC108AA2
:102DC00080F30988BFF36F8F704700BFAFF30080B7
:102DD0007000002008B54FF0500383F31188BFF353
:102DE0006F8FBFF34F8FFEF7F9FF28B14FF0E0234D
:102DF0004FF08052C3F8042D002383F3118808BDDF
:102E00004FF0E022002313619361054B1B680549D5
:102E1000A1FB03139B09013B536107231361704717
:102E200008000020D34D62104FF0E023D3F8002DAE
:102E30003D4B9A421CD04FF0E023D3F8002D3B4B82
:102E40009A421ED030B583B0394B1A78D2B2019273
:102E5000FF221A701B78DBB28DF803309DF8033027
:102E600003F05003334A1370334B07221A601BE000
:102E70004FF0500383F31188BFF36F8FBFF34F8F71
:102E8000FEE74FF0500383F31188BFF36F8FBFF35A
:102E90004F8FFEE7284A1368013B13609DF803300B
:102EA0005B00DBB28DF803309DF8033013F0800F28
:102EB000F0D1214B1B68032B08D04FF0500383F354
:102EC0001188BFF36F8FBFF34F8FFEE71B021A4AC3
:102ED000136003F4E0631360019BDBB2144A1370C8
:102EE0004FF0E024D4F8203D43F47003C4F8203DB3
:102EF000D4F8203D43F07043C4F8203DFFF780FF35
:102F000000250E4B1D60FFF7C3FED4F8343F43F09D
:102F10004043C4F8343FFFF7A7FEFFF78DF8FFF7F3
:102F200083FE284603B030BD71C20F4170C20F410D
:102F300000E400E080490020844900200C000020CB
:102F4000EFF305830F2B0FD9114A9B5CDBB2114ABB
:102F500012789A4208D94FF0500383F31188BFF3D7
:102F60006F8FBFF34F8FFEE74FF0E023D3F80C3D98
:102F700003F4E063084A1268934208D94FF0500303
:102F800083F31188BFF36F8FBFF34F8FFEE7704756
:102F9000F0E300E0804900208449002030B589B08A
:102FA000044600230193214B1A6C42F010021A646C
:102FB0001B6C03F010030193019B02A903A8FDF70A
:102FC00007FF069BCBB9FDF7F3FE03461848A0FBAD
:102FD00003239B0C013B1748174A026040F2E7327B
:102FE000C2604360002303618360836100F08AF95B
:102FF000054630B1284609B030BDFDF7D9FE430083
:10300000E4E70C4800F01EF805460028F2D136200F
:10301000FEF74EF80F2C01D90125EBE700222146DF
:103020003620FEF70DF8054B1C60E3E70038024040
:1030300083DE1B438849002000100040040000206C
:103040007047000090F83D30DBB2012B37D10223EE
:1030500080F83D300268D36843F00103D360036811
:10306000194A934220D0B3F1804F1DD0A2F57C4283
:10307000934219D002F58062934215D002F5806226
:10308000934211D002F5784293420DD002F570526E
:10309000934209D0A2F59432934205D01A6842F0C7
:1030A00001021A60002070479A6802F00702062A9F
:1030B00007D01A6842F001021A6000207047012010
:1030C00070470020704700BF000001407047704704
:1030D0007047704770B504460368DE681D6915F0D7
:1030E000020F10D016F0020F0DD06FF002021A611D
:1030F0000123037703689B6913F0030F5ED0FFF78A
:10310000E6FF0023237715F0040F12D016F0040F0A
:103110000FD023686FF004021A610223237723681B
:103120009B6913F4407F4FD02046FFF7D0FF002368
:10313000237715F0080F12D016F0080F0FD0236870
:103140006FF008021A61042323772368DB6913F008
:10315000030F40D02046FFF7BAFF0023237715F076
:10316000100F12D016F0100F0FD023686FF010025E
:103170001A61082323772368DB6913F4407F31D079
:103180002046FFF7A4FF0023237715F0010F02D09C
:1031900016F0010F2DD115F0800F02D016F0800F20
:1031A0002FD115F0400F02D016F0400F31D115F09D
:1031B000200F02D016F0200F33D170BDFFF786FF2D
:1031C0002046FFF785FF9CE72046FFF77FFF20465C
:1031D000FFF77EFFABE72046FFF778FF2046FFF7BB
:1031E00077FFBAE72046FFF771FF2046FFF770FF31
:1031F000C9E723686FF001021A612046FDF74AF91A
:10320000C9E723686FF080021A61204600F0A7F832
:10321000C7E723686FF040021A612046FFF759FFA5
:10322000C5E723686FF020021A61204600F096F887
:10323000C3E700000368324A904212D0B0F1804FD9
:103240000FD0A2F57C4290420BD002F580629042F2
:1032500007D002F58062904203D002F57842904296
:1032600003D123F070034A681343254A90422AD0C1
:10327000B0F1804F27D0A2F57C42904223D002F5D6
:10328000806290421FD002F5806290421BD002F50E
:103290007842904217D002F57052904213D002F556
:1032A000806290420FD002F5806290420BD0A2F56E
:1032B0009832904207D002F58062904203D002F526
:1032C0008062904203D123F44073CA68134323F011
:1032D00080034A6913438A68C2620A688262084AA4
:1032E000904203D002F58062904201D10A690263E4
:1032F000026842F0040202600122426103607047EA
:103300000000014040B310B5044690F83D30F3B1E1
:10331000022384F83D30214651F8040BFFF78AFF61
:10332000012384F8463084F83E3084F83F3084F836
:10333000403084F8413084F8423084F8433084F8D7
:10334000443084F8453084F83D30002010BD80F8CA
:103350003C30FFF775FEDBE7012070477047704790
:10336000DFF834D0FDF7DEFE0C480D490D4A00238E
:1033700002E0D458C4500433C4188C42F9D30A4A2A
:103380000A4C002301E013600432A242FBD300F098
:1033900011F8FDF7E1F8704700000220000000205E
:1033A000100000200C35000810000020D04900203B
:1033B000FEE7000070B50D4D0D4C641BA4100026F7
:1033C000A64209D10B4D0C4C00F02EF8641BA41042
:1033D0000026A64205D170BD55F8043B984701363A
:1033E000EEE755F8043B98470136F2E7000000008D
:1033F0000000000000000000000000000A449142AC
:1034000000F1FF3300D1704710B511F8014B03F8FC
:10341000014F9142F9D110BD02440346934200D1BD
:10342000704703F8011BF9E7F8B500BFF8BC08BC0A
:103430009E467047F8B500BFF8BC08BC9E46704772
:10344000427574746F6E5461736B0000436C6967EE
:103450006E6F74655461736B000000006465666193
:10346000756C745461736B004034000800000000F8
:10347000000000000000000000000000000200004A
:103480000C00000000000000000000004C340008A8
:10349000000000000000000000000000000000002C
:1034A0000002000009000000000000000000000011
:1034B0005C34000800000000000000000000000074
:1034C00000000000000200001800000000000000E2
:1034D00000000000000000000000000001020304E2
:1034E00006070809000000000102030449444C4596
:1034F00000000000546D725100000000546D7220F5
:04350000537663009B
:08350400BCCCFF7F01000000B8
:10350C0001000000100000000024F400AAAAAAAADE
:04000005080033615B
:00000001FF
