:020000040800F2
:100000000000022045260008F5090008F70900084D
:10001000F9090008FB090008FD09000800000000BC
:10002000000000000000000000000000FF090008C0
:10003000010A000800000000030A0008050A000881
:1000400095260008952600089526000895260008A4
:100050009526000895260008952600089526000894
:100060009526000895260008952600089526000884
:100070009526000895260008952600089526000874
:10008000952600080D0A0008952600089526000808
:100090009526000895260008952600089526000854
:1000A0009526000895260008952600089526000844
:1000B0009526000895260008952600089526000834
:1000C0009526000895260008952600089526000824
:1000D00095260008952600081D0A000895260008A8
:1000E0009526000895260008952600089526000804
:1000F00095260008952600089526000895260008F4
:1001000095260008952600089526000895260008E3
:1001100095260008952600089526000895260008D3
:100120002D0A000895260008952600089526000847
:1001300095260008952600089526000895260008B3
:1001400095260008952600089526000895260008A3
:100150009526000895260008952600089526000893
:100160009526000895260008952600089526000883
:100170009526000895260008952600080000000036
:080180009526000895260008F1
:1001900001F0FF01102A2BDB10F0070F08D010F838
:1001A000013B013A8B422DD010F0070F42B3F6D13C
:1001B000F0B441EA012141EA014122F007047FF055
:1001C00000070023F0E80256083C85EA010586EAAC
:1001D000010685FA47F5A3FA87F586FA47F6A5FAE8
:1001E00087F68EB9EED1F0BC01F0FF0102F00702F4
:1001F00032B110F8013B013A83EA010313B1F8D19F
:100200000020704701387047002D06BF354603387F
:10021000073815F0010F07D1013015F4807F02BFB8
:10022000013015F4C03F0130F0BC0138704700BF09
:1002300053B94AB9002908BF00281CBF4FF0FF314D
:100240004FF0FF3000F074B9ADF1080C6DE904CE49
:1002500000F006F8DDF804E0DDE9022304B07047A1
:100260002DE9F047089D04468E46002B4DD18A4269
:10027000944669D9B2FA82F252B101FA02F3C2F19C
:10028000200120FA01F10CFA02FC41EA030E94402D
:100290004FEA1C48210CBEFBF8F61FFA8CF708FB4E
:1002A00016E341EA034306FB07F199420AD91CEB26
:1002B000030306F1FF3080F01F81994240F21C8158
:1002C000023E63445B1AA4B2B3FBF8F008FB1033A0
:1002D00044EA034400FB07F7A7420AD91CEB0404D5
:1002E00000F1FF3380F00A81A74240F207816444A5
:1002F000023840EA0640E41B00261DB1D44000232A
:10030000C5E900433146BDE8F0878B4209D9002D8D
:1003100000F0EF800026C5E9000130463146BDE817
:10032000F087B3FA83F6002E4AD18B4202D3824281
:1003300000F2F980841A61EB030301209E46002D30
:10034000E0D0C5E9004EDDE702B9FFDEB2FA82F285
:10035000002A40F09280A1EB0C014FEA1C471FFAE3
:100360008CFE0126200CB1FBF7F307FB131140EACA
:1003700001410EFB03F0884208D91CEB010103F197
:10038000FF3802D2884200F2CB804346091AA4B259
:10039000B1FBF7F007FB101144EA01440EFB00FE2D
:1003A000A64508D91CEB040400F1FF3102D2A64592
:1003B00000F2BB800846A4EB0E0440EA03409CE731
:1003C000C6F12007B34022FA07FC4CEA030C20FADE
:1003D00007F401FA06F31C43F9404FEA1C4900FAFE
:1003E00006F3B1FBF9F8200C1FFA8CFE09FB18117B
:1003F00040EA014108FB0EF0884202FA06F20BD9EE
:100400001CEB010108F1FF3A80F08880884240F23D
:100410008580A8F102086144091AA4B2B1FBF9F081
:1004200009FB101144EA014100FB0EFE8E4508D97C
:100430001CEB010100F1FF346CD28E456AD9023801
:10044000614440EA0840A0FB0294A1EB0E01A142E6
:10045000C846A64656D353D05DB1B3EB080261EB54
:100460000E0101FA07F722FA06F3F1401F43C5E92E
:10047000007100263146BDE8F087C2F12003D84064
:100480000CFA02FC21FA03F3914001434FEA1C47A6
:100490001FFA8CFEB3FBF7F007FB10360B0C43EA98
:1004A000064300FB0EF69E4204FA02F408D91CEB48
:1004B000030300F1FF382FD29E422DD90238634446
:1004C0009B1B89B2B3FBF7F607FB163341EA0341E6
:1004D00006FB0EF38B4208D91CEB010106F1FF3835
:1004E00016D28B4214D9023E6144C91A46EA00462C
:1004F00038E72E46284605E70646E3E61846F8E6BE
:100500004B45A9D2B9EB020864EB0C0E0138A3E706
:100510004646EAE7204694E74046D1E7D0467BE7E7
:10052000023B614432E7304609E76444023842E75F
:10053000704700BF08B500220121262001F016FCFB
:10054000262001F04BFC00221146112001F00EFC88
:10055000112001F043FC08BD08B54FF48051034859
:1005600001F082F9024B01221A7008BD000C024012
:100570007400002010B504464FF40051034801F008
:1005800073F9204600F000FC10BD00BF000C0240D3
:1005900072B6FEE700B595B03022002108A802F03F
:1005A0009FF8002303930493059306930793019305
:1005B0001F4A116C41F080511164126C02F080529C
:1005C0000192019A02931B4B1A6842F480421A600E
:1005D0001B6803F480430293029B012308934FF4AA
:1005E0008033099302230E934FF480020F920F225F
:1005F00010924822119212930423139308A800F03A
:1006000017FD88B90F230393022304930023059356
:100610004FF4805206920793012103A800F056FF81
:1006200020B915B05DF804FBFFF7B2FFFFF7B0FF8C
:10063000003802400070004038B501F017FCFFF7A9
:10064000A9FF00F051F800F03FF900F09FF800F02A
:100650005FF9FFF76FFF14221C491D4801F06CFD84
:1006600002221C491C4800F0CBFA01F025FC05468B
:1006700000241BE002221749174800F0C1FA01F0DC
:100680001BFC054618E02346144A14210F4802F0CB
:100690002FF80134124B00221A704FF440411148D8
:1006A00001F0E2F84FF47A7001F00CFC01F004FC68
:1006B000431BB3F5FA7FDDD2094B1B78DBB2012B6C
:1006C000EBD1FE2CDFDD0024DDE700BF7800002049
:1006D00094010020700000208C00002028300008C9
:1006E00074000020000C024070B58AB0002405940C
:1006F00006940794089409940194214B1A6B42F0D4
:1007000080021A631A6B02F080020192019A02942D
:100710001A6B42F004021A631A6B02F0040202928E
:10072000029A03941A6B42F001021A631A6B02F0E8
:1007300001020392039A04941A6B42F008021A63AE
:100740001B6B03F008030493049B0E4D22464FF4E9
:100750007041284601F082F8012605960694079418
:1007600005A9094800F088FF4FF4704305930696E9
:100770000794089405A9284600F07EFF0AB070BDD2
:1007800000380240000C02400000024000B585B075
:10079000002300930193029303931D481D4A0260B6
:1007A0004FF4403242604FF0807282600122026159
:1007B000027680F82030C36217498162C360022349
:1007C000C36180F83020426100F0EEF9B0B90C232B
:1007D0000093012301930023029369460C4800F023
:1007E0005BFB70B90D23009302230193694608480F
:1007F00000F052FB40B905B05DF804FBFFF7C8FEFE
:10080000E5E7FFF7C5FEEDE7FFF7C2FEF3E700BF40
:100810008C000020002001400100000F30B589B09D
:10082000002303930493059306930793026803F14F
:10083000804303F590339A4201D009B030BD04469D
:100840000025019503F58C335A6C42F480725A648A
:100850005A6C02F480720192019A02951A6B42F06E
:1008600004021A631B6B03F004030293029B0C2324
:1008700003930323049303A9104800F0FDFE1048DE
:10088000104B036045608560C5604FF48063036171
:100890004FF4006343614FF4005383614FF480735E
:1008A000C3610562456201F069F818B9044BA3639E
:1008B0009C63C2E7FFF76CFEF8E700BF0008024048
:1008C000D40000201064024000B583B000210091E4
:1008D0000E4B1A6B42F400121A631A6B02F40012E8
:1008E0000092009A01911A6B42F480021A631B6B0A
:1008F00003F480030193019B0A46382001F036FA85
:10090000382001F06BFA03B05DF804FB00380240B8
:1009100008B50A480A4B03604FF4E13343600023F3
:100920008360C36003610C2242618361C36101F093
:10093000D3FB00B908BDFFF72BFEFBE794010020B5
:100940000044004030B589B000230393049305931D
:10095000069307930268234B9A4201D009B030BD39
:1009600004460025019503F5FA331A6C42F400326F
:100970001A641A6C02F400320192019A02951A6B01
:1009800042F001021A631B6B03F001030293029B06
:100990000C23039302230493032306930723079353
:1009A00003A9114800F068FE1048114B03604FF096
:1009B0000063436040238360C5604FF4806303613C
:1009C000456185614FF48073C3610562456200F043
:1009D000D5FF18B9054BA3639C63BFE7FFF7D8FDAC
:1009E000F8E700BF0044004000000240340100204E
:1009F000A0600240FEE7FEE7FEE7FEE7FEE7704785
:100A00007047704708B501F04BFA08BD08B50248B9
:100A100001F0ACF808BD00BF3401002008B5024861
:100A200001F0B4FC08BD00BF9401002008B50248E5
:100A300001F09CF808BD00BFD400002082B0002166
:100A400000910B4B5A6C42F480425A645A6C02F487
:100A500080420092009A01911A6C42F080521A640E
:100A60001B6C03F080530193019B02B0704700BFE1
:100A7000003802404A4B5A6822F440325A605A68A1
:100A800041680A435A600268536823F480735360D4
:100A900002685368016943EA01235360026853689E
:100AA00023F0407353600268536881680B435360BE
:100AB0000268936823F40063936002689368C168D6
:100AC0000B439360826A374B9A4257D0026893680F
:100AD00023F07063936002689368816A0B439360AC
:100AE0000268936823F04053936002689368C16A78
:100AF0000B4393600268936823F0020393600268DB
:100B00009368017E43EA4103936090F82030002B04
:100B10003FD00268536843F400635360026853682F
:100B200023F46043536001684B68426A013A43EA28
:100B300042334B600268D36A23F47003D3620168C6
:100B4000CB6AC269013A43EA0253CB6202689368F6
:100B500023F4007393600268936890F8301043EABE
:100B6000412393600268936823F480639360026872
:100B70009368416943EA81239360704702689368F0
:100B800023F0706393600268936823F0405393608E
:100B9000B0E70268536823F400635360CAE700BFFC
:100BA000002301400100000F38B310B50446036C68
:100BB00043B1236C13F0100F0BD00120002384F8F5
:100BC0003C3010BDFFF72AFE0023636484F83C30FC
:100BD000EFE7236C23F4885323F0020343F002036E
:100BE00023642046FFF746FF00206064236C23F057
:100BF000030343F001032364E0E701207047000092
:100C000010B582B013460022019290F83C20012AD0
:100C100000F0A7800446012280F83C20026890681A
:100C200010F0010F13D1906840F0010090604E4A1F
:100C300010684E4AA2FB0020800C00EB400001909F
:100C400002E001980138019001980028F9D122684A
:100C5000906810F4807F03D0906820F480709060DA
:100C60002268906810F0010F70D0206C20F4E060D2
:100C700020F0010040F480702064526812F4806F0C
:100C800005D0226C22F4405242F480522264226C3D
:100C900012F4805F3BD0626C22F006026264002294
:100CA00084F83C20A26B3248D063A26B31481064B8
:100CB000A26B3148D06422686FF022001060206877
:100CC000426842F0806242602068826842F480722A
:100CD000826020680A4600F14C01A06B00F0B4FE6F
:100CE000264B5B6813F01F0F23D12368244A9342DD
:100CF00016D002F5807293420CD0224A93422ED134
:100D000002F58072526812F0100F28D108E000221C
:100D10006264C4E702F50072526812F01F0FECD152
:100D20009A6812F0405F1AD19A6842F080429A6045
:100D300015E02368124A934211D19A6812F0405F7D
:100D40000DD19A6842F080429A6008E0236C43F02B
:100D500010032364636C43F001036364002002B05A
:100D600010BD0220FBE700BF0800002083DE1B430C
:100D7000250E0008030E00080F0E00080023014096
:100D8000002001400022014090F83C30012B35D07A
:100D900010B50446012380F83C300268936823F0C4
:100DA0000103936003689A6812F0010F21D19A68D9
:100DB00022F480729A60806B90F83530DBB2022B9F
:100DC0000ED000202268536823F080635360236CA8
:100DD00023F4885323F0010343F00103236409E063
:100DE00000F067FE0028EDD0236C43F0400323643D
:100DF000E8E70020002384F83C3010BD0220704753
:100E0000704708B5806BFFF7FBFF08BD704708B55A
:100E1000806B40230364436C43F004034364FFF797
:100E2000F5FF08BD08B50346806B026C12F0500F49
:100E300025D1036C43F40073036403689A6812F0CD
:100E4000405F19D1027EBAB9DA6A12F4700F03D08A
:100E50009A6812F4806F0FD15A6822F020025A600B
:100E6000036C23F480730364036C13F4805F03D179
:100E7000036C43F001030364FFF77CFB08BD026CC5
:100E800012F0100F04D1826BD26C18469047F5E730
:100E9000FFF7BCFFF2E7000030B482B000230193FB
:100EA00090F83C30012B00F0BB80012380F83C30EF
:100EB0000B68092B41D90468E2689BB203EB43033A
:100EC0001E3B4FF0070C0CFA03F322EA0303E36026
:100ED0000468E2680B8803EB43031E3B8D6805FA48
:100EE00003F31343E3604B68062B3DD80468626B41
:100EF00003EB8303053B4FF01F0C0CFA03F322EACC
:100F0000030363630468626B4B6803EB8303053B75
:100F1000B1F800C00CFA03F3134363630268414B5A
:100F20009A4251D002683F4B9A4256D0002380F833
:100F30003C30184602B030BC7047046822699BB24E
:100F400003EB43034FF0070C0CFA03F322EA03030D
:100F50002361046822690B8803EB43038D6805FA5B
:100F600003F313432361BEE70C2B16D805682A6BE5
:100F700003EB8303233B1F2404FA03F322EA030356
:100F80002B6305682A6B4B6803EB8303233B0C88B8
:100F900004FA03F313432B63C0E70568EA6A03EB23
:100FA0008303413B1F2404FA03F322EA0303EB62A9
:100FB0000568EA6A4B6803EB8303413B0C8804FA3B
:100FC00003F31343EB62A9E70B68122BAAD1164A6D
:100FD000536843F480035360A4E70B68103B012B74
:100FE000A4D8114A536843F4000353600B68102BD4
:100FF0009CD10E4B1B6802F1467202F52E3202F2B2
:101000008332A2FB03239B0C03EB83035B0001935E
:1010100002E0019B013B0193019B002BF9D185E785
:10102000022087E700200140002301400800002043
:10103000002800F0E08170B582B00446036813F028
:10104000010F3BD09F4B9B6803F00C03042B2CD06B
:101050009C4B9B6803F00C03082B21D06368B3F50D
:10106000803F4FD0B3F5A02F52D0964B1A6822F490
:1010700080321A601A6822F480221A606368002B9A
:1010800050D000F019FF05468E4B1B6813F4003F4B
:1010900014D100F011FF401B6428F5D90320B1E101
:1010A000884B5B6813F4800FD8D0864B1B6813F411
:1010B000003F03D06368002B00F09F81236813F08A
:1010C000020F54D07F4B9B6813F00C0F3ED07D4B2A
:1010D0009B6803F00C03082B33D0E368002B68D027
:1010E000794B01221A6000F0E7FE0546754B1B683C
:1010F00013F0020F54D100F0DFFE401B0228F5D997
:1011000003207FE16F4A136843F480331360B5E72F
:101110006C4B1A6842F480221A601A6842F48032DA
:101120001A60ABE700F0C8FE0546664B1B6813F477
:10113000003FC3D000F0C0FE401B6428F5D9032057
:1011400060E1604B5B6813F4800FC6D15D4B1B6898
:1011500013F0020F03D0E368012B40F05081594A8D
:10116000136823F0F803216943EAC103136023687D
:1011700013F0080F42D063696BB3534B0122C3F8DD
:10118000802E00F099FE05464E4B5B6F13F0020F68
:1011900034D100F091FE401B0228F5D9032031E143
:1011A000484A136823F0F803216943EAC103136036
:1011B000DDE7454B00221A6000F07EFE0546414BFC
:1011C0001B6813F0020FD2D000F076FE401B0228FD
:1011D000F5D9032016E13C4B0022C3F8802E00F025
:1011E0006BFE0546374B5B6F13F0020F06D000F025
:1011F00063FE401B0228F5D9032003E1236813F0A6
:10120000040F77D02F4B1B6C13F0805F33D100237A
:1012100001932C4B1A6C42F080521A641B6C03F041
:1012200080530193019B0125284B1B6813F4807F99
:1012300023D0A368012B34D0052B38D0214B1A6F53
:1012400022F001021A671A6F22F004021A67A368DB
:10125000002B3DD000F030FE06461A4B1B6F13F0FA
:10126000020F46D100F028FE801B41F288339842DD
:10127000F3D90320C6E00025D6E7144A136843F4E7
:101280008073136000F018FE0646104B1B6813F4C1
:10129000807FCED100F010FE801B0228F5D90320FC
:1012A000B0E0084A136F43F001031367CFE7054B23
:1012B0001A6F42F004021A671A6F42F001021A67AD
:1012C000C5E700BF00380240000047420070004000
:1012D00000F0F2FD0646524B1B6F13F0020F08D0D0
:1012E00000F0EAFD801B41F288339842F3D90320D5
:1012F00088E0EDB9A369002B00F08380484A92682A
:1013000002F00C02082A51D0022B17D0454B0022C4
:101310001A6600F0D1FD0446414B1B6813F0007FB4
:1013200042D000F0C9FD001B0228F5D9032069E076
:101330003B4A136C23F080531364DBE7394B0022E4
:101340001A6600F0B9FD0546354B1B6813F0007FA7
:1013500006D000F0B1FD401B0228F5D9032051E072
:10136000E369226A1343626A43EA8213A26A52085B
:10137000013A43EA0243E26A43EA0263284A5360BD
:10138000284B01221A6600F097FD0446244B1B6887
:1013900013F0007F06D100F08FFD001B0228F5D965
:1013A00003202FE000202DE000202BE0012B2BD08C
:1013B0001B4B5B6803F48001E269914226D103F084
:1013C0003F02216A8A4223D1616A47F6C0721A40FD
:1013D000B2EB811F1ED103F44031A26A5208013AD8
:1013E000B1EB024F18D103F07063E26AB3EB026F06
:1013F00014D1002006E001207047012002E0012006
:1014000000E0002002B070BD0120FBE70120F9E7F9
:101410000120F7E70120F5E70120F3E70120F1E7DC
:10142000003802400000474208B5254B9B6803F096
:101430000C03042B3FD0082B3FD1214B5A6802F0FC
:101440003F025B6813F4800F12D01D4B5968C1F343
:1014500088111C480023A1FB0001FEF7E9FE184B90
:101460005B68C3F3014301335B00B0FBF3F025E09D
:10147000134B5968C1F3881C4FEA4C11B1EB0C00B7
:101480006EEB0E0E4FEA8E1343EA90638101091A48
:1014900063EB0E03DB0043EA5173C90011EB0C0C44
:1014A00043F10003990200234FEA8C2041EA9C514A
:1014B000FEF7BEFED3E7034800E0034808BD00BFC7
:1014C0000038024040787D010024F400002800F03C
:1014D0009B8070B50D4604464F4B1B6803F0070315
:1014E0008B4208D2CBB24C4A1370136803F0070347
:1014F0008B4240F08B80236813F0020F17D013F05B
:10150000040F04D0454A936843F4E0539360236882
:1015100013F0080F04D0414A936843F4604393608A
:101520003E4A936823F0F003A1680B43936023685D
:1015300013F0010F32D06368012B21D09A1E012ACB
:1015400025D9364A126812F0020F61D033498A68F1
:1015500022F0030213438B6000F0AEFC06462F4BD3
:101560009B6803F00C036268B3EB820F16D000F0A7
:10157000A3FC801B41F288339842F0D9032042E05B
:10158000264A126812F4003FE0D101203BE0234AD2
:10159000126812F0007FD9D1012034E01E4B1B6885
:1015A00003F00703AB4207D9EAB21B4B1A701B6862
:1015B00003F00703AB422DD1236813F0040F06D0CC
:1015C000164A936823F4E053E1680B439360236861
:1015D00013F0080F07D0114A936823F46043216980
:1015E00043EAC1039360FFF71FFF0C4B9B68C3F3F3
:1015F00003130B4AD35CD8400A4B18600A4B186897
:1016000000F00EFC002070BD012070470120FAE7B9
:101610000120F8E70120F6E7003C024000380240D4
:10162000403000080800002004000020014B18682A
:10163000704700BF0800002008B5FFF7F7FF044B14
:101640009B68C3F38223034AD35CD84008BD00BF24
:10165000003802405030000808B5FFF7E7FF044BA0
:101660009B68C3F34233034AD35CD84008BD00BF34
:10167000003802405030000800230F2B00F2E480B5
:1016800070B582B060E085685E000324B44025EA4E
:101690000405CC68B4402C438460456825EA020503
:1016A0004C68C4F300129A402A4342605AE0DC08B6
:1016B000083450F8246003F0070295000F22AA4076
:1016C00026EA020E0A69AA4042EA0E0240F82420E5
:1016D0005CE0072200E0002202FA0EF22A43023404
:1016E0005A4D45F824205A4A94686FEA0C0224EABD
:1016F0000C054E6816F4801F01D04CEA0405544CCA
:10170000A560E46802EA04054E6816F4001F01D0E3
:101710004CEA04054E4CE560646802EA04054E6834
:1017200016F4003F01D04CEA0405494C656024687A
:1017300022404D6815F4803F01D04CEA0402444C2D
:10174000226001330F2B7DD801229A400C6804EAF5
:10175000020C32EA0404F4D14C6804F00304013CA6
:10176000012C90D94A6802F00302032A09D0C46808
:101770005D000322AA4024EA02048A68AA402243A8
:10178000C2604A6802F00302022A90D004684FEA5D
:10179000430E032202FA0EF224EA02044A6802F01F
:1017A000030202FA0EF2224302604A6812F4403F3A
:1017B000C7D000220192274A546C44F480445464F8
:1017C000526C02F480420192019A9C08A51C1F4AA7
:1017D00052F8255003F003024FEA820E0F2202FA5C
:1017E0000EF225EA02051C4A90423FF474AF02F55E
:1017F000806290421AD002F58062904218D002F5C1
:101800008062904216D002F58062904214D002F5B8
:101810008062904212D002F58062904210D002F5B0
:10182000806290423FF455AF082255E7012253E70A
:10183000022251E703224FE704224DE705224BE73E
:10184000062249E702B070BD704700BF0038014072
:10185000003C014000380240000002400AB18161B2
:101860007047090481617047436901EA030221EA74
:10187000030141EA02418161704730B405682C6878
:1018800024F480242C60046863608368402B05D0B6
:10189000036899600368DA6030BC704703689A6037
:1018A0000368D960F8E7000010B40368D9B21039B2
:1018B0000C4AA2FB014212090B4CA25CC2655F29D3
:1018C00009D923F47F7323F0030304338365806D08
:1018D0005DF8044B704723F47F7323F003038365A3
:1018E000F5E700BFABAAAAAA38300008836A82696C
:1018F00092B9012B0AD0022B02D00BB10020704705
:10190000C36A13F0807F28D100207047C36AB3F107
:10191000C07F24D000207047B2F5005F09D0022BB1
:1019200025D9032B25D1C36A13F0807F23D1002052
:101930007047032B03D8DFE803F01404140A0020D7
:101940007047C36A13F0807F0DD100207047C36ACF
:10195000B3F1C07F09D000207047012070470120FB
:101960007047012070470120704701207047012017
:1019700070470020704701207047000070B5044692
:1019800000F09AFA002C5BD00546022384F835302B
:10199000002384F834302268136823F001031360B5
:1019A00023681A6812F0010F0AD000F085FA431B71
:1019B000052BF5D920236365032084F8350070BD1D
:1019C0001A68204810406168A2680A43E1680A4327
:1019D00021690A4361690A43A1690A43E1690A432B
:1019E000216A0A430243616A04291ED01A602668EC
:1019F000756925F00705636A1D43042B07D1A36AA7
:101A00001D43E36A1BB12046FFF770FF90B9756173
:101A10002046FFF749FFE26D3F239340836000209B
:101A20006065012384F83530C9E7E16A206B014322
:101A30000A43DBE740236365012084F83500BEE7F5
:101A40000120BCE73F8010F038B50446856D90F862
:101A5000340001282BD0012084F8340094F835009C
:101A6000C0B2012804D0002384F83430022038BDED
:101A7000022084F83500002060652046FFF7FDFE57
:101A8000E26D3F239340AB602268136843F0160376
:101A90001360236C23B12268136843F008031360BA
:101AA0002268136843F0010313600020DFE702207F
:101AB000DDE770B50446866D00F0FEF994F8353028
:101AC000DBB2022B06D080236365002384F8343018
:101AD000012070BD05462268136823F016031360C9
:101AE0002268536923F080035361236CE3B12268B9
:101AF000136823F0080313602268136823F00103BE
:101B0000136023681B6813F0010F11D000F0D4F9A3
:101B1000431B052BF5D920236365032084F835008A
:101B2000002384F83430D4E7A36C002BDFD1E3E743
:101B3000E26D3F239340B360012384F835300020E9
:101B400084F83400C5E790F83530DBB2022B03D0BF
:101B50008023436501207047052380F835300268F3
:101B6000136823F00103136000207047F0B583B0C1
:101B7000044600230193724B1D68724BA3FB05358D
:101B8000AD0A876D3E68C26D08239340334210D082
:101B900003681A6812F0040F0BD01A6822F00402CE
:101BA0001A60C26D08239340BB60436D43F001038C
:101BB0004365E26D01239340334209D022685269A4
:101BC00012F0800F04D0BB60636D43F002036365C5
:101BD000E26D04239340334209D02268126812F068
:101BE000020F04D0BB60636D43F004036365E26DD4
:101BF00010239340334224D02268126812F0080F59
:101C00001FD0BB6023681A6812F4802F0DD01B68A8
:101C100013F4002F04D1236C9BB12046984710E0A9
:101C2000A36C73B1204698470BE01A6812F4807FCA
:101C300003D11A6822F008021A60236C0BB1204607
:101C40009847E26D20239340334255D022681268B2
:101C500012F0100F50D0BB6094F83530DBB2052B7A
:101C60000ED023681A6812F4802F33D01B6813F447
:101C7000002F2AD1636C002B3ED0204698473BE0D2
:101C80002268136823F0160313602268536923F057
:101C900080035361236CA3B12268136823F0080307
:101CA0001360E26D3F239340BB60012384F835301D
:101CB000002384F83430236D002B3FD02046984712
:101CC0003CE0A36C002BE7D1EBE7E36BA3B120462C
:101CD000984711E01A6812F4807F09D11A6822F03F
:101CE00010021A60012384F83530002384F8343060
:101CF000E36B0BB120469847636DFBB1636D13F046
:101D0000010F17D0052384F835302268136823F0BB
:101D100001031360019B01330193AB4204D8236894
:101D20001B6813F0010FF5D1012384F8353000232F
:101D300084F83430E36C0BB12046984703B0F0BD13
:101D400008000020B5814E1B074AD36823F4E063E6
:101D50001B041B0C000200F4E060034343F0BF636C
:101D600043F40033D360704700ED00E000B5194B39
:101D7000DB68C3F30223C3F1070CBCF1040F28BFD7
:101D80004FF0040C03F1040EBEF1060F18D9033B0B
:101D90004FF0FF3E0EFA0CFC21EA0C0199400EFABE
:101DA00003F322EA0303194300280BDB0901C9B23C
:101DB00000F1604000F5614080F800135DF804FB1D
:101DC0000023E5E700F00F000901C9B2024B1954E6
:101DD000F4E700BF00ED00E014ED00E0002807DBB1
:101DE00000F01F02400901239340024A42F82030CC
:101DF000704700BF00E100E00138B0F1807F0BD2F6
:101E00004FF0E0235861054AF02182F823100020AA
:101E1000986107221A6170470120704700ED00E0C9
:101E200010B504460E4B18784FF47A73B3FBF0F3F9
:101E30000C4A1068B0FBF3F0FFF7DEFF68B90F2C17
:101E400001D901200AE0002221464FF0FF30FFF7C0
:101E50008DFF054B1C60002000E0012010BD00BF7D
:101E600000000020080000200400002008B50B4BF3
:101E70001A6842F400721A601A6842F480621A60AA
:101E80001A6842F480721A600320FFF75DFF0F208A
:101E9000FFF7C6FFFEF7D2FD002008BD003C024060
:101EA000034A1168034B1B780B441360704700BF53
:101EB000DC01002000000020014B1868704700BFC3
:101EC000DC01002038B50446FFF7F6FF0546B4F103
:101ED000FF3F02D0044B1B781C44FFF7EDFF401B73
:101EE000A042FAD338BD00BF00000020026802F112
:101EF0000C0353E8003F23F0C0030C3242E80031EA
:101F00000029F3D1202380F841307047026802F1A4
:101F10000C0353E8003F23F490730C3242E8003185
:101F20000029F3D1026802F1140353E8003F23F0C3
:101F30000103143242E800310029F3D1036B012B75
:101F400005D0202380F842300023036370470268E5
:101F500002F10C0353E8003F23F010030C3242E877
:101F600000310029F3D1ECE790F84130DBB2212BAE
:101F700001D0022070478368B3F5805F17D0036AF1
:101F80005A1C02621A7803685A60C38C9BB2013BE8
:101F90009BB2C3844BB90268D36823F08003D3603B
:101FA0000268D36843F04003D360002070470369A0
:101FB000002BE4D1036A1B880268C3F30803536053
:101FC000036A02330362E0E738B504460268136926
:101FD00023F44053C1680B431361836802691343C0
:101FE00042691343C2691A430168CB6823F416435C
:101FF00023F00C031343CB600268536923F440734E
:1020000081690B4353610368314A934206D002F55C
:102010008062934202D0FFF70FFB01E0FFF71CFB49
:10202000E369B3F5004F29D00021031849411B187B
:1020300041F10001C90041EA5371DB0018186368DF
:102040004FEA83024FEA937341F10001FEF7F0F883
:10205000204DA5FB00325109642303FB11031B0132
:102060003233A5FB03235B0903F0F00202EB0112FC
:1020700003F00F03216813448B6038BD002302185E
:1020800043EB0301121841F10001C90041EA52710A
:10209000D200101841F10001626892185B41FEF70E
:1020A000C7F80C4DA5FB00325109642303FB110353
:1020B000DB003233A5FB03235B095A0002F4F872FC
:1020C00002EB011203F00703216813448B60D4E78D
:1020D000001001401F85EB5160B310B5044690F825
:1020E000413013B3242384F841302268D36823F4A9
:1020F0000053D3602046FFF767FF2268136923F47B
:10210000904313612268536923F02A0353612268C4
:10211000D36843F40053D36000206064202384F824
:10212000413084F84230606310BD80F84030FEF7E3
:1021300009FCD7E70120704738B5134690F84120D5
:10214000D2B2202A36D10446002935D00BB901205D
:1021500031E001628384C38400224264212084F838
:102160004100A06B154DC563A06B154D0564A06BB8
:10217000144DC564A06B026522680432A06BFFF7A2
:1021800063FC30B110236364202384F841300120C4
:1021900011E023686FF040021A60226802F1140314
:1021A00053E8003F43F08003143242E80031002935
:1021B000F3D100E0022038BD0120FCE7C92100086E
:1021C000312200083F22000808B50346806B1B68D7
:1021D0001B6813F4807F1AD10023C384026802F1C4
:1021E000140353E8003F23F08003143242E8003127
:1021F0000029F3D1026802F10C0353E8003F43F0D9
:1022000040030C3242E800310029F3D108BDFEF74B
:10221000A3F9FBE708B50168CA6822F04002CA606A
:10222000202280F84120FEF797F9002008BD704772
:1022300008B5806BFFF7FBFF08BD7047704710B50E
:10224000846B23685A6994F84130DBB2212B10D09B
:1022500023685A6902F0400294F84230DBB2222B24
:1022600011D0636C43F0100363642046FFF7E6FF70
:1022700010BD02F08002002AEAD00023E384204649
:10228000FFF734FEE4E7002AEBD00023E385204685
:10229000FFF73CFEE5E708B5806B0023C385FFF739
:1022A000CDFF08BD704790F84230DBB2222B69D1D8
:1022B0008368B3F5805F4FD0826AB3F5805F04D046
:1022C000002B56D10369002B53D103685B68137050
:1022D000836A01338362C38D9BB2013B9BB2C3858A
:1022E000002B51D100B583B00268D36823F02003DE
:1022F000D3600268D36823F48073D36002685369A3
:1023000023F001035361202380F84230002343630C
:10231000036B012B33D100230363026802F10C032A
:1023200053E8003F23F010030C3242E8003100294B
:10233000F3D103681A6812F0100F06D00022019240
:102340001A6801925B680193019B818DFFF7AAFFD8
:10235000002003B05DF804FB0269002AACD1826A58
:1023600003685B68C3F308031380836A02338362E4
:10237000B1E703685B6803F07F031370A8E7FFF71A
:102380005CFFE5E7022070470020704730B583B05E
:10239000044602681368D068516913F00F0505D12F
:1023A00013F0200F02D010F0200F19D12DB111F031
:1023B000010119D110F4907F16D1216B01297DD034
:1023C00013F0800F03D010F0800F40F0268113F03F
:1023D000400F03D010F0400F40F0238103B030BD18
:1023E0002046FFF760FFF9E713F0010F06D010F465
:1023F000807F03D0626C42F00102626413F0040F2C
:1024000004D019B1626C42F00202626413F0020F50
:1024100004D019B1626C42F00402626413F0080F38
:1024200007D010F0200F00D119B1626C42F0080201
:102430006264626C002AD1D013F0200F02D010F039
:10244000200F29D123685B6903F04003626C12F00E
:10245000080F00D163B32046FFF758FD23685B697E
:1024600013F0400F20D0226802F1140353E8003F1C
:1024700023F04003143242E800310029F3D1E36B2A
:1024800073B16A4A1A65E06BFFF75DFB0028A5D0BF
:10249000E06B036D9847A1E72046FFF704FFD1E703
:1024A0002046FFF7CBFE99E72046FFF7C7FE95E7EA
:1024B0002046FFF7C3FE002363648FE713F0100F7D
:1024C0003FF47EAF10F0100F3FF47AAF002301937A
:1024D0001368019353680193019B536913F0400FF4
:1024E0005FD0E26B13685B689BB2002B4AD0A18D72
:1024F000994247D9E385D369B3F5807F37D0226805
:1025000002F10C0353E8003F23F480730C3242E8DD
:1025100000310029F3D1226802F1140353E8003F8F
:1025200023F00103143242E800310029F3D122687C
:1025300002F1140353E8003F23F04003143242E851
:1025400000310029F3D1202384F842300023236393
:10255000226802F10C0353E8003F23F010030C3211
:1025600042E800310029F3D1E06BFFF7A2FA022321
:102570006363A18DE38D9BB2C91A89B22046FFF730
:1025800091FE2BE7A18D99427FF428AFD369B3F573
:10259000807F7FF423AF022363632046FFF782FE30
:1025A0001CE7A18DE38D9BB2C91A89B2E38D9BB262
:1025B000002B3FF413AF00293FF410AF226802F163
:1025C0000C0353E8003F23F490730C3242E80030D0
:1025D0000028F3D1226802F1140353E8003F23F0EE
:1025E0000103143242E800300028F3D1202384F89C
:1025F000423000232363226802F10C0353E8003FBA
:1026000023F010030C3242E800300028F3D10223FB
:1026100063632046FFF746FEE0E62046FFF7A4FC92
:10262000DCE62046FFF7F6FDD8E600BF972200085B
:10263000034AD2F8883043F47003C2F888307047F8
:1026400000ED00E0DFF834D0FFF7F2FF0C480D4951
:102650000D4A002302E0D458C4500433C4188C42FD
:10266000F9D30A4A0A4C002301E013600432A24263
:10267000FBD300F011F8FDF7DFFF704700000220E8
:10268000000000207000002094300008700000203E
:10269000F4010020FEE7000070B50D4D0D4C641BE9
:1026A000A4100026A64209D10B4D0C4C00F0B0FC42
:1026B000641BA4100026A64205D170BD55F8043B4A
:1026C00098470136EEE755F8043B98470136F2E7A4
:1026D00000000000000000000000000000000000FA
:1026E00002440346934200D1704703F8011BF9E707
:1026F0000CB430B5174B0C1E1D689DB008DA8B2347
:102700002B604FF0FF301DB0BDE8304002B0704785
:102710004FF40273ADF8143014BF04F1FF332346B5
:10272000049307934FF6FF7302900690ADF81630AE
:10273000209A21AB02A92846019300F069F8431CB6
:10274000BCBF8B232B60002CDDD0029B00221A70B3
:10275000D9E700BF0C0000202DE9F0478E689E42AB
:1027600082460C4690461F4638D88A8912F4906FEC
:1027700032D025680969A5EB0109656905EB4505B6
:1027800005EBD57501334B446D109D4238BF1D4696
:10279000530531D5294600F063FB064650B90C239A
:1027A000CAF80030A38943F04003A3814FF0FF3003
:1027B000BDE8F08721694A4600F0BEFAA38923F4F8
:1027C000906343F08003A381266165614E44A5EBCD
:1027D00009052660A5603E46BE4200D93E462068F7
:1027E0003246414600F0B6FAA3689B1BA3602368FB
:1027F000334423600020DBE72A4600F0A5FB0646B1
:102800000028E1D12169504600F0BEFAC7E7000078
:102810002DE9F04F98468B891B069DB007460D4663
:1028200014460ED50B6963B9402100F019FB2860EE
:10283000286120B90C233B604FF0FF30D1E04023EA
:102840006B610023099320238DF82930CDF80C808B
:102850003023DFF8A8818DF82A304FF00109234694
:102860009A4613F8012B0AB1252AF9D1BAEB040BC9
:102870000BD05B46224629463846FFF76DFF0130F4
:1028800000F0AA80099A5A4409929AF80030002B65
:1028900000F0A28000234FF0FF32CDE905230AF1BA
:1028A000010A049307938DF853301A935446052276
:1028B00014F8011B5148FDF76BFC049AD8B9D006F7
:1028C00044BF20238DF85330110744BF2B238DF8CC
:1028D00053309AF800302A2B15D0079A544600201E
:1028E0004FF00A0C214611F8013B303B092B4ED921
:1028F000B0B1079214E0A0EB080309FA03F3134305
:102900000493A246D2E7039B191D1B680391002B79
:10291000BBBF5B4242F0020207930793B8BF049229
:1029200023782E2B0CD163782A2B35D1039B1A1DCB
:102930001B680392002BB8BF4FF0FF33023405939E
:10294000DFF8C8A0217803225046FDF721FC40B1F2
:102950004023A0EB0A0003FA00F0049B0343013478
:10296000049314F8011B26488DF828100622FDF761
:102970000FFC002838D0234B1BBB039B073323F0ED
:10298000070308330393099B3344099367E70CFB60
:1029900002320C460120A5E70023013405931946B5
:1029A0004FF00A0C204610F8012B303A092A03D9BF
:1029B000002BC5D00591C3E70CFB01210446012380
:1029C000F0E703AB00932A460F4B04A93846AFF358
:1029D0000080421C0646D6D1AB895B063FF52CAF82
:1029E00009981DB0BDE8F08F03AB00932A46064B53
:1029F00004A9384600F07AF8EBE700BF5830000829
:102A00006230000800000000592700085E3000080E
:102A10002DE9F047164699468A680B69DDF8208053
:102A20009342B8BF1346336091F8432007460C46E3
:102A30000AB1013333602368990642BF3368023319
:102A40003360256815F0060506D104F1190AE3681C
:102A500032689B1AAB4226DC94F84320131E22688E
:102A600018BF012392062BD404F14302494638468D
:102A7000C04701301ED02368E568326803F00603C2
:102A8000042B08BFAD1AA36822690CBF25EAE575BF
:102A900000259342C4BF9B1AED1800261A34B54294
:102AA0001AD1002008E00123524649463846C04763
:102AB000013003D14FF0FF30BDE8F0870135C6E7A4
:102AC000E1185A1C302081F84300224494F8451044
:102AD00082F843100233C7E70123224649463846AD
:102AE000C0470130E6D00136D9E700002DE9FF47A5
:102AF0000F7E0C9D782F914680460C469A4601F138
:102B0000430207D8622F0AD8002F00F0D880582F30
:102B100000F0A38004F1420584F842703AE0A7F186
:102B20006303152BF6D801A151F823F0852B00087B
:102B3000992B0008152B0008152B0008152B0008F1
:102B4000152B0008992B0008152B0008152B0008E1
:102B5000152B0008152B0008A52C0008C92B000810
:102B6000872C0008152B0008152B0008C72C00081F
:102B7000152B0008C92B0008152B0008152B000881
:102B80008F2C00082B681A1D1B682A6004F142056F
:102B900084F842300123A3E020682968060601F189
:102BA00004030AD50E682B60002E03DA2D2376422B
:102BB00084F843305E480A2319E00E682B6010F059
:102BC000400F18BF36B2EFE72B682068191D296047
:102BD000010601D51E6802E04606FBD51E88544852
:102BE0006F2F0CBF08230A23002184F84310656867
:102BF000A560002DA2BF216821F0040121600EB95B
:102C0000002D4DD01546B6FBF3F103FB1167C75DF0
:102C100005F8017D3746BB420E46F4D9082B0BD18F
:102C20002368DE0708D5236961689942DEBF302337
:102C300005F8013C05F1FF35521B2261CDF800A0DB
:102C40004B4603AA21464046FFF7E2FE01304CD135
:102C50004FF0FF3004B0BDE8F087354881F845708B
:102C60002968236851F8046B29601D0614D5DF0715
:102C700044BF43F0200323601EB9236823F02003E0
:102C800023601023B0E7236843F0200323607823F8
:102C9000284884F84530E3E7590648BFB6B2E6E76E
:102CA0001546BBE72B6826686169181D2860350644
:102CB0001B6801D5196002E07006FBD5198000235E
:102CC00023611546BAE72B681A1D2A601D686268E1
:102CD00000212846FDF75CFA08B1401B606063687C
:102CE0002361002384F84330A8E723692A46494634
:102CF0004046D0470130ABD023689B0713D4E0682F
:102D0000039B9842B8BF1846A4E7012332464946C0
:102D10004046D04701309BD00135E36803995B1AE8
:102D2000AB42F2DCEBE7002504F11906F5E700BF42
:102D3000693000087A3000080A44914200F1FF33FC
:102D400000D1704710B511F8014B03F8014F9142C3
:102D5000F9D110BD884210B501EB020402D98442BA
:102D6000234607D8431EA14208D011F8012B03F8CF
:102D7000012FF8E7024401468A4200D110BD13F842
:102D8000014D02F8014DF7E737B5002944D051F85D
:102D9000043C0190002BA1F10404B8BFE41800F03A
:102DA00013F91E4A0198136833B96360146003B0C5
:102DB000BDE8304000F00EB9A34208D9256861197A
:102DC0008B4201BF19685B6849192160EDE71A461B
:102DD0005B680BB1A342FAD911685518A5420BD113
:102DE000246821445418A3421160E0D11C685B6838
:102DF000536021441160DAE702D90C230360D6E75F
:102E0000256861198B4204BF19685B68636004BF61
:102E1000491921605460CAE703B030BDE0010020C9
:102E200070B50E4E0C463168054611B900F0BCF87D
:102E300030602146284600F0B7F8431C0AD0C41C75
:102E400024F00304A04207D0211A284600F0ACF871
:102E5000013001D14FF0FF34204670BDE401002065
:102E60002DE9F041CD1C25F0030508350C2D38BFA8
:102E70000C25002D074601DBA94205D90C233B6038
:102E800000263046BDE8F0812E4E00F09DF83368F4
:102E90001C4634BB29463846FFF7C2FF431C044694
:102EA0004DD134682646002E40D12368314638463D
:102EB00004EB030800F078F880453AD12168033527
:102EC0006D1A25F0030508350C2D38BF0C25294651
:102ED0003846FFF7A5FF01302BD023682B44236031
:102EE0000EE02268521B1ED40B2A16D96119A34288
:102EF000256018BF5960636808BF316062514B603C
:102F0000384604F10B0600F065F826F00706231D8D
:102F1000F21AB6D09B1BA350B3E76268A3420CBF62
:102F200032605A60ECE723466468B2E7344676685C
:102F3000B9E70C233B60384600F04CF8A1E7256068
:102F4000DEE700BFE00100202DE9F0418046144695
:102F50000E4621B9BDE8F0411146FFF781BF2AB9FD
:102F6000FFF712FF25462846BDE8F08100F038F84B
:102F70008442074602D8B4EB500F12D8214640468F
:102F8000FFF76EFF05460028EDD0BC4222463146D1
:102F900028BF3A46FFF7D0FE31464046FFF7F4FE21
:102FA000E1E73546DFE7000038B5064D002304466B
:102FB00008462B6000F01EF8431C02D12B6803B1B9
:102FC000236038BDE8010020014800F011B800BFBF
:102FD000EC010020014800F00CB800BFEC0100201B
:102FE00051F8043C181F002BBCBF0B58C018704789
:102FF00070477047044A05491368002B08BF0B4609
:103000001844106018467047F0010020F8010020B5
:10301000F8B500BFF8BC08BC9E467047F8B500BFC5
:08302000F8BC08BC9E46704795
:103028004D792062756666202564200D0A0000002F
:103038000006101600061016000000000000000030
:103048000102030406070809000000000102030446
:10305800232D302B2000686C4C0065666745464779
:1030680000303132333435363738394142434445FC
:10307800460030313233343536373839616263646B
:043088006566000079
:08308C00D4D1FF7F0100000018
:1030940001000000100000000024F40010000020D3
:1030A400000000000000000000000000000000001C
:1030B400000000000000000000000000000000000C
:1030C40000000000000000000000000000000000FC
:1030D40000000000000000000000000000000000EC
:1030E40000000000000000000000000000000000DC
:1030F40000000000000000000000000000000000CC
:040000050800264584
:00000001FF
