:020000040800F2
:100000000000022059220008D10F0008D30F000879
:10001000D50F0008D70F0008D90F00080000000016
:10002000000000000000000000000000DB0F0008DE
:10003000DD0F000800000000DF0F0008E10F0008DE
:10004000A9220008A9220008A9220008A922000864
:10005000A9220008A9220008A9220008A922000854
:10006000A9220008A9220008A9220008A922000844
:10007000A9220008A9220008A9220008A922000834
:10008000A9220008A9220008A9220008A922000824
:10009000A9220008A9220008A9220008A922000814
:1000A000A9220008A9220008A9220008E90F0008D7
:1000B000A9220008A9220008A9220008A9220008F4
:1000C000A9220008A9220008A9220008A9220008E4
:1000D000A9220008A9220008A9220008A9220008D4
:1000E000A9220008A9220008A9220008A9220008C4
:1000F000A9220008A9220008A9220008A9220008B4
:10010000A9220008A9220008A9220008A9220008A3
:10011000A9220008A9220008A9220008A922000893
:10012000A9220008A9220008A9220008A922000883
:10013000A9220008A9220008A9220008A922000873
:10014000A9220008A9220008A9220008A922000863
:10015000A9220008A9220008A9220008A922000853
:10016000A9220008A9220008A9220008A922000843
:10017000A9220008A9220008A92200080000000006
:08018000A9220008A9220008D1
:1001880081F0004102E000BF83F0004330B54FEA40
:1001980041044FEA430594EA050F08BF90EA020FAD
:1001A8001FBF54EA000C55EA020C7FEA645C7FEA40
:1001B800655C00F0E2804FEA5454D4EB5555B8BF63
:1001C8006D420CDD2C4480EA020281EA030382EAD4
:1001D800000083EA010180EA020281EA0303362D66
:1001E80088BF30BD11F0004F4FEA01314FF4801C39
:1001F8004CEA113102D0404261EB410113F0004F4B
:100208004FEA03334CEA133302D0524263EB430301
:1002180094EA050F00F0A780A4F10104D5F1200E9F
:100228000DDB02FA0EFC22FA05F2801841F10001FA
:1002380003FA0EF2801843FA05F359410EE0A5F1CE
:1002480020050EF1200E012A03FA0EFC28BF4CF0FF
:10025800020C43FA05F3C01851EBE37101F00045B5
:1002680007D54FF0000EDCF1000C7EEB00006EEBC2
:100278000101B1F5801F1BD3B1F5001F0CD349084C
:100288005FEA30004FEA3C0C04F101044FEA4452A3
:1002980012F5800F80F09A80BCF1004F08BF5FEA2A
:1002A800500C50F1000041EB045141EA050130BD0A
:1002B8005FEA4C0C404141EB0101013C28BFB1F51C
:1002C800801FE9D291F0000F04BF01460020B1FA67
:1002D80081F308BF2033A3F10B03B3F120020CDA3A
:1002E8000C3208DD02F1140CC2F10C0201FA0CF018
:1002F80021FA02F10CE002F11402D8BFC2F1200C7D
:1003080001FA02F120FA0CFCDCBF41EA0C01904032
:10031800E41AA2BF01EB0451294330BD6FEA04047B
:100328001F3C1CDA0C340EDC04F11404C4F1200266
:1003380020FA04F001FA02F340EA030021FA04F378
:1003480045EA030130BDC4F10C04C4F1200220FACF
:1003580002F001FA04F340EA0300294630BD21FA0D
:1003680004F0294630BD94F0000F83F4801306BFD3
:1003780081F480110134013D4EE77FEA645C18BFC7
:100388007FEA655C29D094EA050F08BF90EA020F5E
:1003980005D054EA000C04BF1946104630BD91EA56
:1003A800030F1EBF0021002030BD5FEA545C05D159
:1003B8004000494128BF41F0004130BD14F5800498
:1003C8003CBF01F5801130BD01F0004545F0FE410C
:1003D80041F470014FF0000030BD7FEA645C1ABF41
:1003E800194610467FEA655C1CBF0B46024650EA78
:1003F800013406BF52EA033591EA030F41F40021A4
:1004080030BD00BF90F0000F04BF0021704730B529
:100418004FF4806404F132044FF000054FF00001FE
:1004280050E700BF90F0000F04BF0021704730B5BF
:100438004FF4806404F1320410F0004548BF404294
:100448004FF000013EE700BF42004FEAE2014FEAE9
:1004580031014FEA02701FBF12F07F4393F07F4FC4
:1004680081F06051704732F07F4208BF704793F0C7
:100478007F4F04BF41F40021704730B54FF46074DA
:1004880001F0004521F000411CE700BF50EA0102DD
:1004980008BF704730B54FF000050AE050EA010286
:1004A80008BF704730B511F0004502D5404261EBF6
:1004B80041014FF4806404F132045FEA915C3FF437
:1004C800D8AE4FF003025FEADC0C18BF03325FEAD4
:1004D800DC0C18BF033202EBDC02C2F1200300FA85
:1004E80003FC20FA02F001FA03FE40EA0E0021FAAA
:1004F80002F11444BDE600BF70B54FF0FF0C4CF498
:10050800E06C1CEA11541DBF1CEA135594EA0C0F49
:1005180095EA0C0F00F0DEF82C4481EA030621EA84
:100528004C5123EA4C5350EA013518BF52EA0335BF
:1005380041F4801143F4801338D0A0FB02CE4FF071
:100548000005E1FB02E506F00042E0FB03E54FF0A1
:100558000006E1FB03569CF0000F18BF4EF0010E99
:10056800A4F1FF04B6F5007F64F5407404D25FEA95
:100578004E0E6D4146EB060642EAC62141EA555148
:100588004FEAC52040EA5E504FEACE2EB4F1FD0C8A
:1005980088BFBCF5E06F1ED8BEF1004F08BF5FEA08
:1005A800500E50F1000041EB045170BD06F00046BA
:1005B80046EA010140EA020081EA0301B4EB5C0467
:1005C800C2BFD4EB0C0541EA045170BD41F480115F
:1005D8004FF0000E013C00F3AB8014F1360FDEBF84
:1005E800002001F0004170BDC4F10004203C35DA60
:1005F8000C341BDC04F11404C4F1200500FA05F3E3
:1006080020FA04F001FA05F240EA020001F0004283
:1006180021F0004110EBD37021FA04F642EB0601F9
:100628005EEA430E08BF20EAD37070BDC4F10C0423
:10063800C4F1200500FA04F320FA05F001FA04F2E7
:1006480040EA020001F0004110EBD37041F10001D3
:100658005EEA430E08BF20EAD37070BDC4F12005DE
:1006680000FA05F24EEA020E20FA04F301FA05F246
:1006780043EA020321FA04F001F0004121FA04F2EE
:1006880020EA020000EBD3705EEA430E08BF20EABE
:10069800D37070BD94F0000F0FD101F000464000F8
:1006A80041EB010111F4801F08BF013CF7D041EA7A
:1006B800060195F0000F18BF704703F0004652007E
:1006C80043EB030313F4801F08BF013DF7D043EA4F
:1006D8000603704794EA0C0F0CEA135518BF95EA05
:1006E8000C0F0CD050EA410618BF52EA4306D1D18C
:1006F80081EA030101F000414FF0000070BD50EAAB
:10070800410606BF1046194652EA430619D094EA34
:100718000C0F02D150EA013613D195EA0C0F05D11E
:1007280052EA03361CBF104619460AD181EA030172
:1007380001F0004141F0FE4141F470014FF000002A
:1007480070BD41F0FE4141F4780170BD70B54FF0C5
:10075800FF0C4CF4E06C1CEA11541DBF1CEA135545
:1007680094EA0C0F95EA0C0F00F0A7F8A4EB050427
:1007780081EA030E52EA03354FEA013100F088801E
:100788004FEA03334FF0805545EA131343EA1263E7
:100798004FEA022245EA111545EA10654FEA00269C
:1007A8000EF000419D4208BF964244F1FD0404F555
:1007B800407402D25B084FEA3202B61A65EB0305B1
:1007C8005B084FEA32024FF480104FF4002CB6EB6E
:1007D800020E75EB030E22BFB61A754640EA0C00EE
:1007E8005B084FEA3202B6EB020E75EB030E22BF2E
:1007F800B61A754640EA5C005B084FEA3202B6EB6F
:10080800020E75EB030E22BFB61A754640EA9C002D
:100818005B084FEA3202B6EB020E75EB030E22BFFD
:10082800B61A754640EADC0055EA060E18D04FEABB
:10083800051545EA16754FEA06164FEAC30343EA5B
:1008480052734FEAC2025FEA1C1CC0D111F4801F28
:100858000BD141EA00014FF000004FF0004CB6E721
:1008680011F4801F04BF01430020B4F1FD0C88BFC0
:10087800BCF5E06F3FF6AFAEB5EB030C04BFB6EBCB
:10088800020C5FEA500C50F1000041EB045170BDBE
:100898000EF0004E4EEA113114EB5C04C2BFD4EBEB
:1008A8000C0541EA045170BD41F480114FF0000E6F
:1008B800013C90E645EA060E8DE60CEA135594EAEB
:1008C8000C0F08BF95EA0C0F3FF43BAF94EA0C0FEE
:1008D8000AD150EA01347FF434AF95EA0C0F7FF463
:1008E80025AF104619462CE795EA0C0F06D152EAB7
:1008F80003353FF4FDAE1046194622E750EA41069B
:1009080018BF52EA43067FF4C5AE50EA41047FF4AB
:100918000DAF52EA43057FF4EBAE12E74FEA41020E
:10092800B2F1E04324BFB3F5001CDCF1FE5C0DD945
:1009380001F0004C4FEAC0024CEA5070B2F1004F8F
:1009480040EB830008BF20F00100704711F0804F92
:1009580021D113F13872BCBF01F00040704741F457
:1009680080114FEA5252C2F11802C2F1200C10FA5B
:100978000CF320FA02F018BF40F001004FEAC1233F
:100988004FEAD32303FA0CFC40EA0C0023FA02F3E3
:100998004FEA4303CCE77FEA625307D150EA0133B9
:1009A8001EBF4FF0FE4040F44000704701F0004089
:1009B80040F0FE4040F40000704700BF53B94AB908
:1009C800002908BF00281CBF4FF0FF314FF0FF304F
:1009D80000F074B9ADF1080C6DE904CE00F006F82A
:1009E800DDF804E0DDE9022304B070472DE9F047A3
:1009F800089D04468E46002B4DD18A42944669D9FB
:100A0800B2FA82F252B101FA02F3C2F1200120FADD
:100A180001F10CFA02FC41EA030E94404FEA1C482B
:100A2800210CBEFBF8F61FFA8CF708FB16E341EA27
:100A3800034306FB07F199420AD91CEB030306F1AD
:100A4800FF3080F01F81994240F21C81023E6344CE
:100A58005B1AA4B2B3FBF8F008FB103344EA034472
:100A680000FB07F7A7420AD91CEB040400F1FF3387
:100A780080F00A81A74240F207816444023840EAC4
:100A88000640E41B00261DB1D4400023C5E90043FD
:100A98003146BDE8F0878B4209D9002D00F0EF8080
:100AA8000026C5E9000130463146BDE8F087B3FAB3
:100AB80083F6002E4AD18B4202D3824200F2F9809B
:100AC800841A61EB030301209E46002DE0D0C5E99E
:100AD800004EDDE702B9FFDEB2FA82F2002A40F0EA
:100AE8009280A1EB0C014FEA1C471FFA8CFE0126ED
:100AF800200CB1FBF7F307FB131140EA01410EFB91
:100B080003F0884208D91CEB010103F1FF3802D237
:100B1800884200F2CB804346091AA4B2B1FBF7F031
:100B280007FB101144EA01440EFB00FEA64508D954
:100B38001CEB040400F1FF3102D2A64500F2BB8091
:100B48000846A4EB0E0440EA03409CE7C6F12007E0
:100B5800B34022FA07FC4CEA030C20FA07F401FA26
:100B680006F31C43F9404FEA1C4900FA06F3B1FBAF
:100B7800F9F8200C1FFA8CFE09FB181140EA014114
:100B880008FB0EF0884202FA06F20BD91CEB0101B1
:100B980008F1FF3A80F08880884240F28580A8F109
:100BA80002086144091AA4B2B1FBF9F009FB10115B
:100BB80044EA014100FB0EFE8E4508D91CEB0101F9
:100BC80000F1FF346CD28E456AD90238614440EA9C
:100BD8000840A0FB0294A1EB0E01A142C846A6461C
:100BE80056D353D05DB1B3EB080261EB0E0101FAA5
:100BF80007F722FA06F3F1401F43C5E90071002602
:100C08003146BDE8F087C2F12003D8400CFA02FC57
:100C180021FA03F3914001434FEA1C471FFA8CFE67
:100C2800B3FBF7F007FB10360B0C43EA064300FB57
:100C38000EF69E4204FA02F408D91CEB030300F1F5
:100C4800FF382FD29E422DD9023863449B1B89B2AC
:100C5800B3FBF7F607FB163341EA034106FB0EF335
:100C68008B4208D91CEB010106F1FF3816D28B42E2
:100C780014D9023E6144C91A46EA004638E72E46AE
:100C8800284605E70646E3E61846F8E64B45A9D2A6
:100C9800B9EB020864EB0C0E0138A3E74646EAE715
:100CA800204694E74046D1E7D0467BE7023B6144C3
:100CB80032E7304609E76444023842E7704700BF2C
:100CC80008B5002211461B2001F00CFA1B2001F088
:100CD80041FA08BD0000000010B54FF480511C48CF
:100CE80001F0E4F900211B4800F01FFA04461A4BF2
:100CF8001B68EBB1184B1B6883421CD8164B18684D
:100D0800201A07EE900AF8EE677A17EE900AFFF7B6
:100D18009BFB0DA3D3E90023FFF7EEFB02460B462E
:100D280000200E49FFF712FDFFF7F8FD0C4B186085
:100D3800094B1C6010BD084B1868201A00F580305C
:100D4800DFE700BFAFF300808DEDB5A0F7C6B03E7A
:100D5800000C024014000020100000200000F03FAA
:100D68000C00002072B6FEE700B595B030220021D5
:100D780008A801F0BBFA0023039304930593069394
:100D880007930193214A116C41F080511164126C50
:100D980002F080520192019A02931D4B1A6842F4A4
:100DA80080421A601B6803F480430293029B01236C
:100DB80008934FF48033099302230E934FF4800273
:100DC8000F92192210924FF4A872119212930423D1
:100DD800139308A800F074FD98B90F230393022316
:100DE8000493002305934FF4A05306934FF48053C4
:100DF8000793052103A800F0B1FF20B915B05DF8ED
:100E080004FBFFF7AFFFFFF7ADFF00BF003802405C
:100E18000070004008B501F0E5F9FFF7A5FF00F004
:100E28000BF800F049F8FFF74BFF0021014800F0EC
:100E380045FCFEE71400002030B589B00024039477
:100E480004940594069407940094194B1A6B42F085
:100E580080021A631A6B02F080020092009A0194D1
:100E68001A6B42F010021A631A6B02F01002019218
:100E7800019A02941A6B42F008021A631B6B03F082
:100E880008030293029B0B4D22464FF470412846FB
:100E980001F006F94FF4704303930123049305947A
:100EA800069403A9284601F009F809B030BD00BF2F
:100EB80000380240000C024000B58BB000230693B6
:100EC800079308930993049305930093019302935E
:100ED80003932048204A02605322426083604FF601
:100EE800FF72C26003614361836100F053FA08BB7B
:100EF8004FF48053069306A9164800F050FBE0B95A
:100F0800144800F073FAD8B900230493059304A990
:100F1800104800F08DFCB0B9002200920123019323
:100F28000292039269460B4800F0CAFA70B90BB0F6
:100F38005DF804FBFFF716FFDAE7FFF713FFDFE7BB
:100F4800FFF710FFE0E7FFF70DFFE5E7FFF70AFF00
:100F5800EDE700BF140000200000014000B589B093
:100F68000023039304930593069307930268144B95
:100F78009A4202D009B05DF804FB0021019103F503
:100F88009C335A6C42F001025A645A6C02F0010216
:100F98000192019A02911A6B42F010021A631B6BBC
:100FA80003F010030293029B4FF400730393022390
:100FB80004930123079303A9024800F07FFFD9E7B0
:100FC8000000014000100240FEE7FEE7FEE7FEE7F2
:100FD800FEE770477047704708B501F01DF908BD76
:100FE80008B5024800F0BEF808BD00BF1400002094
:100FF80082B0002100910B4B5A6C42F480425A6433
:101008005A6C02F480420092009A01911A6C42F0E4
:1010180080521A641B6C03F080530193019B02B049
:10102800704700BF0038024010B4036A046A24F015
:1010380001040462846924F0F00C4CEA021223F0E3
:101048000A030B43826103625DF8044B704730B4B6
:10105800056A046A24F010040462846924F4407C5C
:101068004CEA022C2CF4704C1B039BB243EA0C0391
:1010780025F0A005090101F0A0012943836101625F
:1010880030BC704710B4036A046A24F01004046288
:10109800846924F4704C4CEA023223F0A00343EA3A
:1010A8000113826103625DF8044B704730B4056A2E
:1010B800046A24F480740462C46924F0030C4CEAC2
:1010C800020C2CF0F00C1B01DBB243EA0C0325F4F4
:1010D8002065090201F420612943C361016230BC23
:1010E800704730B4056A046A24F480540462C46901
:1010F80024F4407C4CEA022C2CF4704C1B039BB269
:1011080043EA0C0325F42045090301F4204129434F
:10111800C361016230BC7047836823F070030B43DE
:1011280043F007038360704770470C2914D8DFE841
:1011380001F0071313130A1313130D1313131000DD
:101148000368586B70470368986B70470368D86BDF
:1011580070470368186C70470020704770477047E5
:101168007047704770B504460368DE681D6915F05E
:10117800020F10D016F0020F0DD06FF002021A61A4
:101188000123037703689B6913F0030F5ED0FFF711
:10119800A3FD0023237715F0040F12D016F0040FD7
:1011A8000FD023686FF004021A61022323772368A3
:1011B8009B6913F4407F4FD02046FFF78DFD002335
:1011C800237715F0080F12D016F0080F0FD02368F8
:1011D8006FF008021A61042323772368DB6913F090
:1011E800030F40D02046FFF777FD0023237715F043
:1011F800100F12D016F0100F0FD023686FF01002E6
:101208001A61082323772368DB6913F4407F31D000
:101218002046FFF761FD0023237715F0010F02D068
:1012280016F0010F2DD115F0800F02D016F0800FA7
:101238002FD115F0400F02D016F0400F31D115F024
:10124800200F02D016F0200F33D170BDFFF787FFB3
:101258002046FFF785FF9CE72046FFF780FF2046E2
:10126800FFF77EFFABE72046FFF779FF2046FFF741
:1012780077FFBAE72046FFF772FF2046FFF770FFB7
:10128800C9E723686FF001021A612046FFF766FF7D
:10129800C9E723686FF080021A61204600F00FFB4F
:1012A800C7E723686FF040021A612046FFF759FF2D
:1012B800C5E723686FF020021A61204600F0FEFAA5
:1012C800C3E700000368324A904212D0B0F1804F61
:1012D8000FD0A2F57C4290420BD002F5806290427A
:1012E80007D002F58062904203D002F5784290421E
:1012F80003D123F070034A681343254A90422AD049
:10130800B0F1804F27D0A2F57C42904223D002F55D
:10131800806290421FD002F5806290421BD002F595
:101328007842904217D002F57052904213D002F5DD
:10133800806290420FD002F5806290420BD0A2F5F5
:101348009832904207D002F58062904203D002F5AD
:101358008062904203D123F44073CA68134323F098
:1013680080034A6913438A68C2620A688262084A2B
:10137800904203D002F58062904201D10A6902636B
:10138800026842F004020260012242610360704771
:101398000000014040B310B5044690F83D30F3B169
:1013A800022384F83D30214651F8040BFFF78AFFE9
:1013B800012384F8463084F83E3084F83F3084F8BE
:1013C800403084F8413084F8423084F8433084F85F
:1013D800443084F8453084F83D30002010BD80F852
:1013E8003C30FFF7BBFDDBE70120704740B310B589
:1013F800044690F83D30F3B1022384F83D3021468D
:1014080051F8040BFFF75EFF012384F8463084F897
:101418003E3084F83F3084F8403084F8413084F816
:10142800423084F8433084F8443084F8453084F8F6
:101438003D30002010BD80F83C30FFF775FEDBE73B
:101448000120704770B49446066A046A24F00104C7
:1014580004628469184DA8421CD0B0F1804F19D09D
:10146800164A904216D002F58062904212D002F5D8
:10147800806290420ED002F5784290420AD002F57E
:101488007052904206D0A2F59432904202D044F0B5
:10149800010203E024F0030242EA0C0222F0F00207
:1014A8001B01DBB2134326F00A0201F00A011143C3
:1014B8008361016270BC7047000001400004004075
:1014C80038B590F83C30012B5AD004460D4601231C
:1014D80080F83C3052B1042A1AD0082A2BD00C2AA2
:1014E8003BD00120002384F83C3038BDCB684A68E3
:1014F80009680068FFF7A6FF2268936923F00C03C8
:10150800936122689369A9680B4393610020E9E716
:10151800CB684A6809680068FFF799FD22689369F3
:1015280023F44063936122689369A96843EA01231D
:1015380093610020D6E7CB684A6809680068FFF71E
:10154800B5FD2268D36923F00C03D3612268D369FF
:10155800A9680B43D3610020C4E7CB684A680968CF
:101568000068FFF7BEFD2268D36923F44063D361A6
:101578002268D369A96843EA0123D3610020B1E74F
:101588000220B2E710B4846824F47F4C42EA0322B4
:101598000A4342EA0C0282605DF8044B704790F8F7
:1015A8003C30012B78D010B50446012380F83C303C
:1015B800022380F83D300268936823F47F4323F0C8
:1015C800770393600B68602B4CD029D8402B54D0FC
:1015D8000CD9502B22D1CA6849680068FFF724FD4E
:1015E80050212068FFF798FD002005E0202B0DD042
:1015F80009D9302B0AD00120012384F83D3000237B
:1016080084F83C3010BD0BB1102B05D11946206869
:10161800FFF782FD0020EFE70120EDE70120EBE76F
:10162800B3F5805F34D0B3F5005F0CD1CB684A685E
:1016380089680068FFF7A6FF2268936843F480432F
:1016480093600020D8E7702B24D1CB684A6889685A
:101658000068FFF797FF2268936843F07703936069
:101668000020C9E7CA6849680068FFF70BFD6021D8
:101678002068FFF751FD0020BEE7CA684968006886
:10168800FFF7D2FC40212068FFF746FD0020B3E7B2
:101698000020B1E70120AFE70220704701F01F01E9
:1016A800012303FA01FC036A23EA0C030362036AB9
:1016B80002FA01F10B4303627047000010B50446BB
:1016C8000B4609BB90F83E00C0B26BBB94F84220B1
:1016D800D2B2012840F0A480012A40F0A2809BBB2E
:1016E800022184F83E10002B3ED1022184F84210DA
:1016F8000C2B00F29780DFE803F0479595957695D7
:1017080095957C9595958200042905D0082907D0E0
:1017180090F84100C0B2D8E790F83F00C0B2D4E7D3
:1017280090F84000C0B2D0E7042B05D0082B07D0B2
:1017380094F84520D2B2CCE794F84320D2B2C8E757
:1017480094F84420D2B2C4E7042B05D0082B07D064
:10175800022184F84110C6E7022184F83F10C2E74D
:10176800022184F84010BEE7042B05D0082B07D0CF
:10177800022184F84510BBE7022184F84310B7E73B
:10178800022184F84410B3E72168CA6842F00202D3
:10179800CA60012219462068FFF780FF2368234AA0
:1017A800934232D0B3F1804F2FD0A2F57C429342BE
:1017B8002BD002F58062934227D002F580629342D3
:1017C80023D002F5784293421FD002F5705293421B
:1017D8001BD0A2F59432934217D01A6842F0010246
:1017E8001A6000201DE02168CA6842F00402CA603D
:1017F800CFE72168CA6842F00802CA60C9E72168D1
:10180800CA6842F01002CA60C3E79A6802F0070289
:10181800062A09D01A6842F001021A60002000E086
:10182800012010BD1046FCE70020FAE70000014047
:1018380090F83C30012B3DD010B4012380F83C30A7
:10184800022380F83D3003685A689C6822F0700CC7
:101858000A6842EA0C025A600368174A93421AD08F
:10186800B3F1804F17D0A2F57C42934213D002F512
:10187800806293420FD002F5806293420BD002F54A
:101888007842934207D002F57052934203D0A2F5F2
:101898009432934204D124F080044A6814439C6033
:1018A800012380F83D30002380F83C3018465DF86D
:1018B800044B704702207047000001407047704792
:1018C800002800F0E08170B582B00446036813F088
:1018D800010F3BD09F4B9B6803F00C03042B2CD0CB
:1018E8009C4B9B6803F00C03082B21D06368B3F56D
:1018F800803F4FD0B3F5A02F52D0964B1A6822F4F0
:1019080080321A601A6822F480221A606368002BF9
:1019180050D000F08DFC05468E4B1B6813F4003F39
:1019280014D100F085FC401B6428F5D90320B1E1EF
:10193800884B5B6813F4800FD8D0864B1B6813F470
:10194800003F03D06368002B00F09F81236813F0E9
:10195800020F54D07F4B9B6813F00C0F3ED07D4B89
:101968009B6803F00C03082B33D0E368002B68D086
:10197800794B01221A6000F05BFC0546754B1B6829
:1019880013F0020F54D100F053FC401B0228F5D984
:1019980003207FE16F4A136843F480331360B5E78F
:1019A8006C4B1A6842F480221A601A6842F480323A
:1019B8001A60ABE700F03CFC0546664B1B6813F465
:1019C800003FC3D000F034FC401B6428F5D9032045
:1019D80060E1604B5B6813F4800FC6D15D4B1B68F8
:1019E80013F0020F03D0E368012B40F05081594AED
:1019F800136823F0F803216943EAC10313602368DD
:101A080013F0080F42D063696BB3534B0122C3F83C
:101A1800802E00F00DFC05464E4B5B6F13F0020F55
:101A280034D100F005FC401B0228F5D9032031E130
:101A3800484A136823F0F803216943EAC103136095
:101A4800DDE7454B00221A6000F0F2FB0546414BEA
:101A58001B6813F0020FD2D000F0EAFB401B0228EB
:101A6800F5D9032016E13C4B0022C3F8802E00F084
:101A7800DFFB0546374B5B6F13F0020F06D000F013
:101A8800D7FB401B0228F5D9032003E1236813F094
:101A9800040F77D02F4B1B6C13F0805F33D10023DA
:101AA80001932C4B1A6C42F080521A641B6C03F0A1
:101AB80080530193019B0125284B1B6813F4807FF9
:101AC80023D0A368012B34D0052B38D0214B1A6FB3
:101AD80022F001021A671A6F22F004021A67A3683B
:101AE800002B3DD000F0A4FB06461A4B1B6F13F0E9
:101AF800020F46D100F09CFB801B41F288339842CC
:101B0800F3D90320C6E00025D6E7144A136843F446
:101B18008073136000F08CFB0646104B1B6813F4AF
:101B2800807FCED100F084FB801B0228F5D90320EA
:101B3800B0E0084A136F43F001031367CFE7054B82
:101B48001A6F42F004021A671A6F42F001021A670C
:101B5800C5E700BF0038024000004742007000405F
:101B680000F066FB0646524B1B6F13F0020F08D0BD
:101B780000F05EFB801B41F288339842F3D90320C2
:101B880088E0EDB9A369002B00F08380484A926889
:101B980002F00C02082A51D0022B17D0454B002224
:101BA8001A6600F045FB0446414B1B6813F0007FA2
:101BB80042D000F03DFB001B0228F5D9032069E064
:101BC8003B4A136C23F080531364DBE7394B002244
:101BD8001A6600F02DFB0546354B1B6813F0007F95
:101BE80006D000F025FB401B0228F5D9032051E060
:101BF800E369226A1343626A43EA8213A26A5208BB
:101C0800013A43EA0243E26A43EA0263284A53601C
:101C1800284B01221A6600F00BFB0446244B1B6874
:101C280013F0007F06D100F003FB001B0228F5D952
:101C380003202FE000202DE000202BE0012B2BD0EB
:101C48001B4B5B6803F48001E269914226D103F0E3
:101C58003F02216A8A4223D1616A47F6C0721A405C
:101C6800B2EB811F1ED103F44031A26A5208013A37
:101C7800B1EB024F18D103F07063E26AB3EB026F65
:101C880014D1002006E001207047012002E0012065
:101C980000E0002002B070BD0120FBE70120F9E759
:101CA8000120F7E70120F5E70120F3E70120F1E73C
:101CB800003802400000474208B5254B9B6803F0F6
:101CC8000C03042B3FD0082B3FD1214B5A6802F05C
:101CD8003F025B6813F4800F12D01D4B5968C1F3A3
:101CE80088111C480023A1FB0001FEF767FE184B72
:101CF8005B68C3F3014301335B00B0FBF3F025E0FD
:101D0800134B5968C1F3881C4FEA4C11B1EB0C0016
:101D18006EEB0E0E4FEA8E1343EA90638101091AA7
:101D280063EB0E03DB0043EA5173C90011EB0C0CA3
:101D380043F10003990200234FEA8C2041EA9C51A9
:101D4800FEF73CFED3E7034800E0034808BD00BFA8
:101D58000038024040787D010024F400002800F09B
:101D68009B8070B50D4604464F4B1B6803F0070374
:101D78008B4208D2CBB24C4A1370136803F00703A6
:101D88008B4240F08B80236813F0020F17D013F0BA
:101D9800040F04D0454A936843F4E05393602368E2
:101DA80013F0080F04D0414A936843F460439360EA
:101DB8003E4A936823F0F003A1680B4393602368BD
:101DC80013F0010F32D06368012B21D09A1E012A2B
:101DD80025D9364A126812F0020F61D033498A6851
:101DE80022F0030213438B6000F022FA06462F4BC1
:101DF8009B6803F00C036268B3EB820F16D000F007
:101E080017FA801B41F288339842F0D9032042E048
:101E1800264A126812F4003FE0D101203BE0234A31
:101E2800126812F0007FD9D1012034E01E4B1B68E4
:101E380003F00703AB4207D9EAB21B4B1A701B68C1
:101E480003F00703AB422DD1236813F0040F06D02B
:101E5800164A936823F4E053E1680B4393602368C0
:101E680013F0080F07D0114A936823F460432169DF
:101E780043EAC1039360FFF71FFF0C4B9B68C3F352
:101E880003130B4AD35CD8400A4B18600A4B1868F6
:101E980000F082F9002070BD012070470120FAE7A8
:101EA8000120F8E70120F6E7003C02400038024034
:101EB8001C230008080000200400002000230F2B2A
:101EC80000F2E48070B582B060E085685E000324AB
:101ED800B44025EA0405CC68B4402C4384604568C6
:101EE80025EA02054C68C4F300129A402A4342606E
:101EF8005AE0DC08083450F8246003F00702950023
:101F08000F22AA4026EA020E0A69AA4042EA0E02F5
:101F180040F824205CE0072200E0002202FA0EF2DA
:101F28002A4302345A4D45F824205A4A94686FEAE5
:101F38000C0224EA0C054E6816F4801F01D04CEA06
:101F48000405544CA560E46802EA04054E6816F4DA
:101F5800001F01D04CEA04054E4CE560646802EAB3
:101F680004054E6816F4003F01D04CEA0405494CBC
:101F78006560246822404D6815F4803F01D04CEA22
:101F88000402444C226001330F2B7DD801229A4071
:101F98000C6804EA020C32EA0404F4D14C6804F038
:101FA8000304013C012C90D94A6802F00302032A79
:101FB80009D0C4685D000322AA4024EA02048A68A2
:101FC800AA402243C2604A6802F00302022A90D063
:101FD80004684FEA430E032202FA0EF224EA0204CE
:101FE8004A6802F0030202FA0EF2224302604A68CB
:101FF80012F4403FC7D000220192274A546C44F49F
:1020080080445464526C02F480420192019A9C0804
:10201800A51C1F4A52F8255003F003024FEA820E0E
:102028000F2202FA0EF225EA02051C4A90423FF4FA
:1020380074AF02F5806290421AD002F58062904235
:1020480018D002F58062904216D002F58062904264
:1020580014D002F58062904212D002F5806290425C
:1020680010D002F5806290423FF455AF082255E740
:10207800012253E7022251E703224FE704224DE7EA
:1020880005224BE7062249E702B070BD704700BF42
:1020980000380140003C0140003802400000024086
:1020A8000AB181617047090481617047436901EA97
:1020B800030221EA030141EA0241816170470000FD
:1020C800074AD36823F4E0631B041B0C000200F4E6
:1020D800E060034343F0BF6343F40033D3607047C9
:1020E80000ED00E000B5194BDB68C3F30223C3F130
:1020F800070CBCF1040F28BF4FF0040C03F1040EC9
:10210800BEF1060F18D9033B4FF0FF3E0EFA0CFC48
:1021180021EA0C0199400EFA03F322EA030319435A
:1021280000280BDB0901C9B200F1604000F56140ED
:1021380080F800135DF804FB0023E5E700F00F00CA
:102148000901C9B2024B1954F4E700BF00ED00E0E1
:1021580014ED00E0002807DB00F01F02400901230E
:102168009340024A42F82030704700BF00E100E087
:102178000138B0F1807F0BD24FF0E0235861054A57
:10218800F02182F823100020986107221A61704715
:102198000120704700ED00E010B504460E4B18789A
:1021A8004FF47A73B3FBF0F30C4A1068B0FBF3F00A
:1021B800FFF7DEFF68B90F2C01D901200AE00022E1
:1021C80021464FF0FF30FFF78DFF054B1C600020C4
:1021D80000E0012010BD00BF000000200800002022
:1021E8000400002008B50B4B1A6842F400721A600C
:1021F8001A6842F480621A601A6842F480721A609F
:102208000320FFF75DFF0F20FFF7C6FFFEF7F0FE84
:10221800002008BD003C0240034A1168034B1B78AC
:102228000B441360704700BF5C00002000000020D2
:10223800014B1868704700BF5C000020034AD2F8C1
:10224800883043F47003C2F88830704700ED00E02E
:10225800DFF834D0FFF7F2FF0C480D490D4A002390
:1022680002E0D458C4500433C4188C42F9D30A4A43
:102278000A4C002301E013600432A242FBD300F0B1
:1022880011F8FEF7C7FD704700000220000000208B
:102298000C000020342300080C00002060000020FF
:1022A800FEE7000070B50D4D0D4C641BA410002610
:1022B800A64209D10B4D0C4C00F020F8641BA41069
:1022C8000026A64205D170BD55F8043B9847013653
:1022D800EEE755F8043B98470136F2E700000000A6
:1022E8000000000000000000000000000244034657
:1022F800934200D1704703F8011BF9E7F8B500BF16
:10230800F8BC08BC9E467047F8B500BFF8BC08BCCE
:042318009E46704726
:10231C000000000000000000010203040607080989
:08232C00C8E6FF7F010000007C
:0C23340001000000100000000024F40074
:040000050800225974
:00000001FF
