:020000040800F2
:100000000000022079360008C9130008CB1300084D
:10001000CD130008CF130008D11300080000000022
:10002000000000000000000000000000D3130008E2
:10003000D513000800000000D7130008D9130008EA
:10004000C9360008C9360008C9360008C936000894
:10005000C9360008C9360008C9360008C936000884
:10006000C9360008C9360008C9360008C936000874
:10007000C9360008C9360008C9360008C936000864
:10008000C9360008E1130008C9360008C93600085F
:10009000C9360008C9360008C9360008C936000844
:1000A000C9360008C9360008C9360008C936000834
:1000B000C9360008C9360008C9360008C936000824
:1000C000C9360008C9360008C9360008C936000814
:1000D000C9360008C9360008F1130008C9360008FF
:1000E000C9360008C9360008C9360008C9360008F4
:1000F000C9360008C9360008C9360008C9360008E4
:10010000C9360008C936000801140008C9360008BD
:10011000C9360008C9360008C9360008C9360008C3
:1001200011140008C936000821140008C936000857
:10013000C9360008C9360008C9360008C9360008A3
:10014000C9360008C9360008C9360008C936000893
:10015000C9360008C9360008C9360008C936000883
:10016000C9360008C9360008C9360008C936000873
:10017000C9360008C9360008C9360008000000006A
:08018000C9360008C936000869
:10019000034613F8012B002AFBD1181A01387047C7
:1001A00001F0FF01102A2BDB10F0070F08D010F828
:1001B000013B013A8B422DD010F0070F42B3F6D12C
:1001C000F0B441EA012141EA014122F007047FF045
:1001D00000070023F0E80256083C85EA010586EA9C
:1001E000010685FA47F5A3FA87F586FA47F6A5FAD8
:1001F00087F68EB9EED1F0BC01F0FF0102F00702E4
:1002000032B110F8013B013A83EA010313B1F8D18E
:100210000020704701387047002D06BF354603386F
:10022000073815F0010F07D1013015F4807F02BFA8
:10023000013015F4C03F0130F0BC0138704700BFF9
:1002400081F0004102E000BF83F0004330B54FEA87
:1002500041044FEA430594EA050F08BF90EA020FF4
:100260001FBF54EA000C55EA020C7FEA645C7FEA87
:10027000655C00F0E2804FEA5454D4EB5555B8BFAA
:100280006D420CDD2C4480EA020281EA030382EA1B
:10029000000083EA010180EA020281EA0303362DAD
:1002A00088BF30BD11F0004F4FEA01314FF4801C80
:1002B0004CEA113102D0404261EB410113F0004F92
:1002C0004FEA03334CEA133302D0524263EB430349
:1002D00094EA050F00F0A780A4F10104D5F1200EE7
:1002E0000DDB02FA0EFC22FA05F2801841F1000142
:1002F00003FA0EF2801843FA05F359410EE0A5F116
:1003000020050EF1200E012A03FA0EFC28BF4CF046
:10031000020C43FA05F3C01851EBE37101F00045FC
:1003200007D54FF0000EDCF1000C7EEB00006EEB09
:100330000101B1F5801F1BD3B1F5001F0CD3490893
:100340005FEA30004FEA3C0C04F101044FEA4452EA
:1003500012F5800F80F09A80BCF1004F08BF5FEA71
:10036000500C50F1000041EB045141EA050130BD51
:100370005FEA4C0C404141EB0101013C28BFB1F563
:10038000801FE9D291F0000F04BF01460020B1FAAE
:1003900081F308BF2033A3F10B03B3F120020CDA81
:1003A0000C3208DD02F1140CC2F10C0201FA0CF05F
:1003B00021FA02F10CE002F11402D8BFC2F1200CC4
:1003C00001FA02F120FA0CFCDCBF41EA0C0190407A
:1003D000E41AA2BF01EB0451294330BD6FEA0404C3
:1003E0001F3C1CDA0C340EDC04F11404C4F12002AE
:1003F00020FA04F001FA02F340EA030021FA04F3C0
:1004000045EA030130BDC4F10C04C4F1200220FA16
:1004100002F001FA04F340EA0300294630BD21FA54
:1004200004F0294630BD94F0000F83F4801306BF1A
:1004300081F480110134013D4EE77FEA645C18BF0E
:100440007FEA655C29D094EA050F08BF90EA020FA5
:1004500005D054EA000C04BF1946104630BD91EA9D
:10046000030F1EBF0021002030BD5FEA545C05D1A0
:100470004000494128BF41F0004130BD14F58004DF
:100480003CBF01F5801130BD01F0004545F0FE4153
:1004900041F470014FF0000030BD7FEA645C1ABF88
:1004A000194610467FEA655C1CBF0B46024650EABF
:1004B000013406BF52EA033591EA030F41F40021EB
:1004C00030BD00BF90F0000F04BF0021704730B571
:1004D0004FF4806404F132044FF000054FF0000146
:1004E00050E700BF90F0000F04BF0021704730B507
:1004F0004FF4806404F1320410F0004548BF4042DC
:100500004FF000013EE700BF42004FEAE2014FEA30
:1005100031014FEA02701FBF12F07F4393F07F4F0B
:1005200081F06051704732F07F4208BF704793F00E
:100530007F4F04BF41F40021704730B54FF4607421
:1005400001F0004521F000411CE700BF50EA010224
:1005500008BF704730B54FF000050AE050EA0102CD
:1005600008BF704730B511F0004502D5404261EB3D
:1005700041014FF4806404F132045FEA915C3FF47E
:10058000D8AE4FF003025FEADC0C18BF03325FEA1B
:10059000DC0C18BF033202EBDC02C2F1200300FACC
:1005A00003FC20FA02F001FA03FE40EA0E0021FAF1
:1005B00002F11444BDE600BF70B54FF0FF0C4CF4DF
:1005C000E06C1CEA11541DBF1CEA135594EA0C0F91
:1005D00095EA0C0F00F0DEF82C4481EA030621EACC
:1005E0004C5123EA4C5350EA013518BF52EA033507
:1005F00041F4801143F4801338D0A0FB02CE4FF0B9
:100600000005E1FB02E506F00042E0FB03E54FF0E8
:100610000006E1FB03569CF0000F18BF4EF0010EE0
:10062000A4F1FF04B6F5007F64F5407404D25FEADC
:100630004E0E6D4146EB060642EAC62141EA55518F
:100640004FEAC52040EA5E504FEACE2EB4F1FD0CD1
:1006500088BFBCF5E06F1ED8BEF1004F08BF5FEA4F
:10066000500E50F1000041EB045170BD06F0004601
:1006700046EA010140EA020081EA0301B4EB5C04AE
:10068000C2BFD4EB0C0541EA045170BD41F48011A6
:100690004FF0000E013C00F3AB8014F1360FDEBFCB
:1006A000002001F0004170BDC4F10004203C35DAA7
:1006B0000C341BDC04F11404C4F1200500FA05F32A
:1006C00020FA04F001FA05F240EA020001F00042CB
:1006D00021F0004110EBD37021FA04F642EB060141
:1006E0005EEA430E08BF20EAD37070BDC4F10C046B
:1006F000C4F1200500FA04F320FA05F001FA04F22F
:1007000040EA020001F0004110EBD37041F100011A
:100710005EEA430E08BF20EAD37070BDC4F1200525
:1007200000FA05F24EEA020E20FA04F301FA05F28D
:1007300043EA020321FA04F001F0004121FA04F235
:1007400020EA020000EBD3705EEA430E08BF20EA05
:10075000D37070BD94F0000F0FD101F0004640003F
:1007600041EB010111F4801F08BF013CF7D041EAC1
:10077000060195F0000F18BF704703F000465200C5
:1007800043EB030313F4801F08BF013DF7D043EA96
:100790000603704794EA0C0F0CEA135518BF95EA4C
:1007A0000C0F0CD050EA410618BF52EA4306D1D1D3
:1007B00081EA030101F000414FF0000070BD50EAF2
:1007C000410606BF1046194652EA430619D094EA7C
:1007D0000C0F02D150EA013613D195EA0C0F05D166
:1007E00052EA03361CBF104619460AD181EA0301BA
:1007F00001F0004141F0FE4141F470014FF0000072
:1008000070BD41F0FE4141F4780170BD70B54FF00C
:10081000FF0C4CF4E06C1CEA11541DBF1CEA13558C
:1008200094EA0C0F95EA0C0F00F0A7F8A4EB05046E
:1008300081EA030E52EA03354FEA013100F0888065
:100840004FEA03334FF0805545EA131343EA12632E
:100850004FEA022245EA111545EA10654FEA0026E3
:100860000EF000419D4208BF964244F1FD0404F59C
:10087000407402D25B084FEA3202B61A65EB0305F8
:100880005B084FEA32024FF480104FF4002CB6EBB5
:10089000020E75EB030E22BFB61A754640EA0C0035
:1008A0005B084FEA3202B6EB020E75EB030E22BF75
:1008B000B61A754640EA5C005B084FEA3202B6EBB6
:1008C000020E75EB030E22BFB61A754640EA9C0075
:1008D0005B084FEA3202B6EB020E75EB030E22BF45
:1008E000B61A754640EADC0055EA060E18D04FEA03
:1008F000051545EA16754FEA06164FEAC30343EAA3
:1009000052734FEAC2025FEA1C1CC0D111F4801F6F
:100910000BD141EA00014FF000004FF0004CB6E768
:1009200011F4801F04BF01430020B4F1FD0C88BF07
:10093000BCF5E06F3FF6AFAEB5EB030C04BFB6EB12
:10094000020C5FEA500C50F1000041EB045170BD05
:100950000EF0004E4EEA113114EB5C04C2BFD4EB32
:100960000C0541EA045170BD41F480114FF0000EB6
:10097000013C90E645EA060E8DE60CEA135594EA32
:100980000C0F08BF95EA0C0F3FF43BAF94EA0C0F35
:100990000AD150EA01347FF434AF95EA0C0F7FF4AA
:1009A00025AF104619462CE795EA0C0F06D152EAFE
:1009B00003353FF4FDAE1046194622E750EA4106E2
:1009C00018BF52EA43067FF4C5AE50EA41047FF4F3
:1009D0000DAF52EA43057FF4EBAE12E74FF0FF3C58
:1009E00006E000BF4FF0010C02E000BF4FF0010C29
:1009F0004DF804CD4FEA410C7FEA6C5C4FEA430CA2
:100A000018BF7FEA6C5C1BD001B050EA410C0CBFF0
:100A100052EA430C91EA030F02BF90EA020F002052
:100A2000704710F1000F91EA030F58BF994208BFB9
:100A300090422CBFD8176FEAE37040F00100704776
:100A40004FEA410C7FEA6C5C02D150EA013C07D1CD
:100A50004FEA430C7FEA6C5CD6D152EA033CD3D018
:100A60005DF8040B704700BF8446104662468C4612
:100A70001946634600E000BF01B5FFF7B7FF002845
:100A800048BF10F1000F01BD4DF808EDFFF7F4FF6E
:100A90000CBF012000205DF808FB00BF4DF808EDF9
:100AA000FFF7EAFF34BF012000205DF808FB00BF1C
:100AB0004DF808EDFFF7E0FF94BF012000205DF83E
:100AC00008FB00BF4DF808EDFFF7CEFF94BF0120F3
:100AD00000205DF808FB00BF4DF808EDFFF7C4FFEC
:100AE00034BF012000205DF808FB00BF4FEA410C35
:100AF0007FEA6C5C02D150EA013C0AD14FEA430C18
:100B00007FEA6C5C02D152EA033C02D14FF0000054
:100B100070474FF0010070474FEA410212F5001292
:100B200015D211D56FF47873B3EB625212D94FEA34
:100B3000C12343F0004343EA505311F0004F23FA1E
:100B400002F018BF404270474FF00000704750EA73
:100B5000013005D111F0004008BF6FF00040704730
:100B60004FF00000704700BF53B94AB9002908BFD1
:100B700000281CBF4FF0FF314FF0FF3000F074B978
:100B8000ADF1080C6DE904CE00F006F8DDF804E0E4
:100B9000DDE9022304B070472DE9F047089D0446C3
:100BA0008E46002B4DD18A42944669D9B2FA82F220
:100BB00052B101FA02F3C2F1200120FA01F10CFA5C
:100BC00002FC41EA030E94404FEA1C48210CBEFB94
:100BD000F8F61FFA8CF708FB16E341EA034306FB1D
:100BE00007F199420AD91CEB030306F1FF3080F0AC
:100BF0001F81994240F21C81023E63445B1AA4B2F9
:100C0000B3FBF8F008FB103344EA034400FB07F79A
:100C1000A7420AD91CEB040400F1FF3380F00A81DB
:100C2000A74240F207816444023840EA0640E41BD0
:100C300000261DB1D4400023C5E900433146BDE87C
:100C4000F0878B4209D9002D00F0EF800026C5E91E
:100C5000000130463146BDE8F087B3FA83F6002E36
:100C60004AD18B4202D3824200F2F980841A61EBAE
:100C7000030301209E46002DE0D0C5E9004EDDE7CC
:100C800002B9FFDEB2FA82F2002A40F09280A1EBB4
:100C90000C014FEA1C471FFA8CFE0126200CB1FB09
:100CA000F7F307FB131140EA01410EFB03F0884202
:100CB00008D91CEB010103F1FF3802D2884200F28F
:100CC000CB804346091AA4B2B1FBF7F007FB101121
:100CD00044EA01440EFB00FEA64508D91CEB0404BF
:100CE00000F1FF3102D2A64500F2BB800846A4EB1A
:100CF0000E0440EA03409CE7C6F12007B34022FA05
:100D000007FC4CEA030C20FA07F401FA06F31C4333
:100D1000F9404FEA1C4900FA06F3B1FBF9F8200C40
:100D20001FFA8CFE09FB181140EA014108FB0EF086
:100D3000884202FA06F20BD91CEB010108F1FF3AD6
:100D400080F08880884240F28580A8F102086144E2
:100D5000091AA4B2B1FBF9F009FB101144EA0141F0
:100D600000FB0EFE8E4508D91CEB010100F1FF349B
:100D70006CD28E456AD90238614440EA0840A0FB33
:100D80000294A1EB0E01A142C846A64656D353D009
:100D90005DB1B3EB080261EB0E0101FA07F722FA2D
:100DA00006F3F1401F43C5E9007100263146BDE856
:100DB000F087C2F12003D8400CFA02FC21FA03F3B9
:100DC000914001434FEA1C471FFA8CFEB3FBF7F03A
:100DD00007FB10360B0C43EA064300FB0EF69E425F
:100DE00004FA02F408D91CEB030300F1FF382FD2F8
:100DF0009E422DD9023863449B1B89B2B3FBF7F6A0
:100E000007FB163341EA034106FB0EF38B4208D978
:100E10001CEB010106F1FF3816D28B4214D9023EB9
:100E20006144C91A46EA004638E72E46284605E7D7
:100E30000646E3E61846F8E64B45A9D2B9EB0208A8
:100E400064EB0C0E0138A3E74646EAE7204694E738
:100E50004046D1E7D0467BE7023B614432E730466B
:100E600009E76444023842E7704700BF08B5002232
:100E70001146382001F038FC382001F06DFC0022CA
:100E80001146112001F030FC112001F065FC002218
:100E90001146262001F028FC262001F05DFC08BD4B
:100EA00008B507EE900AF8EEE77AB0EE087A67EE3A
:100EB000877A17EE900AFFF727FB0DA3D3E90023EB
:100EC000FFF7A4FC0CA3D3E90023FFF7BDF9002230
:100ED000054BFFF79BFC0022044BFFF7B7F941ECF1
:100EE000100B08BDAFF30080000004400000394043
:100EF0000000000000FEAF4000000080EB51E83F22
:100F000008B54FF40051034801F06CF9024B01227F
:100F10001A7008BD000C0240E201002008B5054B24
:100F2000834200D008BD4FF48041034801F05AF9D4
:100F3000F8E700BF54040020000C024008B5054B40
:100F4000834200D008BD4FF48051034801F04AF9B4
:100F5000F8E700BFC0030020000C024072B6FEE7B5
:100F600000B595B03022002108A802F0D3FB002381
:100F7000039304930593069307930193184A116C06
:100F800041F080511164126C02F080520192019A7A
:100F90000293144A116841F480411160126802F40E
:100FA00080420292029A0222089201220B9210229F
:100FB0000C920E9308A800F0F9FC68B90F23039374
:100FC0000021049105910691079103A800F03CFFD0
:100FD00020B915B05DF804FBFFF7C0FFFFF7BEFFB7
:100FE000003802400070004000B583B001F0FCFB07
:100FF000FFF7B6FF00F0F2F800F046F800F07AF8DC
:1010000000F010F900F028F901F0C6FF01F0FCFF34
:10101000FFF72CFF134802F091F8134802F0CCF8C8
:1010200002221249124800F0E5FA124B1B78002BFD
:10103000FBD0104B00221A700C4B1888C0B2FFF77F
:101040002FFF0D4B83ED000B0C4C8DED000B0C4A6C
:101050001E21204602F0D0FF1E222146094801F041
:1010600015FDE2E70C04002054040020E0010020FC
:1010700010020020E2010020E8010020F001002021
:10108000C8650008C003002030B589B0002403946F
:1010900004940594069407940194144B1A6B42F03F
:1010A00001021A631A6B02F001020192019A029482
:1010B0001A6B42F008021A631B6B03F008030293D9
:1010C000029B0B4D22464FF4E041284601F084F884
:1010D0004FF4E0430393012304930594069403A97A
:1010E000284600F087FF09B030BD00BF003802403D
:1010F000000C024000B585B00023009301930293D9
:1011000003931648164A02604360836003610376C6
:1011100080F820304FF08052C2624FF0C06282628D
:10112000C3600123C36180F83030436100F036FAB8
:1011300068B91023009301230193002302936946A9
:10114000064800F067FB28B905B05DF804FBFFF71F
:1011500005FFEEE7FFF702FFF6E700BF10020020F1
:10116000002001400268194B9A4200D0704710B528
:1011700082B0044600230193154A516C41F48071FA
:101180005164526C02F480720192019A1148124A21
:10119000026043608360C3604FF4806202614FF479
:1011A000006242614FF4005282614FF48072C2616A
:1011B0000362436201F0A0F820B9064BA3639C636D
:1011C00002B010BDFFF7CAFEF7E700BF00200140E4
:1011D00000380240580200201064024000B583B07D
:1011E000002100910E4B1A6B42F480021A631A6BB5
:1011F00002F480020092009A01911A6B42F40012EC
:101200001A631B6B03F400130193019B0A463A20F7
:1012100001F06AFA3A2001F09FFA03B05DF804FB8E
:101220000038024008B50A480A4B03604FF4E13326
:10123000436000238360C36003610C2242618361C9
:10124000C36101F0F3FB00B908BDFFF787FEFBE7C0
:10125000780300200010014008B50A480A4B0360DB
:101260004FF4E133436000238360C36003610C22C9
:1012700042618361C36101F0D9FB00B908BDFFF78A
:101280006DFEFBE7C00300200044004030B58BB08A
:101290000446002305930693079308930993036874
:1012A000414A934204D0414A93423FD00BB030BDF3
:1012B000002501953E4B5A6C42F010025A645A6C5C
:1012C00002F010020192019A02951A6B42F001029B
:1012D0001A631B6B03F001030293029B4FF4C0637C
:1012E0000593022306930793032308930723099387
:1012F00005A9304800F07EFE2F48304B03604FF0C8
:10130000006343608560C5604FF48063036145619D
:101310008561C5610562456200F0EEFF18B9264B94
:10132000E3639C63C2E7FFF719FEF8E70025039526
:101330001F4B1A6C42F400321A641A6C02F4003229
:101340000392039A04951A6B42F001021A631B6B15
:1013500003F001030493049B0C23059302230693DB
:101360000793032308930723099305A9114800F065
:1013700041FE1348134B03604FF00063436040236A
:101380008360C5604FF48063036145618561C56119
:101390000562456200F0B0FF18B9094BA3639C6376
:1013A00084E7FFF7DBFDF8E7001001400044004050
:1013B0000038024000000240B802002040640240B1
:1013C00018030020A0600240FEE7FEE7FEE7FEE70C
:1013D000FEE770477047704708B501F01FFA08BD77
:1013E00008B5024801F080F808BD00BF18030020CE
:1013F00008B5024801F074FC08BD00BFC00300201E
:1014000008B5024801F020FF08BD00BF54040020C9
:1014100008B5024801F068F808BD00BF5802002076
:1014200008B5024801F060F808BD00BFB80200200E
:1014300082B0002100910B4B5A6C42F480425A64F6
:101440005A6C02F480420092009A01911A6C42F0A8
:1014500080521A641B6C03F080530193019B02B00D
:10146000704700BF003802404A4B5A6822F44032AD
:101470005A605A6841680A435A600268536823F404
:101480008073536002685368016943EA0123536023
:101490000268536823F040735360026853688168A0
:1014A0000B4353600268936823F4006393600268FF
:1014B0009368C1680B439360826A374B9A4257D056
:1014C0000268936823F07063936002689368816A8E
:1014D0000B4393600268936823F040539360026863
:1014E0009368C16A0B4393600268936823F0020318
:1014F000936002689368017E43EA4103936090F829
:101500002030002B3FD00268536843F400635360DF
:101510000268536823F46043536001684B68426A71
:10152000013A43EA42334B600268D36A23F4700302
:10153000D3620168CB6AC269013A43EA0253CB62C3
:101540000268936823F4007393600268936890F8CC
:10155000301043EA412393600268936823F4806368
:10156000936002689368416943EA812393607047FE
:101570000268936823F0706393600268936823F0B5
:1015800040539360B0E70268536823F400635360EC
:10159000CAE700BF002301400100000F38B310B5B7
:1015A0000446036C43B1236C13F0100F0BD00120E1
:1015B000002384F83C3010BDFFF7D4FD00236364A2
:1015C00084F83C30EFE7236C23F4885323F00203C4
:1015D00043F0020323642046FFF746FF00206064C7
:1015E000236C23F0030343F001032364E0E70120AD
:1015F0007047000010B582B013460022019290F8A7
:101600003C20012A00F0A7800446012280F83C20FB
:101610000268906810F0010F13D1906840F001004B
:1016200090604E4A10684E4AA2FB0020800C00EBEE
:101630004000019002E001980138019001980028D3
:10164000F9D12268906810F4807F03D0906820F46C
:10165000807090602268906810F0010F70D0206C4C
:1016600020F4E06020F0010040F4807020645268B3
:1016700012F4806F05D0226C22F4405242F4805262
:101680002264226C12F4805F3BD0626C22F006026E
:101690006264002284F83C20A26B3248D063A26BC3
:1016A00031481064A26B3148D06422686FF0220088
:1016B00010602068426842F0806242602068826860
:1016C00042F48072826020680A4600F14C01A06BEF
:1016D00000F078FE264B5B6813F01F0F23D12368C0
:1016E000244A934216D002F5807293420CD0224ACB
:1016F00093422ED102F58072526812F0100F28D159
:1017000008E000226264C4E702F50072526812F039
:101710001F0FECD19A6812F0405F1AD19A6842F01C
:1017200080429A6015E02368124A934211D19A6868
:1017300012F0405F0DD19A6842F080429A6008E052
:10174000236C43F010032364636C43F00103636470
:10175000002002B010BD0220FBE700BF08000020FF
:1017600083DE1B43A11700087F1700088B170008B2
:10177000002301400020014000220140704708B5CD
:10178000806BFFF7FBFF08BD704708B5806B4023F7
:101790000364436C43F004034364FFF7F5FF08BDA3
:1017A00008B50346806B026C12F0500F25D1036C14
:1017B00043F40073036403689A6812F0405F19D120
:1017C000027EBAB9DA6A12F4700F03D09A6812F482
:1017D000806F0FD15A6822F020025A60036C23F404
:1017E00080730364036C13F4805F03D1036C43F0D4
:1017F00001030364FFF784FB08BD026C12F0100FB5
:1018000004D1826BD26C18469047F5E7FFF7BCFF16
:10181000F2E7000030B482B00023019390F83C302E
:10182000012B00F0BB80012380F83C300B68092BB2
:1018300041D90468E2689BB203EB43031E3B4FF0BF
:10184000070C0CFA03F322EA0303E3600468E2687E
:101850000B8803EB43031E3B8D6805FA03F3134328
:10186000E3604B68062B3DD80468626B03EB83038F
:10187000053B4FF01F0C0CFA03F322EA03036363EA
:101880000468626B4B6803EB8303053BB1F800C04F
:101890000CFA03F3134363630268414B9A4251D03D
:1018A00002683F4B9A4256D0002380F83C301846DD
:1018B00002B030BC7047046822699BB203EB43035B
:1018C0004FF0070C0CFA03F322EA030323610468C8
:1018D00022690B8803EB43038D6805FA03F3134376
:1018E0002361BEE70C2B16D805682A6B03EB830334
:1018F000233B1F2404FA03F322EA03032B63056846
:101900002A6B4B6803EB8303233B0C8804FA03F335
:1019100013432B63C0E70568EA6A03EB8303413B8B
:101920001F2404FA03F322EA0303EB620568EA6A60
:101930004B6803EB8303413B0C8804FA03F3134326
:10194000EB62A9E70B68122BAAD1164A536843F43D
:1019500080035360A4E70B68103B012BA4D8114A05
:10196000536843F4000353600B68102B9CD10E4B5B
:101970001B6802F1467202F52E3202F28332A2FB9C
:1019800003239B0C03EB83035B00019302E0019BA9
:10199000013B0193019B002BF9D185E7022087E7EA
:1019A000002001400023014008000020002800F032
:1019B000E08170B582B00446036813F0010F3BD09C
:1019C0009F4B9B6803F00C03042B2CD09C4B9B6813
:1019D00003F00C03082B21D06368B3F5803F4FD090
:1019E000B3F5A02F52D0964B1A6822F480321A60B9
:1019F0001A6822F480221A606368002B50D000F02D
:101A000019FF05468E4B1B6813F4003F14D100F0FC
:101A100011FF401B6428F5D90320B1E1884B5B68B6
:101A200013F4800FD8D0864B1B6813F4003F03D00B
:101A30006368002B00F09F81236813F0020F54D0DD
:101A40007F4B9B6813F00C0F3ED07D4B9B6803F0DF
:101A50000C03082B33D0E368002B68D0794B0122AC
:101A60001A6000F0E7FE0546754B1B6813F0020F85
:101A700054D100F0DFFE401B0228F5D903207FE19E
:101A80006F4A136843F480331360B5E76C4B1A68F0
:101A900042F480221A601A6842F480321A60ABE77E
:101AA00000F0C8FE0546664B1B6813F4003FC3D028
:101AB00000F0C0FE401B6428F5D9032060E1604BB4
:101AC0005B6813F4800FC6D15D4B1B6813F0020FE7
:101AD00003D0E368012B40F05081594A136823F08A
:101AE000F803216943EAC1031360236813F0080F68
:101AF00042D063696BB3534B0122C3F8802E00F0D0
:101B000099FE05464E4B5B6F13F0020F34D100F087
:101B100091FE401B0228F5D9032031E1484A1368A1
:101B200023F0F803216943EAC1031360DDE7454B65
:101B300000221A6000F07EFE0546414B1B6813F040
:101B4000020FD2D000F076FE401B0228F5D9032008
:101B500016E13C4B0022C3F8802E00F06BFE0546D8
:101B6000374B5B6F13F0020F06D000F063FE401B93
:101B70000228F5D9032003E1236813F0040F77D07E
:101B80002F4B1B6C13F0805F33D1002301932C4B40
:101B90001A6C42F080521A641B6C03F0805301935C
:101BA000019B0125284B1B6813F4807F23D0A36879
:101BB000012B34D0052B38D0214B1A6F22F00102B3
:101BC0001A671A6F22F004021A67A368002B3DD02F
:101BD00000F030FE06461A4B1B6F13F0020F46D181
:101BE00000F028FE801B41F288339842F3D903208D
:101BF000C6E00025D6E7144A136843F480731360E7
:101C000000F018FE0646104B1B6813F4807FCED1FF
:101C100000F010FE801B0228F5D90320B0E0084A2E
:101C2000136F43F001031367CFE7054B1A6F42F0C0
:101C300004021A671A6F42F001021A67C5E700BF73
:101C400000380240000047420070004000F0F2FD02
:101C50000646524B1B6F13F0020F08D000F0EAFD4E
:101C6000801B41F288339842F3D9032088E0EDB914
:101C7000A369002B00F08380484A926802F00C02AE
:101C8000082A51D0022B17D0454B00221A6600F0CB
:101C9000D1FD0446414B1B6813F0007F42D000F099
:101CA000C9FD001B0228F5D9032069E03B4A136CEB
:101CB00023F080531364DBE7394B00221A6600F0EF
:101CC000B9FD0546354B1B6813F0007F06D000F0C8
:101CD000B1FD401B0228F5D9032051E0E369226AD7
:101CE0001343626A43EA8213A26A5208013A43EA42
:101CF0000243E26A43EA0263284A5360284B012206
:101D00001A6600F097FD0446244B1B6813F0007F11
:101D100006D100F08FFD001B0228F5D903202FE02B
:101D200000202DE000202BE0012B2BD01B4B5B680B
:101D300003F48001E269914226D103F03F02216A57
:101D40008A4223D1616A47F6C0721A40B2EB811F02
:101D50001ED103F44031A26A5208013AB1EB024F9E
:101D600018D103F07063E26AB3EB026F14D1002064
:101D700006E001207047012002E0012000E0002081
:101D800002B070BD0120FBE70120F9E70120F7E771
:101D90000120F5E70120F3E70120F1E700380240D8
:101DA0000000474208B5254B9B6803F00C03042B49
:101DB0003FD0082B3FD1214B5A6802F03F025B68AD
:101DC00013F4800F12D01D4B5968C1F388111C48C1
:101DD0000023A1FB0001FEF7C7FE184B5B68C3F3AD
:101DE000014301335B00B0FBF3F025E0134B59686E
:101DF000C1F3881C4FEA4C11B1EB0C006EEB0E0ED8
:101E00004FEA8E1343EA90638101091A63EB0E03D4
:101E1000DB0043EA5173C90011EB0C0C43F10003E2
:101E2000990200234FEA8C2041EA9C51FEF79CFE68
:101E3000D3E7034800E0034808BD00BF0038024074
:101E400040787D010024F400002800F09B8070B5EC
:101E50000D4604464F4B1B6803F007038B4208D224
:101E6000CBB24C4A1370136803F007038B4240F067
:101E70008B80236813F0020F17D013F0040F04D0E7
:101E8000454A936843F4E0539360236813F0080FC6
:101E900004D0414A936843F4604393603E4A936898
:101EA00023F0F003A1680B439360236813F0010F44
:101EB00032D06368012B21D09A1E012A25D9364AD7
:101EC000126812F0020F61D033498A6822F00302CF
:101ED00013438B6000F0AEFC06462F4B9B6803F06B
:101EE0000C036268B3EB820F16D000F0A3FC801BDA
:101EF00041F288339842F0D9032042E0264A126822
:101F000012F4003FE0D101203BE0234A126812F0B6
:101F1000007FD9D1012034E01E4B1B6803F007037A
:101F2000AB4207D9EAB21B4B1A701B6803F00703D8
:101F3000AB422DD1236813F0040F06D0164A9368E4
:101F400023F4E053E1680B439360236813F0080F18
:101F500007D0114A936823F46043216943EAC1031F
:101F60009360FFF71FFF0C4B9B68C3F303130B4AEF
:101F7000D35CD8400A4B18600A4B186800F00EFC7E
:101F8000002070BD012070470120FAE70120F8E72A
:101F90000120F6E7003C024000380240E8650008F6
:101FA0000800002004000020014B1868704700BFA3
:101FB0000800002008B5FFF7F7FF044B9B68C3F348
:101FC0008223034AD35CD84008BD00BF00380240DA
:101FD000F865000808B5FFF7E7FF044B9B68C3F3FB
:101FE0004233034AD35CD84008BD00BF00380240EA
:101FF000F865000800230F2B00F2E48070B582B072
:1020000060E085685E000324B44025EA0405CC68DE
:10201000B4402C438460456825EA02054C68C4F34B
:1020200000129A402A4342605AE0DC08083450F813
:10203000246003F0070295000F22AA4026EA020E50
:102040000A69AA4042EA0E0240F824205CE0072216
:1020500000E0002202FA0EF22A4302345A4D45F8FB
:1020600024205A4A94686FEA0C0224EA0C054E6850
:1020700016F4801F01D04CEA0405544CA560E468B6
:1020800002EA04054E6816F4001F01D04CEA04056C
:102090004E4CE560646802EA04054E6816F4003FA1
:1020A00001D04CEA0405494C6560246822404D6823
:1020B00015F4803F01D04CEA0402444C2260013305
:1020C0000F2B7DD801229A400C6804EA020C32EAF8
:1020D0000404F4D14C6804F00304013C012C90D9B1
:1020E0004A6802F00302032A09D0C4685D00032293
:1020F000AA4024EA02048A68AA402243C2604A68CD
:1021000002F00302022A90D004684FEA430E032231
:1021100002FA0EF224EA02044A6802F0030202FA0A
:102120000EF2224302604A6812F4403FC7D00022F8
:102130000192274A546C44F480445464526C02F473
:1021400080420192019A9C08A51C1F4A52F8255012
:1021500003F003024FEA820E0F2202FA0EF225EA82
:1021600002051C4A90423FF474AF02F5806290422F
:102170001AD002F58062904218D002F58062904237
:1021800016D002F58062904214D002F5806290422F
:1021900012D002F58062904210D002F58062904227
:1021A0003FF455AF082255E7012253E7022251E7D9
:1021B00003224FE704224DE705224BE7062249E7B9
:1021C00002B070BD704700BF00380140003C0140C4
:1021D00000380240000002400AB1816170470904E2
:1021E00081617047436901EA030221EA030141EA80
:1021F00002418161704730B405682C6824F4802462
:102200002C60046863608368402B05D00368996084
:102210000368DA6030BC704703689A600368D9606D
:10222000F8E7000010B40368D9B210390C4AA2FBD9
:10223000014212090B4CA25CC2655F2909D923F443
:102240007F7323F0030304338365806D5DF8044BD3
:10225000704723F47F7323F003038365F5E700BF22
:10226000ABAAAAAAE0650008836A826992B9012B29
:102270000AD0022B02D00BB100207047C36A13F0C2
:10228000807F28D100207047C36AB3F1C07F24D07B
:1022900000207047B2F5005F09D0022B25D9032B2F
:1022A00025D1C36A13F0807F23D100207047032B10
:1022B00003D8DFE803F01404140A00207047C36A4F
:1022C00013F0807F0DD100207047C36AB3F1C07F47
:1022D00009D000207047012070470120704701207D
:1022E000704701207047012070470120704700208F
:1022F000704701207047000070B5044600F09AFA5C
:10230000002C5BD00546022384F83530002384F886
:1023100034302268136823F00103136023681A68BD
:1023200012F0010F0AD000F085FA431B052BF5D9F6
:1023300020236365032084F8350070BD1A682048A7
:1023400010406168A2680A43E1680A4321690A43B0
:1023500061690A43A1690A43E1690A43216A0A43A0
:102360000243616A04291ED01A602668756925F047
:102370000705636A1D43042B07D1A36A1D43E36A63
:102380001BB12046FFF770FF90B975612046FFF73B
:1023900049FFE26D3F239340836000206065012385
:1023A00084F83530C9E7E16A206B01430A43DBE773
:1023B00040236365012084F83500BEE70120BCE7B7
:1023C0003F8010F038B50446856D90F83400012840
:1023D0002BD0012084F8340094F83500C0B20128D5
:1023E00004D0002384F83430022038BD022084F861
:1023F0003500002060652046FFF7FDFEE26D3F23BB
:102400009340AB602268136843F016031360236C9B
:1024100023B12268136843F008031360226813682D
:1024200043F0010313600020DFE70220DDE770B511
:102430000446866D00F0FEF994F83530DBB2022BCD
:1024400006D080236365002384F83430012070BDFA
:1024500005462268136823F0160313602268536947
:1024600023F080035361236CE3B12268136823F0E7
:10247000080313602268136823F0010313602368C4
:102480001B6813F0010F11D000F0D4F9431B052B8A
:10249000F5D920236365032084F83500002384F8F0
:1024A0003430D4E7A36C002BDFD1E3E7E26D3F23A8
:1024B0009340B360012384F83530002084F8340061
:1024C000C5E790F83530DBB2022B03D0802343659B
:1024D00001207047052380F835300268136823F027
:1024E0000103136000207047F0B583B00446002359
:1024F0000193724B1D68724BA3FB0535AD0A876DC6
:102500003E68C26D08239340334210D003681A68B6
:1025100012F0040F0BD01A6822F004021A60C26D88
:1025200008239340BB60436D43F001034365E26DB4
:1025300001239340334209D02268526912F0800F80
:1025400004D0BB60636D43F002036365E26D042356
:102550009340334209D02268126812F0020F04D06F
:10256000BB60636D43F004036365E26D1023934029
:10257000334224D02268126812F0080F1FD0BB60CB
:1025800023681A6812F4802F0DD01B6813F4002FF3
:1025900004D1236C9BB12046984710E0A36C73B123
:1025A000204698470BE01A6812F4807F03D11A681E
:1025B00022F008021A60236C0BB120469847E26DA6
:1025C00020239340334255D02268126812F0100F36
:1025D00050D0BB6094F83530DBB2052B0ED02368A9
:1025E0001A6812F4802F33D01B6813F4002F2AD1FD
:1025F000636C002B3ED0204698473BE0226813686E
:1026000023F0160313602268536923F0800353619B
:10261000236CA3B12268136823F008031360E26DF2
:102620003F239340BB60012384F83530002384F8B6
:102630003430236D002B3FD0204698473CE0A36CFC
:10264000002BE7D1EBE7E36BA3B12046984711E0FD
:102650001A6812F4807F09D11A6822F010021A60F9
:10266000012384F83530002384F83430E36B0BB158
:1026700020469847636DFBB1636D13F0010F17D0CF
:10268000052384F835302268136823F001031360B2
:10269000019B01330193AB4204D823681B6813F0FC
:1026A000010FF5D1012384F83530002384F834304C
:1026B000E36C0BB12046984703B0F0BD0800002042
:1026C000B5814E1B074AD36823F4E0631B041B0C3F
:1026D000000200F4E060034343F0BF6343F40033BF
:1026E000D360704700ED00E000B5194BDB68C3F321
:1026F0000223C3F1070CBCF1040F28BF4FF0040CF8
:1027000003F1040EBEF1060F18D9033B4FF0FF3E54
:102710000EFA0CFC21EA0C0199400EFA03F322EAAE
:102720000303194300280BDB0901C9B200F1604023
:1027300000F5614080F800135DF804FB0023E5E735
:1027400000F00F000901C9B2024B1954F4E700BFB1
:1027500000ED00E014ED00E0002807DB00F01F02B0
:10276000400901239340024A42F82030704700BFDD
:1027700000E100E00138B0F1807F0BD24FF0E023A0
:102780005861054AF02182F8231000209861072241
:102790001A6170470120704700ED00E010B5044653
:1027A0000E4B18784FF47A73B3FBF0F30C4A1068B1
:1027B000B0FBF3F0FFF7DEFF68B90F2C01D9012061
:1027C0000AE0002221464FF0FF30FFF78DFF054B56
:1027D0001C60002000E0012010BD00BF00000020B0
:1027E000080000200400002008B50B4B1A6842F4D2
:1027F00000721A601A6842F480621A601A6842F421
:1028000080721A600320FFF75DFF0F20FFF7C6FFFD
:10281000FEF70EFE002008BD003C0240034A11688E
:10282000034B1B780B441360704700BF0804002063
:1028300000000020014B1868704700BF080400200A
:10284000026802F10C0353E8003F23F0C0030C328E
:1028500042E800310029F3D1202380F8413070474D
:10286000026802F10C0353E8003F23F490730C322A
:1028700042E800310029F3D1026802F1140353E861
:10288000003F23F00103143242E800310029F3D164
:10289000036B012B05D0202380F842300023036313
:1028A0007047026802F10C0353E8003F23F0100365
:1028B0000C3242E800310029F3D1ECE790F84130C6
:1028C000DBB2212B01D0022070478368B3F5805F13
:1028D00017D0036A5A1C02621A7803685A60C38CC4
:1028E0009BB2013B9BB2C3844BB90268D36823F00F
:1028F0008003D3600268D36843F04003D3600020B4
:1029000070470369002BE4D1036A1B880268C3F394
:1029100008035360036A02330362E0E738B50446F4
:102920000268136923F44053C1680B431361836841
:102930000269134342691343C2691A430168CB68B1
:1029400023F4164323F00C031343CB60026853694E
:1029500023F4407381690B4353610368314A934206
:1029600006D002F58062934202D0FFF723FB01E01C
:10297000FFF730FBE369B3F5004F29D000210318BE
:1029800049411B1841F10001C90041EA5371DB00C4
:10299000181863684FEA83024FEA937341F100010C
:1029A000FEF7E2F8204DA5FB00325109642303FB3A
:1029B00011031B013233A5FB03235B0903F0F00273
:1029C00002EB011203F00F03216813448B6038BD42
:1029D0000023021843EB0301121841F10001C90062
:1029E00041EA5271D200101841F100016268921858
:1029F0005B41FEF7B9F80C4DA5FB00325109642389
:102A000003FB1103DB003233A5FB03235B095A00F0
:102A100002F4F87202EB011203F007032168134479
:102A20008B60D4E7001001401F85EB5160B310B5F7
:102A3000044690F8413013B3242384F841302268CF
:102A4000D36823F40053D3602046FFF767FF226862
:102A5000136923F4904313612268536923F02A0316
:102A600053612268D36843F40053D360002060644C
:102A7000202384F8413084F84230606310BD80F830
:102A80004030FEF703FCD7E70120704738B5134606
:102A900090F84120D2B2202A36D10446002935D000
:102AA0000BB9012031E001628384C38400224264B7
:102AB000212084F84100A06B154DC563A06B154D16
:102AC0000564A06B144DC564A06B026522680432D6
:102AD000A06BFFF777FC30B110236364202384F8E8
:102AE0004130012011E023686FF040021A60226833
:102AF00002F1140353E8003F43F08003143242E82C
:102B000000310029F3D100E0022038BD0120FCE7AC
:102B10001D2B0008852B0008932B000808B50346E1
:102B2000806B1B681B6813F4807F1AD10023C38459
:102B3000026802F1140353E8003F23F080031432CB
:102B400042E800310029F3D1026802F10C0353E896
:102B5000003F43F040030C3242E800310029F3D13A
:102B600008BDFEF7EBF9FBE708B50168CA6822F07B
:102B70004002CA60202280F84120FEF7DFF90020E1
:102B800008BD704708B5806BFFF7FBFF08BD7047B5
:102B9000704710B5846B23685A6994F84130DBB2F2
:102BA000212B10D023685A6902F0400294F8423079
:102BB000DBB2222B11D0636C43F010036364204618
:102BC000FFF7E6FF10BD02F08002002AEAD00023E2
:102BD000E3842046FFF734FEE4E7002AEBD000232D
:102BE000E3852046FFF73CFEE5E708B5806B002350
:102BF000C385FFF7CDFF08BD704790F84230DBB2C8
:102C0000222B69D18368B3F5805F4FD0826AB3F518
:102C1000805F04D0002B56D10369002B53D1036889
:102C20005B681370836A01338362C38D9BB2013B7F
:102C30009BB2C385002B51D100B583B00268D36825
:102C400023F02003D3600268D36823F48073D36039
:102C50000268536923F001035361202380F8423056
:102C600000234363036B012B33D10023036302680A
:102C700002F10C0353E8003F23F010030C3242E84A
:102C800000310029F3D103681A6812F0100F06D042
:102C9000002201921A6801925B680193019B818D69
:102CA000FFF7AAFF002003B05DF804FB0269002AC9
:102CB000ACD1826A03685B68C3F308031380836A3C
:102CC00002338362B1E703685B6803F07F0313702C
:102CD000A8E7FFF75CFFE5E7022070470020704798
:102CE00030B583B0044602681368D068516913F0A8
:102CF0000F0505D113F0200F02D010F0200F19D1CD
:102D00002DB111F0010119D110F4907F16D1216B72
:102D100001297DD013F0800F03D010F0800F40F018
:102D2000268113F0400F03D010F0400F40F02381B4
:102D300003B030BD2046FFF760FFF9E713F0010F45
:102D400006D010F4807F03D0626C42F0010262640E
:102D500013F0040F04D019B1626C42F002026264F5
:102D600013F0020F04D019B1626C42F004026264E5
:102D700013F0080F07D010F0200F00D119B1626CCA
:102D800042F008026264626C002AD1D013F0200F76
:102D900002D010F0200F29D123685B6903F04003B3
:102DA000626C12F0080F00D163B32046FFF758FDA4
:102DB00023685B6913F0400F20D0226802F11403EE
:102DC00053E8003F23F04003143242E80031002969
:102DD000F3D1E36B73B16A4A1A65E06BFFF771FBDD
:102DE0000028A5D0E06B036D9847A1E72046FFF7C8
:102DF00004FFD1E72046FFF7CBFE99E72046FFF717
:102E0000C7FE95E72046FFF7C3FE002363648FE704
:102E100013F0100F3FF47EAF10F0100F3FF47AAFB5
:102E2000002301931368019353680193019B536935
:102E300013F0400F5FD0E26B13685B689BB2002B0E
:102E40004AD0A18D994247D9E385D369B3F5807FF4
:102E500037D0226802F10C0353E8003F23F480735B
:102E60000C3242E800310029F3D1226802F1140348
:102E700053E8003F23F00103143242E800310029F7
:102E8000F3D1226802F1140353E8003F23F040031A
:102E9000143242E800310029F3D1202384F8423073
:102EA00000232363226802F10C0353E8003F23F060
:102EB00010030C3242E800310029F3D1E06BFFF738
:102EC000B6FA02236363A18DE38D9BB2C91A89B25E
:102ED0002046FFF791FE2BE7A18D99427FF428AFA2
:102EE000D369B3F5807F7FF423AF02236363204669
:102EF000FFF782FE1CE7A18DE38D9BB2C91A89B250
:102F0000E38D9BB2002B3FF413AF00293FF410AFC9
:102F1000226802F10C0353E8003F23F490730C3253
:102F200042E800300028F3D1226802F1140353E88C
:102F3000003F23F00103143242E800300028F3D1AF
:102F4000202384F8423000232363226802F10C031B
:102F500053E8003F23F010030C3242E80030002811
:102F6000F3D1022363632046FFF746FEE0E62046E6
:102F7000FFF7A4FCDCE62046FFF7F6FDD8E600BF2D
:102F8000EB2B0008034AD2F8883043F47003C2F8F0
:102F90008830704700ED00E000B587B00023029351
:102FA0000393049305930093019316484FF08042D6
:102FB000026043F67F624260836040F2E732C260A3
:102FC0000361836100F058FA98B94FF4805302937B
:102FD00002A90C4800F089FA70B9202300938023DD
:102FE00001936946074800F0FFFA40B907B05DF861
:102FF00004FBFDF7B3FFE8E7FDF7B0FFEDE7FDF7F2
:10300000ADFFF3E70C04002000B587B00023029366
:10301000039304930593009301931548154A0260A6
:1030200043F67F624260836040F2E732C260036130
:10303000836100F021FA90B94FF48053029302A902
:103040000B4800F052FA68B90023009301936946D7
:10305000074800F0C9FA40B907B05DF804FBFDF776
:103060007DFFE9E7FDF77AFFEEE7FDF777FFF3E78E
:1030700054040020000C004000B583B00368B3F195
:10308000804F05D0134A93420FD003B05DF804FB84
:1030900000230093104B1A6C42F001021A641B6C5F
:1030A00003F001030093009BEFE7002101910A4B1D
:1030B0001A6C42F008021A641B6C03F008030193B7
:1030C000019B0A463220FFF70FFB3220FFF744FB3B
:1030D000DBE700BF000C00400038024010B4036A78
:1030E000046A24F001040462846924F0F00C4CEAC0
:1030F000021223F00A030B43826103625DF8044B62
:10310000704710B4036A046A24F0100404628469EE
:1031100024F4704C4CEA023223F0A00343EA01137A
:10312000826103625DF8044B7047836823F070038B
:103130000B4343F0070383607047000090F83D3075
:10314000DBB2012B32D1022380F83D300368194AEB
:10315000934220D0B3F1804F1DD0A2F57C42934220
:1031600019D002F58062934215D002F58062934235
:1031700011D002F5784293420DD002F5705293427D
:1031800009D0A2F59432934205D01A6842F00102A8
:103190001A60002070479A6802F00702062A07D0DA
:1031A0001A6842F001021A6000207047012070473F
:1031B000002070470000014090F83D30DBB2012B49
:1031C00037D1022380F83D300268D36843F0010311
:1031D000D3600368194A934220D0B3F1804F1DD0C9
:1031E000A2F57C42934219D002F58062934215D039
:1031F00002F58062934211D002F5784293420DD0DD
:1032000002F57052934209D0A2F59432934205D050
:103210001A6842F001021A60002070479A6802F0B2
:103220000702062A07D01A6842F001021A6000203D
:103230007047012070470020704700BF0000014028
:10324000704770477047704770B504460368DE6882
:103250001D6915F0020F10D016F0020F0DD06FF09F
:1032600002021A610123037703689B6913F0030FBD
:103270005ED0FFF7E6FF0023237715F0040F12D08E
:1032800016F0040F0FD023686FF004021A610223B6
:10329000237723689B6913F4407F4FD02046FFF7C4
:1032A000D0FF0023237715F0080F12D016F0080F77
:1032B0000FD023686FF008021A6104232377236874
:1032C000DB6913F0030F40D02046FFF7BAFF00235D
:1032D000237715F0100F12D016F0100F0FD02368BF
:1032E0006FF010021A61082323772368DB6913F457
:1032F000407F31D02046FFF7A4FF0023237715F04D
:10330000010F02D016F0010F2DD115F0800F02D061
:1033100016F0800F2FD115F0400F02D016F0400F9D
:1033200031D115F0200F02D016F0200F33D170BD2F
:10333000FFF786FF2046FFF785FF9CE72046FFF753
:103340007FFF2046FFF77EFFABE72046FFF778FFC1
:103350002046FFF777FFBAE72046FFF771FF2046C8
:10336000FFF770FFC9E723686FF001021A6120467A
:10337000FDF7D4FDC9E723686FF080021A6120468B
:1033800000F079F9C7E723686FF040021A61204620
:10339000FFF759FFC5E723686FF020021A61204646
:1033A00000F068F9C3E700000368324A904212D087
:1033B000B0F1804F0FD0A2F57C4290420BD002F5C5
:1033C0008062904207D002F58062904203D002F5FD
:1033D0007842904203D123F070034A681343254A90
:1033E00090422AD0B0F1804F27D0A2F57C42904283
:1033F00023D002F5806290421FD002F58062904295
:103400001BD002F57842904217D002F570529042DC
:1034100013D002F5806290420FD002F58062904294
:103420000BD0A2F59832904207D002F5806290420C
:1034300003D002F58062904203D123F44073CA683E
:10344000134323F080034A6913438A68C2620A68FF
:103450008262084A904203D002F58062904201D114
:103460000A690263026842F00402026001224261BA
:10347000036070470000014040B310B5044690F867
:103480003D30F3B1022384F83D30214651F8040B5E
:10349000FFF78AFF012384F8463084F83E3084F831
:1034A0003F3084F8403084F8413084F8423084F86A
:1034B000433084F8443084F8453084F83D300020AF
:1034C00010BD80F83C30FFF7D7FDDBE701207047E7
:1034D00010B4846824F47F4C42EA03220A4342EA8F
:1034E0000C0282605DF8044B704790F83C30012B71
:1034F00078D010B50446012380F83C30022380F8D0
:103500003D300268936823F47F4323F07703936090
:103510000B68602B4CD029D8402B54D00CD9502BA1
:1035200022D1CA6849680068FFF7D8FD5021206899
:10353000FFF7FBFD002005E0202B0DD009D9302B33
:103540000AD00120012384F83D30002384F83C3068
:1035500010BD0BB1102B05D119462068FFF7E5FD12
:103560000020EFE70120EDE70120EBE7B3F5805FF6
:1035700034D0B3F5005F0CD1CB684A688968006825
:10358000FFF7A6FF2268936843F48043936000200E
:10359000D8E7702B24D1CB684A6889680068FFF7A8
:1035A00097FF2268936843F0770393600020C9E790
:1035B000CA6849680068FFF7A4FD60212068FFF72A
:1035C000B4FD0020BEE7CA6849680068FFF786FDC1
:1035D00040212068FFF7A9FD0020B3E70020B1E7F4
:1035E0000120AFE70220704790F83C30012B3DD01E
:1035F00010B4012380F83C30022380F83D3003688A
:103600005A689C6822F0700C0A6842EA0C025A6000
:103610000368174A93421AD0B3F1804F17D0A2F52E
:103620007C42934213D002F5806293420FD002F5A0
:10363000806293420BD002F57842934207D002F5A4
:103640007052934203D0A2F59432934204D124F0F5
:1036500080044A6814439C60012380F83D300023B5
:1036600080F83C3018465DF8044B704702207047E4
:103670000000014070477047DFF834D0FFF782FC4C
:103680000C480D490D4A002302E0D458C4500433BD
:10369000C4188C42F9D30A4A0A4C002301E0136093
:1036A0000432A242FBD300F011F8FDF79DFC7047F5
:1036B0000000022000000020DC0100202C6A00082D
:1036C000E0010020B0040020FEE7000070B50D4DC1
:1036D0000D4C641BA4100026A64209D10B4D0C4CC6
:1036E00002F066FF641BA4100026A64205D170BD3F
:1036F00055F8043B98470136EEE755F8043B9847E8
:103700000136F2E7000000000000000000000000A9
:103710000000000002440346934200D1704703F8C2
:10372000011BF9E72DE9FF4755EC104B002D0E4624
:1037300019462B46BBBF05F100431D4600232D2330
:103740000B700D9BDDF830A0914623F02008BCBF24
:1037500022461446B8F1460F05D0B8F1450F00D106
:103760000136022100E0032103AB019302AB009379
:1037700045EC104B5346324600F0FEFCB8F1470FC3
:10378000074602D119F0010F22D0B8F1460F07EB1E
:10379000060910D13B78302B0AD1002200232046A5
:1037A0002946FDF771F918B9C6F10106CAF800609B
:1037B000DAF8003099440022002320462946FDF71C
:1037C00063F908B1CDF80C903022039B4B4507D329
:1037D000039B0E9ADB1B3846136004B0BDE8F087EC
:1037E000591C03911A70F0E7F7B503460029B8BFDA
:1037F000494203F8022BB4BF2D222B220929427023
:103800002ADD0DF10704A4460A27A6460A4691FBC5
:10381000F7F607FB16153035632A04F1FF340EF86E
:10382000015C3146F1DC3031AEF1020504F8011CD7
:10383000441C294661450AD30DF10902A2EB0E0290
:10384000654588BF00221344181A03B0F0BD11F873
:10385000012B04F8012FEDE7302330318370C17064
:10386000031DF1E72DE9F04F2DED028B8DB00C46D5
:10387000DDF8608016461F46054601F06BFAD0F869
:1038800000A05046FCF784FC00230A9323680593AC
:10389000D8F8003094F818B0073323F0070303F189
:1038A0000802C8F80020D3E90023C4E91223D4E9B0
:1038B000128929F000430793CDF8188008EE100A0A
:1038C0009F4BDDE906014FF0FF32FDF70FF988BB92
:1038D000DDE906019A4B4FF0FF32FDF7E9F848BBEE
:1038E0000022002340464946FDF7D8F810B12D23A9
:1038F00084F84330934B9448BBF1470F94BF9846EC
:10390000804603232361059B23F0040222604FF0CD
:103910000009009733460BAA2146284600F0D8F943
:10392000013040F090804FF0FF300DB0BDEC028BC5
:10393000BDE8F08F42464B4640464946FDF7D6F873
:1039400040B14B46002BBCBF2D2384F843307F4849
:103950007F4BD1E763680BF0DF0206925A1C3FD120
:1039600006236360059B616843F480620023039330
:103970000AABCDE901B309AB49EC108B009322608F
:103980000DF123032846FFF7CDFE069B0999472B2F
:10399000804608D1C81C02DB6368994241DDABF167
:1039A000020B5FFA8BFBBBF1650F20D801395A4639
:1039B00004F150000991FFF717FF0A9A1318012A22
:1039C0008146236102DC2268D20701D501332361DD
:1039D0009DF82330002B9CD02D2384F8433098E7AA
:1039E000069A472ABED1002BBCD10123B9E7BBF10F
:1039F000660F18D1002963680BDD216113B92268B5
:103A0000D00702D501330B442361A1654FF00009B3
:103A1000DEE713B92268D20701D50233F4E70123A8
:103A2000F2E74FF0670B0A9B994205DB236821619F
:103A3000D807EAD54B1CE7E70029D4BFC1F1020241
:103A400001221344E0E723685A0507D4236942465C
:103A500031462846B84701302CD164E7BBF1650FE9
:103A600040F2E080D4E9120100220023FDF70CF8B7
:103A7000002834D0374A012331462846B847013060
:103A80003FF451AFDDE909239A4202DB2368D807EE
:103A900010D518EE103A524631462846B847013044
:103AA0003FF441AF4FF0000804F11A090A9B013BB3
:103AB000434509DC23689B0700F10581E0680B9B07
:103AC0009842B8BF184630E701234A463146284697
:103AD000B84701303FF427AF08F10108E6E7099B3A
:103AE000002B39DC1B4A012331462846B8470130F8
:103AF0003FF419AFDDE90923134302D12368D90745
:103B0000D8D518EE103A524631462846B84701300B
:103B10003FF409AF4FF0000904F11A0A099B5B4218
:103B20004B4501DC0A9B92E7012352463146284669
:103B3000B84701303FF4F7AE09F10109EEE700BFE5
:103B4000FFFFEF7F046600080866000810660008A3
:103B50000C660008146600080A9AA36D9A42A8BF72
:103B60001A46002A914637DC4FF0000B29EAE97922
:103B700004F11A02A36D0593A3EB09035B4533DC43
:103B8000DDE909239A423BDB2368DA0738D40A9B34
:103B9000059A09999A1AA3EB01099145A8BF914684
:103BA000B9F1000F35DC4FF0000829EAE97904F19A
:103BB0001A0ADDE909239B1AA3EB090343457FF7A2
:103BC00079AF0123524631462846B84701303FF4C9
:103BD000AAAE08F10108ECE71346314642462846F2
:103BE000B8470130C0D19EE60123314628460592F0
:103BF000B84701303FF497AE059A0BF1010BB9E7D6
:103C000018EE103A524631462846B8470130BED128
:103C100089E6059A4B46424431462846B84701306A
:103C2000C1D180E60A9A012A01DCDB0738D50123DD
:103C3000424631462846B84701303FF474AE18EE8C
:103C4000103A524631462846B84701303FF46BAE31
:103C5000D4E9120100220023FCF716FFD8B90A9B11
:103C600008F10102013B31462846B84701300ED128
:103C700059E60123524631462846B84701303FF401
:103C800052AE08F101080A9B013B4345F1DC4B466B
:103C900004F15002DCE64FF0000804F11A0AF2E7E2
:103CA00001234246DFE701234A4631462846B8470A
:103CB00001303FF438AE08F10108E3680B995B1A54
:103CC0004345F0DCFAE64FF0000804F11909F4E787
:103CD0002DE9F047164699468A680B69DDF8208081
:103CE0009342B8BF1346336091F8432007460C4611
:103CF0000AB1013333602368990642BF3368023347
:103D00003360256815F0060506D104F1190AE36849
:103D100032689B1AAB4226DC94F84320131E2268BB
:103D200018BF012392062BD404F1430249463846BA
:103D3000C04701301ED02368E568326803F00603EF
:103D4000042B08BFAD1AA36822690CBF25EAE575EC
:103D500000259342C4BF9B1AED1800261A34B542C1
:103D60001AD1002008E00123524649463846C04790
:103D7000013003D14FF0FF30BDE8F0870135C6E7D1
:103D8000E1185A1C302081F84300224494F8451071
:103D900082F843100233C7E70123224649463846DA
:103DA000C0470130E6D00136D9E700002DE9FF47D2
:103DB0000F7E0C9D782F914680460C469A4601F165
:103DC000430207D8622F0AD8002F00F0D880582F5E
:103DD00000F0A38004F1420584F842703AE0A7F1B4
:103DE0006303152BF6D801A151F823F0453E0008D6
:103DF000593E0008D53D0008D53D0008D53D0008D6
:103E0000D53D0008593E0008D53D0008D53D0008C5
:103E1000D53D0008D53D0008653F0008893E0008F3
:103E2000473F0008D53D0008D53D0008873F000802
:103E3000D53D0008893E0008D53D0008D53D000865
:103E40004F3F00082B681A1D1B682A6004F14205C9
:103E500084F842300123A3E020682968060601F1B6
:103E600004030AD50E682B60002E03DA2D23764258
:103E700084F843305E480A2319E00E682B6010F086
:103E8000400F18BF36B2EFE72B682068191D296074
:103E9000010601D51E6802E04606FBD51E8854487F
:103EA0006F2F0CBF08230A23002184F84310656894
:103EB000A560002DA2BF216821F0040121600EB988
:103EC000002D4DD01546B6FBF3F103FB1167C75D1E
:103ED00005F8017D3746BB420E46F4D9082B0BD1BD
:103EE0002368DE0708D5236961689942DEBF302365
:103EF00005F8013C05F1FF35521B2261CDF800A009
:103F00004B4603AA21464046FFF7E2FE01304CD162
:103F10004FF0FF3004B0BDE8F087354881F84570B8
:103F20002968236851F8046B29601D0614D5DF0742
:103F300044BF43F0200323601EB9236823F020030D
:103F400023601023B0E7236843F020032360782325
:103F5000284884F84530E3E7590648BFB6B2E6E79B
:103F60001546BBE72B6826686169181D2860350671
:103F70001B6801D5196002E07006FBD5198000238B
:103F800023611546BAE72B681A1D2A601D6862680E
:103F900000212846FCF704F908B1401B6060636803
:103FA0002361002384F84330A8E723692A46494661
:103FB0004046D0470130ABD023689B0713D4E0685C
:103FC000039B9842B8BF1846A4E7012332464946EE
:103FD0004046D04701309BD00135E36803995B1A16
:103FE000AB42F2DCEBE7002504F11906F5E700BF70
:103FF00016660008276600080CB430B5174B0C1E77
:104000001D689DB008DA8B232B604FF0FF301DB088
:10401000BDE8304002B070474FF40273ADF8143081
:1040200014BF04F1FF332346049307934FF6FF7345
:1040300002900690ADF81630209A21AB02A92846CE
:10404000019301F077FB431CBCBF8B232B60002C3A
:10405000DDD0029B00221A70D9E700BF0C000020BF
:104060002DE9F74F03690C69A3420746C0F281802E
:10407000013C01F1140800F1140505EB84030193E0
:1040800058F8243055F8242001339A424FEA840B23
:1040900008EB8409B2FBF3F631D34FF0000E404633
:1040A000AC46F24650F8042B93B206FB03E34FEA0A
:1040B000134E9BB2AAEB0303DCF800A0120C13FA18
:1040C0008AF306FB02E20093009B4FEA124E92B283
:1040D000C2EB1A4202EB2342BDF80030814543EAAD
:1040E00002434CF8043B4FEA224ADBD255F80B302E
:1040F0002BB9019B043B9D421A462ED33C613846A6
:1041000001F0C4F8002824DB013628464FF0000CEB
:1041100058F8042BD0F800E093B2ACEB0303120C78
:1041200013FA8EF3C2EB1E4202EB23429BB243EA28
:104130000243C14540F8043B4FEA224CE8D255F80F
:10414000242005EB840322B9043B9D421A460AD37E
:104150003C61304603B0BDE8F08F1268043B002A92
:10416000CCD1013CC7E71268043B002AF0D1013CE6
:10417000EBE70020EEE700002DE9F04F2DED048B7A
:1041800057EC106B93B0456ADDF88080069110EE15
:1041900010AA044609920C93BB4675B9102000F092
:1041A000DDFD0246606220B9A74BEA21A74801F075
:1041B000D1FBC0E901550560C560636A196851B15A
:1041C0005A684A60012393408B60204600F01CFE31
:1041D000636A00221A603B1EAABF002323F0004B33
:1041E000C8F800309A4BBCBF0122C8F8002033EA5F
:1041F0000B031BD10C9A42F20F731360CBF3130322
:10420000334300F09285219B63B9924B22E0924B9D
:1042100001930833219A1360019813B0BDEC048B0D
:10422000BDE8F08F8B4B01930333F3E700220023AB
:1042300050465946FCF728FC4BEC19AB804658B168
:104240000C9A01231360219B002B00F06B8583489F
:104250001860431E0193DFE74BEC10AB10AA11A9C5
:10426000204601F0B9F8CBF30A5508EE100A002DEC
:1042700000F0848019EE903AC3F3130343F07F57A4
:10428000564647F44017A5F2FF35CDF83880744BF9
:10429000002230463946FBF7D7FF65A3D3E9002358
:1042A000FCF78AF964A3D3E90023FBF7CFFF0646A6
:1042B00028460F46FCF716F961A3D3E90023FCF763
:1042C0007BF902460B4630463946FBF7BFFF0646F0
:1042D0000F46FCF721FC00220090002330463946AF
:1042E000FCF7DCFB50B10098FCF7FCF832463B468B
:1042F000FCF7CAFB10B9009B013B0093009B162BF7
:104300005AD8009A574B03EBC203D3E9002351EC70
:10431000190BFCF7C3FB002850D0009B013B009316
:1043200000230B93109B5D1B6B1E059345BFC5F1CE
:1043300001030493002300234CBF05930493009BC7
:10434000002B3DDB059B009A0A9213440593002342
:104350000793069B092B00F28980052BC4BF043B01
:104360000693069BA3F10203CCBF00250125032B76
:1043700000F28780DFE803F02D3A3859DDE9105369
:104380001D4405F23243202BC1BFC3F1400305F2A7
:1043900012400BFA03F326FA00F0DABFC3F1200350
:1043A00006FA03F01843FCF78DF801230646A1F145
:1043B000F877013D0E936AE70123B2E70B90B1E76E
:1043C000049B009A9B1A04935342079300230A9379
:1043D000BFE700230893099B002B55DC0123CDE99F
:1043E00002331A4609920CE00123F3E70023099AED
:1043F0000893009B134402930133012B0393B8BF2E
:104400000123606A00224260042202F114069E42E7
:1044100041683DD9204600F0B7FC019000283BD10F
:10442000114B02464FF4D571C0E60123DFE700BF10
:1044300061436F63A787D23FB3C8608B288AC63FAA
:10444000FB799F501344D33F456600085C66000823
:104450000000F07F41660008386600081566000815
:104460000000F83F98670008DA660008012500237D
:10447000069308954FF0FF33CDE902330022122353
:10448000B0E701230893F5E7099BCDE90233B8E7CC
:10449000013141605200B8E7636A019A1A60039BD8
:1044A0000E2B00F29D80002D00F09A80009B002BC7
:1044B00032DDB74A03F00F0302EBC303D3E90089EF
:1044C000009BD8054FEA231716D5B24B51EC190BB8
:1044D000D3E90823FCF79AF907F00F0782468B46C9
:1044E0000325AC4E57B942464B4650465946FCF759
:1044F0008DF982468B4628E00225F2E7F90708D5B8
:1045000040464946D6E90023FCF756F80135804677
:1045100089467F100836E5E700F09B80009B9D4FA1
:104520005E429B4B06F00F0203EBC203D3E900236C
:1045300051EC190BFCF740F8361182468B460023EC
:104540000225002E7AD1002BD3D10B9B002B00F03B
:104550008280914B002250465946FCF79FFA002872
:1045600079D0039B002B76D0029B002B36DD009B7D
:10457000504659465F1E0022884BFCF71DF8029EEC
:1045800082468B4601352846FBF7ACFF52465B4618
:10459000FCF712F8824B0022FBF758FED046D946B2
:1045A0008246A1F1507B002E58D17E4B002240461E
:1045B0004946FBF749FE52465B4680468946FCF772
:1045C0008BFA002840F0958252460BF1004340469A
:1045D0004946FCF763FA002840F089825BEC19AB8E
:1045E000119B002BC0F24881009A0E2A00F34481EF
:1045F000674B03EBC203D3E90089099B002B80F2D0
:10460000D580039B002B00F3D18040F06F82654B77
:10461000002240464946FBF7CFFF52465B46FCF777
:1046200051FA039E3746002840F04582019D312310
:1046300005F8013B009B0133009340E2F20705D5EA
:10464000D7E90023FBF7B8FF0135012376100837BF
:1046500077E7022579E7009F039E94E701994C4B89
:1046600031440D91089903EBC60353E90223002955
:1046700043D04D490020FCF7C9F852465B46FBF792
:10468000E3FD019D82468B4649464046FCF744FACD
:104690000646FBF727FF02460B4640464946FBF716
:1046A000D3FD303605F8016B52465B46804689469D
:1046B000FCF7F4F9002863D142464B463649002006
:1046C000FBF7C2FD52465B46FCF7E8F9002840F0D4
:1046D000B5800D9B9D4281D0304B002250465946FB
:1046E000FBF76AFF2D4B82468B4640464946002227
:1046F000FBF762FF80468946C6E750465946FBF7FE
:104700005BFF0D9B019D0F9382468B4649464046B9
:10471000FCF702FA0646FBF7E5FE303602460B468A
:1047200040464946FBF790FD05F8016B0D9B9D4205
:10473000804689464FF0000224D11B4B5046594613
:10474000FBF784FD02460B4640464946FCF7C4F998
:10475000002873D152465B4613490020FBF774FDD5
:1047600002460B4640464946FCF798F900283FF4BC
:1047700035AF0F9D6B1E0F9315F8013C302BF8D011
:10478000009749E0054BFBF717FF80468946BDE7D8
:1047900098670008706700080000F03F00002440A0
:1047A00000001C40000014400000E03F019D564600
:1047B0005F4642464B4630463946FCF727F8FCF741
:1047C000ABF98246FBF78EFE42464B46FBF7F4FE02
:1047D00002460B46304639460AF13006FBF734FDF7
:1047E00005F8016B019E039FAE1BB74202460B46C4
:1047F00035D1FBF72BFD42464B4606460F46FCF7EC
:104800006BF9D0B942464B4630463946FCF73CF985
:1048100010B11AF0010F10D1204618EE101A00F056
:10482000F3FA002300982B700C9B01301860219B39
:10483000002B3FF4F1AC1D60EEE4009F2B461D46BB
:1048400013F8012D392A06D1019A9A42F7D101991C
:10485000302201370A701A7801321A7090E7A64B9D
:104860000022FBF7A9FE0022002306460F46FCF7B4
:104870000BF900289DD0CFE7089A002A00F0D780D6
:10488000069A012A00F3BA800E9A002A00F0B2803C
:1048900003F23343079E049D049A1A440492059A36
:1048A00001211A442046059200F066FB0746002DC0
:1048B0000CDD059B002B09DDAB42049AA8BF2B46FB
:1048C000D21A0492059AED1AD31A0593079B1BB3CB
:1048D000089B002B00F0AF80002E13DD39463246D6
:1048E000204600F009FC18EE102A01460746204633
:1048F00000F058FB18EE101A8046204600F084FAAB
:1049000008EE108A079B9A1B06D018EE101A204654
:1049100000F0F2FB08EE100A0121204600F02CFB0B
:104920000A9B002B064640F388801A460146204623
:1049300000F0E2FB069B012B064640F381804FF01E
:104940000008336906EB8303186900F0C5FAC0F16B
:104950002000059B184410F01F0000F09280C0F169
:104960002003042B40F38A80C0F11C00049B034405
:104970000493059B034405440593049B002B07DD2A
:1049800018EE101A1A46204600F010FC08EE100A25
:10499000059B002B05DD31461A46204600F006FC3B
:1049A00006460B9B002B6ED018EE100A314600F025
:1049B0006DFC002867DA009B013B18EE101A00938B
:1049C0000A220023204600F041FA089B08EE100A54
:1049D000002B00F0B181002339460A22204600F066
:1049E00035FA029B002B074600F38E80069B022BB4
:1049F00051DC89E0109BC3F136034BE7039B5E1E3D
:104A0000079BB342BFBF079B0796F21A0A9BB6BF2C
:104A10009B189E1B0A93039BB8BF0026002BB7BFB1
:104A2000DDE90323DDE903359D1A002334E7079E02
:104A3000049D089F3BE7079A67E7069B012B18DC5C
:104A4000BAF1000F15D1CBF3130393B92BF0004348
:104A50001B0D1B0583B1049B01330493059B01339C
:104A600005934FF001080A9B002B7FF46AAF0120E9
:104A70006FE74FF00008F6E79846F4E73FF47DAFA4
:104A800018461C3072E7039B002B37DC069B022B79
:104A900034DD039B0293029B6BB93146052220460D
:104AA00000F0D4F90146064618EE100A00F0EEFBBD
:104AB00000283FF7BBAD099B019DDB4300934FF0FE
:104AC00000083146204600F09FF9002F3FF4A4AEC5
:104AD000B8F1000F05D0B84503D04146204600F09C
:104AE00093F93946204600F08FF995E600263746BF
:104AF000E1E70097374699E500002440089B002B2A
:104B000000F0CA80039B0293002D05DD39462A463A
:104B1000204600F04BFB0746B8F1000F5BD07968E8
:104B2000204600F031F9054628B9874B024640F28D
:104B3000EA21FFF73BBB3A690232920007F10C0110
:104B40000C3000F013F901222946204600F02EFB1C
:104B5000019B03F10109DDE90123134405930AF0E8
:104B60000103B84604930746314618EE100AFFF7D2
:104B700077FA4146029000F1300A18EE100A00F070
:104B800085FB3A4603903146204600F09BFBC26805
:104B900009F1FF3B054602BB014618EE100A00F082
:104BA00075FB024629462046079200F02DF9DDE903
:104BB000063243EA0201049B0B434D460FD1BAF182
:104BC000390F2AD0039B002B02DD029B03F1310A2F
:104BD0008BF800A075E73846BAE70122E2E7039BAD
:104BE000002B04DB06990B4304990B4322D1002AC6
:104BF000EEDD18EE101A0122204600F0D7FA3146F9
:104C000008EE100A00F042FB002803DCE0D11AF0A5
:104C1000010FDDD0BAF1390FD7D139238BF800302D
:104C20002B461D46013B15F8012C392A71D0013263
:104C30001A7046E7002A07DDBAF1390FEDD00AF104
:104C400001038BF800303CE7059B09F801AC99455E
:104C500047D018EE101A00230A22204600F0F6F87A
:104C6000B84508EE100A4FF000034FF00A02414623
:104C7000204606D100F0EAF88046074609F101090E
:104C800072E700F0E3F83946804600230A22204606
:104C900000F0DCF80746F1E7039B0293019D18EE54
:104CA000100A3146FFF7DCF900F1300A019B05F8E4
:104CB00001ABEA1A029B934209DD18EE101A002399
:104CC0000A22204600F0C2F808EE100AE7E7029B2D
:104CD000002BC8BF1D46019BD8BF01251D444FF0C6
:104CE000000818EE101A0122204600F05FFA314643
:104CF00008EE100A00F0CAFA002891DC02D11AF07E
:104D0000010F8DD12B461D4613F8012D302AFAD004
:104D1000D7E6019A9A4284D1009B01330093312354
:104D20001370CEE6094BFFF795BA219B002B7FF459
:104D30006EAA074BFFF78EBA029B002BAEDC069BD8
:104D4000022B3FF7A8AEA9E7DA6600081466000850
:104D5000386600080048704760010020024B014699
:104D6000186800F017BC00BF0C0000200A449142F4
:104D700000F1FF3300D1704710B511F8014B03F873
:104D8000014F9142F9D110BD70B5466A04460D46F7
:104D900076B91020FFF7E2FF0246606220B9184B97
:104DA0001848662100F0D6FDC0E901660660C660BD
:104DB000666AF36883B1636ADB6853F82500B8B9A3
:104DC000012101FA05F6721D9200204600F060FBF9
:104DD00060B1C0E901560EE021220421204600F016
:104DE00057FB636AF060DB68002BE4D1002070BDE4
:104DF000026843F825200023C0E90333F7E700BF2A
:104E000045660008EB66000870B5466A05460C4624
:104E100076B91020FFF7A2FF0246686220B9094B5D
:104E200009488A2100F096FDC0E901660660C66067
:104E30003CB16B6A6268DB6853F82210216043F86A
:104E4000224070BD45660008EB6600082DE9F04180
:104E50000D6907460C461E4601F1140C0020DCF8D3
:104E6000003099B202FB01611E0C0B0C02FB0633F1
:104E700089B2013001EB034185424CF8041B4FEA33
:104E80001346ECDC0EB3A368AB4219DC616838460C
:104E90000131FFF779FF804628B902460C4B0D48D7
:104EA000B52100F057FD2269023204F10C01920095
:104EB0000C30FFF75BFF21463846FFF7A5FF44465D
:104EC00004EB850301355E6125612046BDE8F08174
:104ED000DA660008EB660008030C1B04D3B9000473
:104EE000102310F07F4F04BF0002083310F0704F02
:104EF00004BF0001043310F0404F04BF80000233B0
:104F0000002805DB10F0804F03F1010308BF2023C8
:104F1000184670470023E4E7036813F007020146D0
:104F20000BD0DA0723D4980749BF5B089B08012000
:104F30000B605CBF0B600220704798B2A8B91B0CD5
:104F40001020DAB20AB908301B0A1A0704BF1B097D
:104F500004309A0704BF9B080230DA0703D45B08C9
:104F600000F1010005D00B6070471046E9E7002012
:104F7000704720207047000010B50C460121FFF754
:104F800003FF024628B9054B05484FF4A07100F015
:104F9000E1FC01234461036110BD00BFDA66000833
:104FA000EB6600082DE9F04F91460A69D9F81030F8
:104FB0009A42B8BF0B460C46BCBF4C46994627697F
:104FC000D9F810A0A368616807EB0A06B34285B060
:104FD000B8BF0131FFF7D8FE30B90246444B45480F
:104FE00040F25D1100F0B6FC00F1140505EB8608F7
:104FF0002B460022434521D304F1140303EB87071A
:1050000009F1140303EB8A0202923A1B153A22F0CB
:105010000302043204F115018F4238BF04220192C9
:10502000029A03939A420CD8002E03DD58F8043DEF
:10503000002B5AD0066105B0BDE8F08F43F8042B71
:10504000D8E7B3F800A0BAF1000F24D004F1140E91
:10505000A9464FF0000C5EF8042BD9F800101FFA97
:1050600082FB89B20AFB0B114FEA124BD9F80020E0
:1050700061444FEA124C0AFB0BC202EB114289B2A7
:1050800041EA0241774549F8041B4FEA124CE2D845
:10509000019A45F802C0039AB2F802900433B9F1BC
:1050A000000F20D0296804F1140CAE464FF0000A1E
:1050B000BCF800B0BEF8022009FB0B22924489B272
:1050C00041EA0A414EF8041B5CF8042BBEF80010BC
:1050D000120C09FB021101EB1A4167454FEA114A14
:1050E000E6D8019AA95004359AE7013E9CE700BF33
:1050F000DA660008EB6600082DE9F843154612F061
:10510000030206460F4607D0254C013A002354F807
:105110002220FFF79BFE0746AD103DD0746A7CB994
:105120001020FFF71BFE0246706228B91D4B1E4877
:105130004FF4D77100F00EFCC0E901440460C46074
:10514000D6F82480D8F808404CB940F27121304696
:10515000FFF712FF0023C8F80800044603604FF071
:105160000009EB070AD5394622463046FFF71AFFF9
:10517000394680463046FFF747FE47466D100BD054
:10518000206838B9224621463046FFF70BFF2060E1
:10519000C0F800900446E4E73846BDE8F88300BF55
:1051A0006068000845660008EB6600082DE9F047D6
:1051B0000C464968236903EB6218A36807469146C9
:1051C0004FEA621A08F10106B3420BDB3846FFF7DB
:1051D000DBFD054648B902462A4B2B4840F2D9115F
:1051E00000F0B8FB01315B00EEE7002300F1140191
:1051F00000F110021846534537DB20692AEAEA7AA3
:1052000004F1140319F01F0901EB8A0103EB80007C
:105210002FD0C9F1200E8A464FF0000C1A6802FA0E
:1052200009F242EA0C024AF8042B53F8042B984284
:1052300022FA0EFCF2D8031B153B23F003030433C0
:1052400004F11502904238BF042341F803C0BCF1B9
:10525000000F01D008F10206013E38462E612146BA
:10526000FFF7D2FD2846BDE8F08742F8040F01336E
:10527000C1E7043953F8042B41F8042F9842F9D8B8
:10528000EAE700BFDA660008EB66000830B502699D
:105290000C69121B0ED100F11403143103EB8400CE
:1052A00001EB840150F8045D51F8044DA54203D090
:1052B00005D30122104630BD8342F3D3FAE74FF005
:1052C000FF32F7E72DE9F84F0C4606461146204617
:1052D0009046FFF7DBFF051E10D129463046FFF749
:1052E00053FD30B93A4B024640F23221394800F0C2
:1052F00031FB0123C0E90435BDE8F88FA4BF434664
:10530000A0463046D8F80410A6BF1C46002501254B
:10531000FFF73AFD20B92E4B02464FF41071E5E736
:10532000D8F810702669C56004F1140908F1140555
:1053300000F1140E05EB870C09EB860608F110024C
:10534000F246002159F8043B52F804BF1FFA83F8D3
:1053500011FA8BF11B0CA1EB0808C3EB1B4303EB09
:1053600028431FFA88F819144E4548EA03434AF8BF
:10537000043BE7D8331B153B23F0030304331534F8
:10538000A64238BF04231D4473449E462E466645FC
:105390000ED30CF10302521B22F00302033DAC4575
:1053A00038BF00221A4452F8043D7BB10761A3E7DD
:1053B00056F8048B11FA88F2141404EB184492B2D4
:1053C00042EA04424EF8042B2114E0E7013FEAE7E9
:1053D000DA660008EB6600082DE9F74389460121EB
:1053E00057EC106B9046FFF7CFFC044630B90246ED
:1053F000254B264840F20A3100F0ACFAC7F30A55B3
:10540000C7F3130335BB002E019328D068460096DE
:10541000FFF782FD009900B3019AC0F1200302FA60
:1054200003F30B43C24063610192019BA361002B14
:1054300014BF022201222261D5B1A5F233450544F1
:10544000C9F80050C0F13500C8F80000204603B08C
:10545000BDE8F08343F48013D5E76161E5E701A877
:10546000FFF75AFD019B6361012222612030E3E7CF
:1054700004EB8203A0F23240C9F800001869FFF77C
:105480002BFDC0EB4210DFE7DA660008EB66000890
:1054900037B5A1FB02244CB91146019200F07AF80D
:1054A000019A054630B9284603B030BD0C2202608F
:1054B0000025F8E72146FEF72DF9F4E737B5002976
:1054C00044D051F8043C0190002BA1F10404B8BF72
:1054D000E41800F09BFA1E4A0198136833B9636020
:1054E000146003B0BDE8304000F096BAA34208D97A
:1054F000256861198B4201BF19685B6849192160F1
:10550000EDE71A465B680BB1A342FAD9116855184A
:10551000A5420BD1246821445418A3421160E0D164
:105520001C685B68536021441160DAE702D90C23E0
:105530000360D6E7256861198B4204BF19685B6870
:10554000636004BF491921605460CAE703B030BDED
:105550009C04002070B50E4E0C463168054611B90A
:1055600000F0E8F930602146284600F0E3F9431CDA
:105570000AD0C41C24F00304A04207D0211A2846F4
:1055800000F0D8F9013001D14FF0FF34204670BD52
:10559000A00400202DE9F041CD1C25F003050835BD
:1055A0000C2D38BF0C25002D074601DBA94205D97B
:1055B0000C233B6000263046BDE8F0812E4E00F003
:1055C00025FA33681C4634BB29463846FFF7C2FF2C
:1055D000431C04464DD134682646002E40D1236832
:1055E0003146384604EB030800F0A4F980453AD16F
:1055F000216803356D1A25F0030508350C2D38BFD9
:105600000C2529463846FFF7A5FF01302BD023682B
:105610002B4423600EE02268521B1ED40B2A16D99D
:105620006119A342256018BF5960636808BF3160E3
:1056300062514B60384604F10B0600F0EDF926F09C
:105640000706231DF21AB6D09B1BA350B3E762686E
:10565000A3420CBF32605A60ECE723466468B2E7AD
:1056600034467668B9E70C233B60384600F0D4F93D
:10567000A1E72560DEE700BF9C0400202DE9F0478C
:105680008E689E4282460C4690461F4638D88A89CC
:1056900012F4906F32D025680969A5EB010965699C
:1056A00005EB450505EBD57501334B446D109D4267
:1056B00038BF1D46530531D52946FFF76BFF064617
:1056C00050B90C23CAF80030A38943F04003A381EA
:1056D0004FF0FF30BDE8F08721694A46FFF746FBEF
:1056E000A38923F4906343F08003A381266165615D
:1056F0004E44A5EB09052660A5603E46BE4200D992
:105700003E4620683246414600F066F9A3689B1B7E
:10571000A3602368334423600020DBE72A4600F0BF
:1057200081F906460028E1D121695046FFF7C6FEFF
:10573000C7E700002DE9F04F98468B891B069DB006
:1057400007460D4614460ED50B6963B94021FFF795
:1057500021FF2860286120B90C233B604FF0FF3007
:10576000D1E040236B610023099320238DF8293079
:10577000CDF80C803023DFF8A8818DF82A304FF067
:10578000010923469A4613F8012B0AB1252AF9D1BB
:10579000BAEB040B0BD05B46224629463846FFF78E
:1057A0006DFF013000F0AA80099A5A4409929AF8D4
:1057B0000030002B00F0A28000234FF0FF32CDE933
:1057C00005230AF1010A049307938DF853301A93C5
:1057D0005446052214F8011B5148FAF7E1FC049ADB
:1057E000D8B9D00644BF20238DF85330110744BFE9
:1057F0002B238DF853309AF800302A2B15D0079AB6
:10580000544600204FF00A0C214611F8013B303B72
:10581000092B4ED9B0B1079214E0A0EB080309FAA6
:1058200003F313430493A246D2E7039B191D1B689D
:105830000391002BBBBF5B4242F002020793079328
:10584000B8BF049223782E2B0CD163782A2B35D144
:10585000039B1A1D1B680392002BB8BF4FF0FF3348
:1058600002340593DFF8C8A0217803225046FAF7E6
:1058700097FC40B14023A0EB0A0003FA00F0049B20
:1058800003430134049314F8011B26488DF82810B3
:105890000622FAF785FC002838D0234B1BBB039B5C
:1058A000073323F0070308330393099B3344099319
:1058B00067E70CFB02320C460120A5E70023013408
:1058C000059319464FF00A0C204610F8012B303A88
:1058D000092A03D9002BC5D00591C3E70CFB012190
:1058E00004460123F0E703AB00932A460F4B04A9BB
:1058F0003846FDF7B7FF421C0646D6D1AB895B069A
:105900003FF52CAF09981DB0BDE8F08F03AB0093B5
:105910002A46064B04A93846FEF748FAEBE700BFD3
:105920006C68000876680008653800087D56000835
:105930007268000838B5064D0023044608462B60FF
:1059400000F01EFE431C02D12B6803B1236038BD5A
:10595000A40400201FB514461A46094B1B680546CF
:10596000D8684CB1074B0091CDE9013406492B466C
:1059700000F00EF800F0ACFA044B1C46F3E700BF51
:105980000C0000207D6800088A680008B8680008DC
:105990000EB403B5014603AB054853F8042B006869
:1059A000019300F097F802B05DF804EB03B0704784
:1059B0000C00002082B001B901A942B14BB11378AB
:1059C0000B601278101E18BF012002B070471046FD
:1059D000FBE76FF00100F8E7884210B501EB020425
:1059E00002D98442234607D8431EA14208D011F8A9
:1059F000012B03F8012FF8E7024401468A4200D147
:105A000010BD13F8014D02F8014DF7E7014800F011
:105A10001FBC00BFA8040020014800F01ABC00BF52
:105A2000A80400202DE9F041804614460E4621B915
:105A3000BDE8F0411146FFF7ADBD2AB9FFF73EFDC5
:105A400025462846BDE8F08100F06AFC84420746FE
:105A500002D8B4EB500F12D821464046FFF79AFD0A
:105A600005460028EDD0BC422246314628BF3A46C2
:105A7000FFF77CF931464046FFF720FDE1E7354668
:105A8000DFE79368013B002B10B4936008DA946958
:105A9000A34201DB0A2903D15DF8044B00F04AB9A7
:105AA0001368581C1060197008465DF8044B704765
:105AB000F8B506460F461446D518AC4201D1002071
:105AC00007E014F8011B3A463046FFF7DAFF431CA3
:105AD000F3D1F8BD2DE9F04F0D469DB01446984620
